:020000040800F2
:10780000F062002055DB000869E200086BE2000826
:107810006FE2000873E2000877E200080000000051
:107820000000000000000000000000004579000892
:107830007BE20008000000008979000827CD0008DD
:107840006FDB00086FDB00086FDB00086FDB0008F0
:107850006FDB00086FDB00086FDB00086FDB0008E0
:107860006FDB00086FDB00086FDB00086FDB0008D0
:107870006FDB00086FDB00086FDB00086FDB0008C0
:107880006FDB00086FDB00086FDB00086FDB0008B0
:107890006FDB00086FDB00086FDB00086FDB0008A0
:1078A0006FDB00086FDB00086FDB00086FDB000890
:1078B0006FDB00086FDB00086FDB00086FDB000880
:1078C0006FDB00086FDB00086FDB00086FDB000870
:1078D0006FDB00086FDB00086FDB00086FDB000860
:1078E0006FDB00086FDB00086FDB00086FDB000850
:1078F0006FDB00086FDB00086FDB00086FDB000840
:107900006FDB00086FDB00086FDB00086FDB00082F
:107910006FDB00086FDB00086FDB00086FDB00081F
:107920006FDB00086FDB00086FDB00086FDB00080F
:10793000DFF80CD007F0F0F90048004701E200083A
:10794000F0620020224B19680868B0E8F00F80F35D
:107950000988BFF36F8F4FF0000080F311884EF05D
:107960000D0E70470000000006480068006880F3B4
:10797000088862B661B6BFF34F8FBFF36F8F00DF29
:1079800000BF00BF08ED00E0EFF30980BFF36F8F89
:107990000F4B1A6820E9F00F106008B54FF0BF00D8
:1079A00080F31188BFF34F8FBFF36F8F04F0FFFB9D
:1079B0004FF0000080F31188BDE80840196808689E
:1079C000B0E8F00F80F30988BFF36F8F704700BFF6
:1079D0004C010020EFF3058070470000EFF30980B1
:1079E000704780F309887047EFF30880704780F391
:1079F0000888704740BA7047C0BA704710B504464F
:107A000000BF082C02DD4FF0FF3010BD00BFA10009
:107A1000491C4FF4807202EBC100102101F08EFB73
:107A200000BFA100491C4FF4807202EBC10001F0BD
:107A30004DFB0028F5D1A100491C4FF4007202EB68
:107A4000C1001F2101F07AFB0120A040FE490988F6
:107A50008143FD4801800120A040FC490988814301
:107A6000FA4801800020FA4921F81400F949085524
:107A700000BFA100491C4FF4407202EBC10001F0AD
:107A800025FB0028F5D10120BFE7F8B504460E46D6
:107A900017461D4600BF082C02DD4FF0FF30F8BD31
:107AA00000BF012E04D0022E0ED0042E0ED10CE009
:107AB000042269464FF4706001F078FB009810B919
:107AC0006FF00200EBE700BF00BF02E06FF00400C0
:107AD000E5E700BF05F0040010B16FF00500DEE738
:107AE00005B3012E02D0022E1AD106E005F02100C6
:107AF00010B96FF00500D2E713E005F0200028B1BF
:107B000005F0800010B96FF00500C8E705F010001F
:107B100028B105F0800010B96FF00500BFE700E064
:107B200000BF00BF2046FFF769FF05F0F00242EA00
:107B30000601A200521C002303EBC20001F0FEFA72
:107B40007FB9C54807880088401CC349088008469B
:107B500000884FF6F071884203D14FF44040BE498F
:107B600008803912A200521C4FF4806303EBC2005C
:107B700001F0E4FAF9B2A200521C4FF4806303EB67
:107B8000C20202F5807001F0D9FAA100491C4FF43D
:107B9000807202EBC100012101F0D0FA00BFA10008
:107BA000491C4FF4807202EBC10001F08FFA0028EB
:107BB000F5D10120A040A44909888143A248018051
:107BC00005F00100A040A049098808439E490880AB
:107BD0000120A0409D49098881439C4801800020E4
:107BE0009B4921F814009B49085500BFA100491C7E
:107BF0004FF4407202EBC10001F068FA0028F5D0A2
:107C000060B24CE710B5044600BF082C02DD4FF00F
:107C1000FF3010BD00BF00BFA100491C002202EBD5
:107C2000C10001F053FA00F00F00012802D06FF0FC
:107C30000400EEE700BF00BFA100491C4FF44072F2
:107C400002EBC10001F042FA132802D06FF00200EB
:107C5000DFE700BFA100491C4FF4807202EBC100B6
:107C6000022101F06BFA00BFA100491C4FF48072A1
:107C700002EBC10001F02AFA0028F5D105E0204608
:107C8000FFF7BCFE6FF00300C3E7A100491C4FF4EF
:107C9000407202EBC10001F019FA1428EFD1012063
:107CA000B7E770B504460D46164600BF082C02DD46
:107CB0004FF0FF3070BD00BF00BFA100491C002283
:107CC00002EBC10001F002FA00F00F00012802D01F
:107CD0006FF00400EEE700BF00BFA100491C4FF4A5
:107CE000407202EBC10001F0F1F9132802D06FF0ED
:107CF0000200DFE700BF2978687861F31F200146A2
:107D0000A87861F31F200146E87861F31F2001463F
:107D1000481C00B111B96FF00B00CBE716B96FF03A
:107D20000A00C7E7A100491C4FF4406202EBC10002
:107D30000422294601F07EFA3112A200521C4FF4AF
:107D4000805303EBC20001F0F9F9F1B2A200521C1A
:107D50004FF4805303EBC20202F5807001F0EEF99C
:107D6000A100491C4FF4807202EBC100042101F014
:107D7000E5F900BFA100491C4FF4807202EBC1007D
:107D800001F0A4F90028F5D10120A0402E4909886E
:107D9000084008B100208DE722E0A100491C4FF403
:107DA000007202EBC10001F091F900F0080058B137
:107DB000A100491C4FF4007202EBC100082101F040
:107DC000BDF96FF00C0075E7A100491C4FF440723B
:107DD00002EBC10001F07AF910B96FF0030069E716
:107DE000A100491C4FF4407202EBC10001F06EF992
:107DF0001728D2D101205DE710B5044600BF082C3A
:107E000002DD4FF0FF3010BD00BF00BFA100491CD4
:107E1000002202EBC10001F059F900F00F00012827
:107E200002D06FF00400EEE700BFA100491C4FF440
:107E3000807202EBC100082101F080F900BFA100AF
:107E4000491C4FF4807209E0020000200400002069
:107E5000F4010020060000200000002002EBC10019
:107E600001F034F90028EAD10120A040FE49098838
:107E70008143FD4801800120A040FC490988084059
:107E800008B10020BFE710E0A100491C4FF40072C8
:107E900002EBC10001F01AF900F0080028B12046F9
:107EA000FFF7ACFD6FF00C00ADE7A100491C4FF4EB
:107EB000407202EBC10001F009F90028E4D1012071
:107EC000A1E72DE9F0410446884615460026002723
:107ED00000BF082C02DD701EBDE8F08100BF00BFAE
:107EE000A100491C002202EBC10001F0EFF800F0F4
:107EF0000F00012802D06FF00400EDE700BF00BFC3
:107F000015B96FF00D00E7E700BFA100491C4FF461
:107F1000407202EBC10001F0D9F80646172E04D0DA
:107F20001C2E02D06FF00600D6E70120A040CE49FB
:107F30000988084040B3A100491C4FF4007202EBCD
:107F4000C10001F0C3F800F01F0606F0100080B178
:107F5000A100491C4FF4007202EBC100102101F096
:107F6000EDF80120A040C04909888143BE48018046
:107F70000AE006F0080028B12046FFF73FFD6FF049
:107F80000C00A9E70020A7E7A100491C4FF4F85214
:107F900002EBC10001F09AF84FF6FF7101EA802769
:107FA000BD4200DD3D4623E0204601F085F907464D
:107FB000A100491C4FF4407202EBC10001F086F8A9
:107FC0000646172E07D01C2E05D02046FFF716FDBB
:107FD0006FF0060080E70120A040A449098808400E
:107FE00018B1BD4201DD002076E7BD4200DC00E0B3
:107FF000DAE700BF2A464146204601F0C9F9A10050
:10800000491C4FF4807202EBC100202101F096F868
:1080100000BFA100491C4FF4807202EBC10001F0C7
:1080200055F80028F5D10120A0408F490988084360
:108030008D49088028464FE72DE9F04704468846D9
:1080400016460027002500BF082C02DD681EBDE88B
:10805000F08700BF00BFA100491C002202EBC10055
:1080600001F034F800F00F00012802D06FF0040096
:10807000EDE700BF00BF16B96FF00D00E7E700BFE6
:10808000A100491C4FF4F05202EBC10001F01EF8B0
:108090004FF6FF7101EA8025B54200DA2E4638E03E
:1080A000204601F03FF90546A100491C4FF44072FB
:1080B00002EBC10001F00AF80746172F1ED01C2F53
:1080C00016D105B126E0204601F0F6F88146A10060
:1080D000491C4FF4F85202EBC10000F0F7FFB9EB76
:1080E000802F0BD12046FFF789FC6FF00600AEE72A
:1080F0002046FFF783FC6FF00600A8E70120A040B0
:108100005A490988084010B10DB900209FE705B110
:1081100000E0C5E700BFB54200DA2E4632464146D0
:10812000204601F077F9A100491C4FF4807202EB60
:10813000C100402101F002F800BFA100491C4FF42A
:10814000807202EBC10000F0C1FF0028F5D130467B
:108150007DE72DE9F05F04468B4615461E46DDF8A7
:1081600028A00027B84600BF082C02DD781EBDE815
:10817000F09F00BFA100491C002202EBC10000F0EB
:10818000A5FF00F00F00022802D0042802D100E071
:1081900000BF02E06FF00400E9E700BF00BF15B9BF
:1081A0006FF00D00E3E700BF96F80090707869F378
:1081B0001F208146B07869F31F208146F07869F36B
:1081C0001F208146B9F1000F0DD1A100491C0022EA
:1081D00002EBC10000F07AFF00F00400042802D096
:1081E0006FF00B00C3E7BAF1000F0DD1A100491CDD
:1081F000002202EBC10000F069FF00F00400042837
:1082000002D06FF00A00B2E7A100491C4FF440729F
:1082100002EBC10000F05AFF0746422F04D0222F84
:1082200002D06FF00600A2E7A100491C4FF44062A3
:1082300002EBC1000422314600F0FCFF4FEA2A2184
:10824000A200521C4FF4805303EBC20000F076FFF3
:108250000AF0FF01A200521C4FF4805303EBC2024C
:1082600002F5807004E000000400002002000020FD
:1082700000F064FFA100491C4FF4F85202EBC1006A
:1082800000F024FF4FF6FF7101EA8028454500DD2C
:1082900045461CE0204601F00FF88046A100491C2D
:1082A0004FF4407202EBC10000F010FF10B96FF004
:1082B00003005CE70120A040F7490988084018B195
:1082C000454501DD002052E7454500DC00E0E1E7DF
:1082D00000BF2A465946204601F05AF8A100491C21
:1082E0004FF4807202EBC100202100F027FF00BF95
:1082F000A100491C4FF4807202EBC10000F0E6FEC1
:108300000028F5D125E0A100491C4FF4007202EBD2
:10831000C10000F0DBFE00F01F0707F0100048B1BD
:10832000A100491C4FF4007202EBC100102100F0C3
:1083300005FF0FE007F0080058B1A100491C4FF4F9
:10834000007202EBC100082100F0F8FE6FF00C0093
:108350000DE7D8E700BF284609E72DE9FC470446AA
:108360008A4616461F46DDF82880002500BF082CE7
:1083700002DD681EBDE8FC8700BFA100491C002289
:1083800002EBC10000F0A2FE814600F00F000228BF
:1083900002D0042802D100E000BF02E06FF0040028
:1083A000E8E700BF00BF16B96FF00D00E2E700BFBD
:1083B000BA4830F81400E8B91AE0204600F0B2FFDD
:1083C0000546A100491C4FF4407202EBC10000F0C9
:1083D0007DFE10B96FF00300CCE70120A040AE494C
:1083E0000988084010B10DB90020C3E705B100E0CD
:1083F000E3E700BF09F00700022802D004287CD17F
:1084000058E0A64830F81400E8BB08226946204628
:1084100001F000F8A100491C4FF4807202EBC1008A
:10842000402100F08BFE00BFA100491C4FF4807278
:1084300002EBC10000F04AFE0028F5D19DF80000D3
:1084400038709DF8010078709DF80200B8709DF8B2
:108450000300F8709DF80400A8F800009DF80500DE
:1084600098F8001000EB0120A8F800009DF8060025
:108470008A4921F814009DF8070011F8141000EB48
:108480000120864900E004E021F81400802084499E
:108490000855824830F81400B04201DD354602E04C
:1084A0007E4830F814502E462A465146204600F0A9
:1084B000B1FF56E0794830F81400B0BB022269469B
:1084C000204600F0A7FFA100491C4FF4807202EB88
:1084D000C100402100F032FE00BFA100491C4FF452
:1084E000807202EBC10000F0F1FD0028F5D19DF88B
:1084F00000006A4921F8140000E02AE09DF801001C
:1085000011F8141000EB0120801E644921F81400BA
:10851000084630F8140040F2EA51884206DD204651
:10852000FFF76CFA6FF47A7024E702E080205C4970
:1085300008555A4830F81400B04201DD354602E0D3
:10854000564830F814502A465146204600F062FF43
:1085500007E02946204600F09FFF504820F81450BD
:1085600000BF00BFA100491C4FF4807202EBC100A4
:10857000402100F0E3FD00BFA100491C4FF48072D0
:1085800002EBC10000F0A2FD0028F5D1434830F80D
:108590001400401B414921F81400084630F814002B
:1085A00030B13F48005D40F001003D49085502E010
:1085B00000203B4908552846DCE62DE9F0410446F9
:1085C0000E461546002700BF082C02DD781EBDE8C8
:1085D000F08100BF082E5ED2DFE806F0041C2331D4
:1085E0003F5164762F78012F07D10120A0402A49FE
:1085F00009880843284908800BE03FB90120A040C2
:108600002549098881432448018002E06FF0090070
:10861000DDE768E020480088204100F00100287074
:1086200061E0A100491C4FF4F85202EBC10000F0D8
:108630004DFD4FF6FF7101EA8020288053E0A10034
:10864000491C4FF4F05202EBC10000F03FFD4FF621
:10865000FF7101EA8020288045E028781F2802DD8C
:108660006FF00900B3E72A7802F01F01A200521C44
:108670004FF4007303EBC20000F060FD33E0A10093
:10868000491C4FF4007202EBC10000F01FFD00F026
:108690001F00287027E023E002000020F4010020E2
:1086A0000600002028781F2802DD6FF009008EE701
:1086B0002A7802F01F01A200521C4FF4305303EB42
:1086C000C20000F03BFD0EE0A100491C4FF4305207
:1086D00002EBC10000F0FAFC00F01F00287002E07D
:1086E0006FF0090073E700BF012070E770B5044622
:1086F0000E46154600BF082C02DD4FF0FF3070BD5E
:1087000000BF082E76D2DFE806F0B2040E182E392C
:108710004F982978A200521C4FF4B05303EBC200CB
:1087200000F00CFDA6E02978A200521C4FF4A853DB
:1087300003EBC20000F002FD9CE02A881112A200A7
:10874000521C4FF4905303EBC20000F0F7FC297861
:10875000A200521C4FF4905303EBC20202F580704A
:1087600000F0ECFC86E0A100491C4FF4406202EBF3
:10877000C1000422294600F05DFD7BE02A88111229
:10878000A200521C4FF4805303EBC20000F0D6FC51
:108790002978A200521C4FF4805303EBC20202F569
:1087A000807000F0CBFC65E000BFA100491C0022F6
:1087B00002EBC10000F08AFC00F00F00012802D09B
:1087C0006FF004009BE700BFA100491C4FF43C522E
:1087D00002EBC10000F07AFC10B16FF001008EE7EF
:1087E000A100491C4FF4807202EBC100222100F06D
:1087F000A5FC17E03BE0A100491C4FF4007202EB1E
:10880000C10000F063FC00F0080058B1A100491C51
:108810004FF4007202EBC100082100F08FFC6FF0F2
:108820000C006CE7A100491C4FF4807202EBC10000
:1088300000F04CFC0028DED11CE000BFA100491C68
:10884000002202EBC10000F041FC00F00F00012803
:1088500002D06FF0040052E700BF2978A200521C3A
:108860004FF43C5303EBC20000F068FC02E06FF0F1
:10887000090044E700BF012041E72DE9F04104462B
:108880000E46154600BF082C03DD4FF0FF30BDE853
:10889000F08100BF0D2E6FD2DFE806F007121C2614
:1088A0003D48B05F7A7F848EA100A100491C002260
:1088B00002EBC10000F00AFC00F0F0002870A0E01C
:1088C000A100491C4FF4B05202EBC10000F0FEFBC6
:1088D000287096E0A100491C4FF4A85202EBC10099
:1088E00000F0F4FB28708CE0A100491C4FF490527A
:1088F00002EBC10101F5807000F0E8FB0746A10022
:10890000491C4FF4905202EBC10000F0DFFB07EB73
:108910000020287075E0A100491C4FF4406202EB72
:10892000C1000422294600F041FC6AE0A100491C74
:108930004FF4805202EBC10101F5807000F0C6FBDC
:108940000746A100491C4FF4805202EBC10000F021
:10895000BDFB07EB0020288053E000BFA100491CAD
:10896000002202EBC10000F0B1FB00F00F00012873
:1089700003D06FF004008AE740E000BFA100491C6B
:108980004FF43C5202EBC10000F0A0FB288038E01D
:10899000204600F091FC288033E0204600F0C2FC25
:1089A00028802EE0A100491C4FF4407202EBC10068
:1089B00000F08CFB287024E0A100491C002202EB8F
:1089C000C10000F083FB012804D1204600F0AAFC7E
:1089D000288003E00C4830F81400288011E0A10042
:1089E000491C002202EBC10000F070FB012801D1FC
:1089F000801F4CE70548005D287002E06FF0010021
:108A000045E700BF012042E7F401002006000020F6
:108A1000704770477047704701460878704701708B
:108A200070470020704770477047704700B141B9E8
:108A3000AFF22302F94B9A60AFF22903F74AD360F1
:108A400002E0F64A9060D160704700B141B9AFF2E0
:108A50003B02F24B1A61AFF24103F04A536102E06C
:108A6000EE4A10615161704700BFEC4A128802F46F
:108A70008072002AF9D000B141B9AFF26302E74B2E
:108A80009A61AFF26503E54AD36102E0E34A90617F
:108A9000D161704700BFE14A128802F40072002AD7
:108AA000F9D000B141B9AFF28502DC4B9A61AFF267
:108AB0008903DA4AD36102E0D84A9061D1617047F4
:108AC00000BFD64A128802F40072002AF9D000B121
:108AD00039B9AFF2AB03D14A1362AFF2B1035362BB
:108AE00002E0CE4A10625162704710B54FF4385020
:108AF00000F0ECFA00F0010008B1012400E00024CD
:108B0000204610BD10B500244FF4385000F0DEFAB6
:108B100000F0300008B1012400E00024204610BD20
:108B200010B54FF4385000F0D1FA044624F0800418
:108B300021464FF4385000F001FB4FF4385000F05C
:108B4000C5FA044644F0800421464FF4385000F042
:108B5000F5FA10BD70B5054600244FF4385000F00A
:108B6000B5FA044604F0400010B94FF0FF3070BD74
:108B700024F03804012D02D144F0300401E044F027
:108B8000380421464FF4385000F0D8FAFFF7C8FFF8
:108B90004FF4385000F09AFA0446012D04D104F045
:108BA000300030B10020E2E704F0380008B10020C6
:108BB000DDE74FF0FF30DAE770B5044600254FF4EB
:108BC000385000F083FA0546C5F38010207005F098
:108BD0003800202802D0382803D100BF012060705F
:108BE00002E00020607000BF00BF05F038001028D0
:108BF00005D0182802D0202804D100BF00BF0120D2
:108C0000A07002E00020A07000BF00BF05F0380097
:108C1000082805D0182802D0202804D100BF00BFA2
:108C20000120E07002E00020E07000BF00BF70BDD6
:108C300070B5054600242878012802D144F040048C
:108C400001E024F040046878012802D144F038049F
:108C500012E0E878012808D1A878012802D144F070
:108C6000180409E044F0080406E0A878012802D1BD
:108C700044F0100400E000BF21464FF4385000F0EB
:108C80005DFAFFF74DFF70BD70B50026002400258A
:108C90004FF4B05000F01AFA06464FF4C05000F0FE
:108CA00015FA0446254606EB052085B2284670BD18
:108CB00070B50446E5B2261229464FF4B05000F0D4
:108CC0003DFA31464FF4C05000F038FA70BD70B52F
:108CD0000026002400254FF4A85000F0F7F900F01A
:108CE000F0064FF4B85000F0F1F90446254606EBC3
:108CF000052085B2284670BD70B50446E5B226123F
:108D000005F0F0014FF4A85000F018FA31464FF486
:108D1000B85000F013FA70BD00B585B00622694660
:108D20004FF4106000F042FA042204A9900100F010
:108D30003DFA042203A94FF4A06000F037FA0422A0
:108D400002A94FF4706000F031FA8021002000F099
:108D5000F5F9002000F0BAF9062269464FF41060D8
:108D600000F068FA042204A9900100F063FA0422DA
:108D700003A94FF4A06000F05DFA042202A94FF4A9
:108D8000706000F057FA05B000BD2DE9F0410546CE
:108D90000E460027FFF7C0FFF5B100BF00240AE030
:108DA000285D384447B2102F03DD4FF0FF30BDE897
:108DB000F081601C44B2082CF2DB00240AE0295D3B
:108DC000A200521C4FF4F85303EBC20000F0B6F9B6
:108DD000601C44B2082CF2DBEEB10027002409E04D
:108DE000305D384447B2102F02DD4FF0FF30DEE730
:108DF000601C44B2082CF3DB00240AE0315DA200C1
:108E0000521C4FF4F05303EBC20000F097F9601CC2
:108E100044B2082CF2DB0020C9E70000100000205B
:108E20002DE9FC4106460C460025002000900190EB
:108E3000102E79D2DFE806F0080B1A161E22263211
:108E40003F5154585C5D616CFFF766FF6FE01CB1E9
:108E50000094009808300190DDE90001FFF795FFCC
:108E6000BDE8FC812088FFF747FF60E0FFF72FFF98
:108E700020805CE02088FFF71BFF58E0FFF704FF2D
:108E8000208054E0208801124FF4985000F056F9E9
:108E900021784FF4A05000F051F948E04FF4A05071
:108EA00000F014F907464FF4985000F00FF907EB63
:108EB000002020803BE08248807820708048C07885
:108EC00060707F480079A0707D484079E0707C48F0
:108ED000807920710020607129E0FFF721FE26E0F3
:108EE0002046FFF7A5FE22E02046FFF765FE1EE0C4
:108EF0001DE02078FFF72EFEB2E7FFF703FEC5B2B4
:108F000068B2401C10B94FF0FF30A9E725700EE0A1
:108F1000FFF7EBFDC5B268B2401C18B94FF0FF3047
:108F20009EE701E0257002E04FF0FF3098E700BFB8
:108F3000002095E770B504464FF4D85000F0C6F80D
:108F400020704FF4D05000F0C1F805464FF4C850DF
:108F500000F0BCF805EB0020608070BD10B5044641
:108F600021784FF4D85000F0E9F8608801124FF4EE
:108F7000C85000F0E3F8A1784FF4D05000F0DEF8CC
:108F800010BD10B5002000F0A1F810BD70B504466A
:108F9000002524F03A0008B1681E70BD002000F0E2
:108FA00095F8054625432946002000F0C7F8002023
:108FB000F3E710B50446062221464FF4106000F096
:108FC000F5F8042204F10E01900100F0EFF80422FC
:108FD00004F10A014FF4A06000F0E8F80422A11D9A
:108FE0004FF4706000F0E2F836480078A07435481D
:108FF0004178E17481782175C178617532480078D3
:10900000A07510BD10B50446062221464FF410602D
:1090100000F010F9042204F10E01900100F00AF9A9
:10902000042204F10A014FF4A06000F003F90422C5
:10903000A11D4FF4706000F0FDF8A07C214908707C
:10904000E07C4870207D8870607DC870A07D1E49DE
:10905000087010BD70B505460C46062D1CD2DFE821
:1090600005F003070B0F13172046FFF7CBFF16E0A1
:109070002046FFF79EFF12E02078FFF787FF70BDC4
:10908000FFF77FFF20700AE02046FFF767FF06E04A
:109090002046FFF74FFF02E04FF0FF30EFE700BF41
:1090A0000020ECE770B504464FF4385000F00EF89D
:1090B0000546C5F38000E070C5F34000A07070BDA8
:1090C00010000020380000203C00002038B5044685
:1090D000FE4988688047FD490869804700BFFB4812
:1090E000006A10B1F948406A70B9F848C169C4F320
:1090F00007408847F548C169C4F307208847E0B2B4
:10910000F24AD16988470DE0200C8DF80000200A52
:109110008DF80100E0B28DF80200EC480321426AAC
:1091200068469047E949886980470546E7494869A4
:109130008047E649C8688047284638BD38B50446A8
:109140000D46E24988688047E0490869804744F055
:109150000404DE48406A90B9DC48C169C4F30740A2
:109160008847DA48C169C4F307208847E0B2D74A84
:10917000D1698847D548C169284688470FE0200C47
:109180008DF80000200A8DF80100E0B28DF8020091
:109190008DF80350CD480421426A68469047CB4978
:1091A00048698047C949C868804738BDF8B5044652
:1091B0000E461746C54988688047C44908698047F4
:1091C00000BFC248006A10B1C048406AC0B9BF4879
:1091D000C169C4F307408847BC48C169C4F307208C
:1091E0008847E0B2B94AD1698847002505E0B74908
:1091F000886980477055681C85B2BD42F7DB12E074
:10920000200C8DF80000200A8DF80100E0B28DF8E6
:109210000200AE480321426A68469047AB4839468F
:10922000026A30469047A94948698047A749C868FB
:109230008047F8BDF8B504460E461746A34988682E
:109240008047A2490869804744F004049F48406A67
:10925000C0B99E48C169C4F3074088479B48C169AB
:10926000C4F307208847E0B2984AD16988470025AF
:1092700005E0705D954AD1698847681C85B2BD429A
:10928000F7DB12E0200C8DF80000200A8DF80100B9
:10929000E0B28DF802008D480321426A684690478B
:1092A0008A483946426A304690478849486980472B
:1092B0008649C8688047F8BD70B504460025002679
:1092C00000BFA100491C4FF4005202EBC100FFF7A0
:1092D000FDFE0646A100491C4FF4005202EBC101FD
:1092E00001F58070FFF7F2FE00EB062086B2AEB10A
:1092F000A100491C4FF4005202EBC100FFF7E6FE4B
:109300000546A100491C4FF4005202EBC10101F5D2
:109310008070FFF7DBFE00EB052085B2B542D0D1AF
:10932000284670BD70B504460025002600BFA10088
:10933000491C4FF4185202EBC100FFF7C7FE064666
:10934000A100491C4FF4185202EBC10101F58070D5
:10935000FFF7BCFE00EB062086B2AEB1A100491CAF
:109360004FF4185202EBC100FFF7B0FE0546A10012
:10937000491C4FF4185202EBC10101F58070FFF750
:10938000A5FE00EB052085B2B542D0D1284670BDC0
:109390002DE9F04704460F4616460025A8460EB9AB
:1093A000BDE8F087A100491C4FF4105202EBC10147
:1093B00001F58070FFF78AFE8146A100491C4FF439
:1093C000105202EBC100FFF781FE09EB002085B2CD
:1093D0002902A000801C01EBC008324639464046F5
:1093E000FFF728FFA81985B22912A200521C4FF4DA
:1093F000105303EBC200FFF7A1FEE9B2A200521C1A
:109400004FF4105303EBC20202F58070FFF796FE93
:1094100000BFC5E72DE9F04704460F461646002574
:10942000A8460EB9BDE8F087A100491C4FF42052B0
:1094300002EBC10101F58070FFF748FE8146A100F3
:10944000491C4FF4205202EBC100FFF73FFE09EB2D
:10945000002085B22902A000C01C01EBC0083246E2
:1094600039464046FFF7A2FEA81985B22912A2008C
:10947000521C4FF4205303EBC200FFF75FFEE9B22A
:10948000A200521C4FF4205303EBC20202F580707D
:10949000FFF754FE00BFC5E72DE9F04104460E4634
:1094A0000025A100491C4FF4205202EBC10101F537
:1094B0008070FFF70BFE0746A100491C4FF42052B5
:1094C00002EBC100FFF702FE02E0000010000020E6
:1094D00007EB002085B2A81985B22912A200521C00
:1094E0004FF4205303EBC200FFF728FEE9B2A200BD
:1094F000521C4FF4205303EBC20202F58070FFF7B9
:109500001DFEBDE8F081000010B50422F9494FF4BA
:109510007060FFF78FFE0422F7494FF4A060FFF759
:1095200089FE0422F5499001FFF784FE10BD10B5B5
:1095300080210020FFF702FE0020FFF7C7FDFFF7A4
:10954000E3FF0622EE494FF41060FFF773FE10BDF3
:1095500010B580210020FFF7F1FD0020FFF7B6FDD8
:109560000622E7494FF41060FFF764FE10BD10B506
:10957000AFF26B03E34C2360AFF24D03E24C236088
:10958000AFF23303E14C236008B1DE4B186009B140
:10959000DD4B19600AB1DD4B1A6010BD7CB50622A7
:1095A00069464FF41060FFF701FE0120D8490968B1
:1095B0000870D749096848700620D549096888703D
:1095C0000020D3490968C870D1480068051DD148FA
:1095D0000068000E2870CF480068000C6870CD4805
:1095E0000088000AA870CB480078E8700020C849BD
:1095F00009680881C648006800F10A0580202870C3
:1096000000206870C249096808730021C0480068DA
:109610004173BF4800688173BD480068C173002072
:10962000BB49096808740021B94800684174B8480A
:1096300000688174B6480068C1740020B4490968A4
:1096400008750021B24800684175B148006881750D
:10965000AF480068C1750020AD490968087600214F
:10966000AB4800684176AA4800688176A84800683F
:10967000C176A3480078A64909680877A0484178D0
:10968000A348006841779E488178A14800688177A7
:109690009B48C1789E480068C177994801799C48E9
:1096A000006880F82010964841799948006880F851
:1096B0002110062406E00021954800681C30015561
:1096C000601CC4B2102CF6DB002406E00021904898
:1096D00000682C300155601CC4B2402CF6DB00241D
:1096E00006E000218A4800686C300155601CC4B255
:1096F000802CF6DB63208649096881F8EC00822122
:109700008348006880F8ED1053218148006880F894
:10971000EE1063217E48006880F8EF107CBD7CB5B8
:109720000024FFF73BFF042435222146641C7848BF
:109730000068EC30425401222146641C74480068E1
:10974000EC3042542146641C71480068EC304254AD
:109750003D222146641C6E480068EC3042540722CA
:109760002146641C6A480068EC30425401222146BC
:10977000641C67480068EC30425461480278214616
:10978000641C63480068EC3042545D4842782146CE
:10979000641C5F480068EC30425459488278214686
:1097A000641C5B480068EC3042545548C27821463E
:1097B000641C57480068EC304254514802792146F5
:1097C000641C53480068EC3042544D4842792146AD
:1097D000641C4F480068EC3042540C222146641C43
:1097E0004B480068EC30425400222046611C8CB289
:1097F00047490968EC310A5400250AE04648425DB1
:109800002046611C8CB242490968EC310A54681C3C
:1098100085B24148405D0028F0D13948C2782046E1
:10982000611C8CB23A490968EC310A543448027917
:109830002046611C8CB236490968EC310A54304824
:1098400042792046611C8CB231490968EC310A54D6
:10985000E81CC1B2281D221A2D480068EC30815442
:1098600037222046611C8CB229490968EC310A5420
:1098700006222046611C8CB225490968EC310A5445
:1098800001222046611C8CB221490968EC310A543E
:1098900003222046611C8CB21D490968EC310A5430
:1098A00006222046611C8CB219490968EC310A5421
:1098B0000F222046611C8CB215490968EC310A540C
:1098C0003A222046611C8CB211490968EC310A54D5
:1098D0003B222046611C8CB20D490968EC310A54C8
:1098E000FF222046611C8CB209490968EC310A54F8
:1098F00025461AE049000020510000204D000020BC
:1099000078000020800000208400002088000020D3
:109910006C00002068000020700000200021FE483C
:109920000068EC304155681C85B2B5F59C7FF5DBCD
:10993000FF208DF804008DF805008DF806008DF8E5
:109940000700432001AB4FF409720090F248016810
:10995000F2480078FEF7FDFB7CBD7CB50024FFF7E4
:109960001DFEEF480078032803D0ED480078042856
:109970002CD10020E849096888720021E648006877
:10998000C172E8480078E44909680873E5484178FD
:10999000E14800684173E3488178DF4800688173DB
:1099A000E048C178DC480068C173DF4800788DF872
:1099B0000400DD4840788DF80500DB4880788DF89C
:1099C0000600D948C0788DF8070008E0FF208DF820
:1099D00004008DF805008DF806008DF807000424BA
:1099E00035222146641CCC480068EC3042540122E8
:1099F0002146641CC8480068EC30425403222146CA
:109A0000641CC5480068EC3042543D222146641C69
:109A1000C1480068EC30425407222146641CBE480D
:109A20000068EC30425401222146641CBA480068A8
:109A3000EC304254BD4802782146641CB6480068A8
:109A4000EC304254B94842782146641CB248006860
:109A5000EC304254B54882782146641CAE48006818
:109A6000EC304254B148C2782146641CAA480068D0
:109A7000EC304254AD4802792146641CA648006887
:109A8000EC304254A94842792146641CA24800683F
:109A9000EC3042549DF80700FF2867D1322220465F
:109AA000611C8CB29C490968EC310A54042220469E
:109AB000611C8CB298490968EC310A5499480278C3
:109AC0002046611C8CB294490968EC310A549548CF
:109AD00042782046611C8CB28F490968EC310A54E7
:109AE000904882782046611C8CB28B490968EC3121
:109AF0000A548C48C2782046611C8CB28649096899
:109B0000EC310A5436222046611C8CB28249096825
:109B1000EC310A5404222046611C8CB27E4909684B
:109B2000EC310A54804802782046611C8CB27A4994
:109B30000968EC310A547C4842782046611C8CB29A
:109B400075490968EC310A54774882782046611CCF
:109B50008CB271490968EC310A547348C2782046C6
:109B6000611C8CB26C490968EC310A540C22204605
:109B7000611C8CB268490968EC310A540022204605
:109B8000611C8CB264490968EC310A54002509E073
:109B90006748425D2046611C8CB25F490968EC3120
:109BA0000A546D1C6248405D0028F1D15F48C278BC
:109BB0002046611C8CB258490968EC310A545B4854
:109BC00002792046611C8CB253490968EC310A5471
:109BD000564842792046611C8CB24F490968EC31E5
:109BE0000A54E81CC1B2281D221A4B480068EC3008
:109BF000815437222046611C8CB247490968EC31F8
:109C00000A5408222046611C8CB243490968EC3191
:109C10000A5401222046611C8CB23F490968EC318C
:109C20000A5403222046611C8CB23B490968EC317E
:109C30000A5406222046611C8CB237490968EC316F
:109C40000A540F222046611C8CB233490968EC315A
:109C50000A543A222046611C8CB22F490968EC3123
:109C60000A543B222046611C8CB22B490968EC3116
:109C70000A541F222046611C8CB227490968EC3126
:109C80000A5421222046611C8CB223490968EC3118
:109C90000A54FF222046611C8CB21F490968EC312E
:109CA0000A54254605E000211B480068EC30415568
:109CB0006D1CB5F59C7FF6DB432001AB4FF40972B8
:109CC00000901548016815480078FEF742FA7CBDFF
:109CD0007CB50024FFF762FC042400200E490968CB
:109CE000887200210C480068C17235222146641C2C
:109CF00009480068EC30425401222146641C0648A1
:109D00000068EC30425404222146641C024800687A
:109D1000EC3042543D220DE06C0000204000002059
:109D20005900002049000020410000207800002058
:109D3000700000202146641CF7480068EC30425453
:109D400007222146641CF4480068EC30425401228A
:109D50002146641CF0480068EC304254EF48027819
:109D60002146641CEC480068EC304254EB484278D1
:109D70002146641CE8480068EC304254E748827889
:109D80002146641CE4480068EC304254E348C27841
:109D90002146641CE0480068EC304254DF480279F8
:109DA0002146641CDC480068EC304254DB484279B0
:109DB0002146641CD8480068EC30425432222146C7
:109DC000641CD5480068EC30425404222046611CD3
:109DD0008CB2D1490968EC310A54D1480278204646
:109DE000611C8CB2CC490968EC310A54CC484278E9
:109DF0002046611C8CB2C8490968EC310A54C84835
:109E000082782046611C8CB2C3490968EC310A543F
:109E1000C348C2782046611C8CB2BF490968EC3146
:109E20000A5436222046611C8CB2BB490968EC31C9
:109E30000A5404222046611C8CB2B7490968EC31EF
:109E40000A54B84802782046611C8CB2B2490968AD
:109E5000EC310A54B34842782046611C8CB2AE49BA
:109E60000968EC310A54AF4882782046611C8CB2F4
:109E7000A9490968EC310A54AA48C2782046611CF5
:109E80008CB2A5490968EC310A54FF222046611CB6
:109E90008CB2A1490968EC310A54254605E000213D
:109EA0009D480068EC3041556D1CB5F59C7FF6DB94
:109EB000FF208DF804008DF805008DF806008DF860
:109EC0000700432001AB4FF40972009092480168EB
:109ED00095480078FEF73DF97CBD2DE9FF41924899
:109EE0000078FFF71FFA071E0BDD01A802AB3A4608
:109EF0000090894801688C480078FEF72EFA87B2F6
:109F000003E0002004B0BDE8F081BDF80400432860
:109F100074D181480068007F80490978884224D143
:109F20007D480068407F7D49497888421DD17A4844
:109F30000068807F79498978884216D17648006820
:109F4000C07F7649C97888420FD17348006890F87D
:109F5000200072490979884207D16F48006890F85B
:109F600021006E494979884201D00020CAE74FF0AC
:109F7000000869480468F034A7F1F000051989E089
:109F8000207833284ED007DC70B1012813D0032885
:109F900021D0062878D132E0352807D0362861D084
:109FA000FF2871D12C4674E0641C72E0641C641CB0
:109FB00014F8018B6DE0641C641C14F8010B5B4900
:109FC000087014F8010B487014F8010B887014F82D
:109FD000010BC8705DE0641C14F8016B14F8010BF0
:109FE0005349087014F8010B487014F8010B88707D
:109FF00014F8010BC870301F04444AE04DE0641CA3
:10A0000014F8016B14F8010B4A49087014F8010B9D
:10A01000487014F8010B887014F8010BC870301FD9
:10A02000044436E0641C14F8016B14F8010B424937
:10A03000086014F8011B4048006801EB00203E490D
:10A04000086014F8011B3C48006801EB00203A4905
:10A05000086014F8011B3848006801EB00203649FD
:10A06000086016E0641C14F8016B14F8010B2D490C
:10A07000087014F8010B487014F8010B887014F87C
:10A08000010BC87005E0FFE7641C14F8016B344451
:10A0900000BF00BFAC42FFF473AF4FFA88F031E766
:10A0A0000020264908600A2025490860002025492B
:10A0B0000870704710B50124224890F9000002286A
:10A0C00044DA1F4800681D490968884258D21E4872
:10A0D00090F90000012804D0022805D0042809D1F5
:10A0E00005E0FFF71CFB06E0FFF737FC03E0FFF796
:10A0F00034FC00E000BF00BF0020104908600846A3
:10A1000000680A300E4908600E480078401C40B2D2
:10A110000C49087034E000006C000020780000203A
:10A120004900002041000020400000205100002094
:10A130004D000020550000205C0000206000002041
:10A14000640000205A00002059000020D64890F9F1
:10A150000000012804D0022807D004280CD105E013
:10A160000020D1490870002407E000BFFFF7D7FAAC
:10A170000120CD49087000E000BF00BFFFF790FF4D
:10A18000204610BD38B54FF4D850FEF79FFF054666
:10A1900003214FF4D850FEF7D1FF41F28830C34B72
:10A1A0001122C3A10090C7480078FDF7D2FF0446F2
:10A1B00029464FF4D850FEF7C1FF04F10D0008B94D
:10A1C000012038BDFFF784FDBF48046800BFBE48CA
:10A1D0000068001B0228FAD30020F2E770B5B248ED
:10A1E0000078062801D1052070BDB649097889009C
:10A1F000491C4FF4407202EBC100FEF767FF2228B2
:10A2000006D0002344220221AE480078FDF73DFC31
:10A210000125FFF762FEC4B2A34890F900000528AB
:10A2200077D2DFE800F0030F2C4F770000209F4922
:10A23000087048708870C870FFF771FA01209A4959
:10A2400008709CE0022C16D1A0480068007C974959
:10A2500008709E480068407C48709C480068807C7C
:10A2600088709A480068C07CC870FFF776FB0220AF
:10A270008D49087002E0FFF71DFF05467FE0052CC1
:10A2800014D1FFF77FFF40B1914800688047FFF786
:10A2900007FF03208449087013E0FFF701FF8D4892
:10A2A000006880470020804908700AE0062C05D12C
:10A2B000FFF7F6FE01207C49087002E0FFF7FAFE86
:10A2C00005465CE0042584480068401C00B37E48D5
:10A2D000006881490968B0EB510F19D9002473480F
:10A2E00000787E4908707148407848706F488078DF
:10A2F00088706E48C078C87079480068401C7849FA
:10A300000860FFF72AFBFFF7CBFE042066490870C0
:10A3100035E033E00425052C24D100207149087074
:10A320006E48007861490978884211D16B484078BD
:10A330005E49497888420BD1684880785B498978C2
:10A34000884205D16548C0785849C978884203D009
:10A350000325654800688047FFF7A2FE03205249A5
:10A3600008700AE0062C05D1FFF79AFE01204E493D
:10A37000087002E0FFF79EFE054600E000BF00BF48
:10A38000284631E710B54F480078FDF737FB062027
:10A390004549087010BD38B504460D4600200090B0
:10A3A000062252494FF41060FEF700FF4F48007834
:10A3B0004E49497808434D49897808434B49C97843
:10A3C00008434A490979084348494979084378B913
:10A3D00000204649087008204870DC208870002062
:10A3E000C8700871487106224FF41060FEF722FF12
:10A3F00034480470354805603D48394908600422F6
:10A4000069464FF47060FEF715FF042269464FF469
:10A410007060FEF70FFF042269469001FEF70AFF05
:10A42000FFF73EFE00202049087038BD264800682E
:10A43000401C2549086070471C49097801701B4978
:10A44000497841701949897881701849C978C17073
:10A450007047284909780170264949784170254993
:10A46000897881702349C978C17070472249097879
:10A4700001702149497841701F49897881701E49CE
:10A48000C978C17070471D49097801701B49497826
:10A4900041701A49897881701849C978C17070472C
:10A4A0000D48006870470000590000204900002056
:10A4B000434845434B5F49505F434F4E464C4943E9
:10A4C0005400000040000020600000206C000020CC
:10A4D00080000020880000205C0000204500002053
:10A4E000680000205A00002084000020780000202E
:10A4F000785634124D0000205100002055000020F5
:10A5000010B500203B49087000220421102000F003
:10A5100099FE394908600846006808B1012010BD5D
:10A520000020FCE708B53448006880B105E001224E
:10A5300069463148006801F079F82F48006801F059
:10A540007EFA0028F3D12C48006801F092FA08BD89
:10A5500038B5044627480470009000231A4669461F
:10A560002548006800F016FF012038BD2DE9F84F9E
:10A5700082460C46914601F0A8FF8346B9F1000FD0
:10A5800009D100BF64226946504601F04FF80546E4
:10A59000012DF7D105E04A466946504601F046F8DC
:10A5A0000546012D09D10CB10098206001F08DFF06
:10A5B0000746A7EB0B08464604E00CB100202060DC
:10A5C0004FF0FF363046BDE8F88FF8B50446002559
:10A5D0006A1E694608480068FFF7C8FF0646701CF7
:10A5E00030B10098007820700020024908700125E1
:10A5F0002846F8BD900000208C0000200146012074
:10A60000704710B5FFF78EFF10BD704770B5044658
:10A610000D462946204604F08DF9012070BD70B525
:10A6200004460D462A4621460120FDF74AFC01203A
:10A6300070BD000003460020704710B5044600209E
:10A6400010BD10B50446002010BD03460020704721
:10A650002DE9F04104460D462078652806D066288D
:10A660001ED0672848D0682871D169E0288807285B
:10A6700015D1A1784FF47F4202EA0121627841EAC4
:10A6800002004FF6F071884204D101216170324A14
:10A69000117001E0002161700221298000BF56E0A5
:10A6A0002D48007800B952E0A0784FF47F4101EACC
:10A6B0000020617840EA010720794FF47F4101EAE8
:10A6C0000020E17840EA01062988701D81420DD101
:10A6D00022480078012809D102F008FB3246611DAA
:10A6E000384604F0D0FA02F010FB02E00020E070DF
:10A6F0002071052028802AE02888022802D0288896
:10A7000005281CD16078012809D1A01C04F0B4FAF6
:10A71000A8B1062028800120104908700FE0607859
:10A7200002280CD104F0ABFA00200B4908700B4949
:10A7300008700120A07004F0BAF90320288006E018
:10A740004FF47A7001F082FC04F070FA00BF00BF91
:10A750000020BDE8F0810000910000209200002060
:10A760002DE9F04705460C4690469946089F00267D
:10A770001CB1012C01DBF72C01DD022610E09F4803
:10A78000047000BF022600BF00BF4EB9FFF7B8FE3D
:10A7900008B9032604E09A48057001209949087019
:10A7A0003046BDE8F08770B504460025204600F02D
:10A7B00049F9050003D00120924908701CE0FFF719
:10A7C0009FFE08B9032517E08F489049086090481C
:10A7D0009049086090489149086091489149086003
:10A7E000002091490860FF208449087002208449B4
:10A7F0000870012083490870284670BD2DE9F0419A
:10A8000005460E46002D3ADD7F2D38DC02F06EFA4B
:10A81000F6B1002412E0854800EBC400406828B17E
:10A82000824800EBC4004068B04206D17F4800F87F
:10A83000345000EBC400466002E0641C102CEADBDC
:10A8400000BF102C01D0002000E00420074613E0D8
:10A8500000240DE0754810F83400A84207D100200C
:10A86000724901F8340001EBC401486002E0641C45
:10A87000102CEFDB00BF002702F047FA00E00227B0
:10A880003846BDE8F08110B500245E480078012804
:10A8900006D16548006820B163480068804700E041
:10A8A0000624204610BD10B5002456480078012823
:10A8B00006D156480068804700205249087000E0E1
:10A8C0000624204610BD10B54E48007838B95148CE
:10A8D0000068804701204B490870002406E0494881
:10A8E0000078012801D1002400E00624204610BD94
:10A8F00038B500254348007808B1062038BD6846C1
:10A90000FFF763FE012877D19DF8000030B10128E0
:10A9100005D0022818D003286DD16BE06BE0444AC3
:10A92000444945483D4B1B68984705465DB9424838
:10A93000007832490978884202D03F48007810B93F
:10A940000220FFF705FE56E03A48006800783B49D0
:10A95000087001203A490870002417E0334810F8C5
:10A96000340000B914E0314810F834003349097854
:10A9700088420AD12D4800EBC4002D4942682D4879
:10A98000006890472E49087002E0641C102CE5DB3B
:10A9900000BF2948007858B329480078C8B1002082
:10A9A000234908802548007840F08001204802882B
:10A9B0000088401C1E4B18801E48006881542048A7
:10A9C0000278184601880088401C188019480068E1
:10A9D00042540B480078012800D100BF1448028877
:10A9E00014480168054800780E4B1B6898470546D7
:10A9F00001E001E000BF00BF00207FE794000020DD
:10AA0000950000209600002059AA00089C00002014
:10AA10005BAA0008A000002063AA0008A400002090
:10AA2000ABAA000898000020A8000020C000002069
:10AA30004601002040010020440100204501002083
:10AA40004801002070B5044600252046FFF7D6FDDA
:10AA500000B90325284670BD704710B5FFF7D5FD36
:10AA600010BD2DE9FC4104460D4616464FF0050881
:10AA7000694601A8FFF7CAFD90B1019880780702E6
:10AA80000198C07807436FB90198C01D2860BDF8D0
:10AA90000000C01F30804FF00008FF20207001E050
:10AAA0004FF005084046BDE8FC812DE9F04781469E
:10AAB0000E4614460027F51FE01D1FFA80F8601CA3
:10AAC000000A2871601C687141462846FFF7A7FDFF
:10AAD00000B905273846BDE8F0872DE9F05F064646
:10AAE0000D464FF0000B2888052848D170784FEAB2
:10AAF0000029B07840EA090909F101001FFA80F93C
:10AB0000F078040230790443012C35DBB4F5FA6F98
:10AB100032DA374600202880012007F8010B288808
:10AB2000401C288004F0070040B12046E11704EBE8
:10AB30005171C910491C01F0FF0805E02046E117DA
:10AB400004EB5171C1F3C70807F8018B2888401C3A
:10AB500028800023224649463846FFF772FD824688
:10AB6000BAF1000F04D0504600F0C1FA834608E065
:10AB700028884044288004E04FF0030B01E04FF0A8
:10AB8000030B5846BDE8F09F2DE9F84304460F46F5
:10AB90004FF000083888052829D160780502A07890
:10ABA0000543681C85B22079F0B9E078FF2801D010
:10ABB000E078C8B900208DF80100E078FF2803D1C3
:10ABC00001208DF8000002E000208DF80000012334
:10ABD0001A4629466846FFF734FD06464EB1304610
:10ABE00000F085FA804604E04FF0030801E04FF0E2
:10ABF00003084046BDE8F8832DE9F05F05460E46A0
:10AC00004FF0000B3088052839DD68780702A878F6
:10AC10000743781C87B2E87804022879044395F842
:10AC200005A004F0070040B12046E11704EB517184
:10AC3000C910491C01F0FF0805E02046E11704EBAC
:10AC40005171C1F3C708012C16DBB4F5F66F13DCA4
:10AC5000D04511D1012322463946A81DFFF7F1FC4A
:10AC60008146B9F1000F04D0484600F040FA83460F
:10AC700007E00520308004E04FF0030B01E04FF0C7
:10AC8000030B5846BDE8F09F2DE9F05F06460D46E0
:10AC90004FF0000B2888052847D170784FEA00292B
:10ACA000B07840EA090909F101001FFA80F9F0784B
:10ACB000040230790443012C34DBB4F5FA6F31DA45
:10ACC000374600202880022007F8010B2888401C06
:10ACD000288004F0070040B12046E11704EB5171D1
:10ACE000C910491C01F0FF0805E02046E11704EBFC
:10ACF0005171C1F3C70807F8018B2888401C2880D0
:10AD0000224649463846FFF7A0FC8246BAF1000FBA
:10AD100004D0504600F0EBF9834608E02888404410
:10AD2000288004E04FF0030B01E04FF0030B58467E
:10AD3000BDE8F09F2DE9F04104460F464FF00008B2
:10AD40003888052812D160780502A0780543681C70
:10AD500085B201231A462946E01CFFF76EFC064621
:10AD600036B1304600F0C3F9804601E04FF00308E9
:10AD70004046BDE8F0812DE9F04704460E464FF00D
:10AD8000000A3088062828DB60780702A07807438D
:10AD9000781C87B2E07805022079054394F8059085
:10ADA000012D17DB782D15DC6806000E484511D102
:10ADB00001232A463946A01DFFF73FFC8046B8F123
:10ADC000000F04D0404600F092F9824607E00520CB
:10ADD000308004E04FF0030A01E04FF0030A5046D0
:10ADE000BDE8F0872DE9F04705460C464FF0000A14
:10ADF0002088052837D168784FEA0028A87840EAEB
:10AE0000080808F101001FFA80F8E87806022E7998
:10AE1000012E25DB7D2E23DC2F4600202080032001
:10AE200007F8010B2088401C20807006000E07F8F0
:10AE3000010B2088401C20800023324641463846C2
:10AE4000FFF7FBFB8146B9F1000F04D0484600F044
:10AE50004EF9824609E0208800EB4600208004E09D
:10AE60004FF0030A01E04FF0030A5046BDE8F087B7
:10AE70002DE9FC5F04460D460020009028880A2832
:10AE80005DDB60784FEA002AA07840EA0A0A0AF1FE
:10AE900001001FFA80FAE078060220790643607903
:10AEA0004FEA002BA07940EA0B0B0BF101001FFACF
:10AEB00080FBE0790702207A0743607A0190012E37
:10AEC0003BDB7D2E39DC012F37DB792F35DC790038
:10AED0000198814231D101233A46594604F10A00D2
:10AEE000FFF7ABFB8146B9F1000F1ED1A046002051
:10AEF0002880172008F8010B2888401C288070063D
:10AF0000000E08F8010B2888401C288000233246D8
:10AF100051464046FFF791FB8146B9F1000F04D13D
:10AF20002888022101FB06002880B9F1000F06D015
:10AF3000484600F0DCF8009001E003200090009803
:10AF4000BDE8FC9F2DE9F04705460C464FF0000A8E
:10AF50002088052837D168784FEA0028A87840EA89
:10AF6000080808F101001FFA80F8E878060228793D
:10AF70000643012E24DB7D2E22DA2F46002020807E
:10AF8000042007F8010B2088401C20807006000E6A
:10AF900007F8010B2088401C208032464146384685
:10AFA000FFF748FB8146B9F1000F04D0484600F096
:10AFB0009EF8824609E0208800EB4600208004E0ED
:10AFC0004FF0030A01E04FF0030A5046BDE8F08756
:10AFD0002DE9F04105460E4617461C464FF0000885
:10AFE000A01C202826DA00201C4908800846018879
:10AFF0000088401C194A1080194845540EB1FF22A0
:10B0000000E00022154801880088401C134B18807E
:10B0100013484254002C0FDD01461A461288881846
:10B020002246394603F066FE0C48008820440B494E
:10B03000088001E04FF004084046BDE8F08170B59B
:10B0400005460C46054802880549681C03F052FE77
:10B0500002480088401C2080002070BD4A0100206A
:10B06000040200202DE9F043044615461F46C80897
:10B07000A1EBC0081FFA88FC07FA0CF81FFA88F742
:10B080004FF0010808FA05F8A8F101081FFA88F640
:10B09000A1EBC00806FA08F81FFA88F6225C00F156
:10B0A000010814F8088042EA082222EA060848EA61
:10B0B000070222544FEA222900F1010804F80890FF
:10B0C000BDE8F083F0B503460C461546E208A4EB54
:10B0D000C20087B20120A840401E86B2995C501C75
:10B0E000185C41EA002139413140C8B2F0BD014647
:10B0F00021B1012904D0072906D103E0002005E091
:10B10000022003E0062001E0042000BF00BF7047DA
:10B1100000F1080141604FF0FF31816000F108014A
:10B12000C160016100210160704700210161704729
:10B1300042684A6093688B609368596091600861C7
:10B1400003685B1C0360704710B502460B685C1C0B
:10B150000CB9106907E002F1080000E0406844689B
:10B1600024689C42FAD944684C604C68A1608860AD
:10B1700041600A611468641C146010BD01460A69CC
:10B18000D1E901309860D1E90103586050688842E4
:10B1900001D188685060002008611068401E10606E
:10B1A0001068704770B505460E462C4601F09EFDAE
:10B1B000D4E90F12206801FB020060600020A06348
:10B1C0002068A060E06B401E226C216800FB02102A
:10B1D000E060FF2084F8440084F845009EB92069AF
:10B1E00008B9012000E00020A8B904F1100001F026
:10B1F000A2F980B14FF08050FA490860BFF34F8F39
:10B20000BFF36F8F07E004F11000FFF781FF04F137
:10B210002400FFF77DFF01F078FD012070BD2DE9CE
:10B22000F04106460D4617469846069C0DB9246027
:10B2300000E02760E663256401212046FFF7B2FFA6
:10B24000BDE8F0812DE9F84307460D4690460DB95B
:10B25000002601E007FB05F606F1480001F099FD24
:10B26000044644B104F1480943464A462946384653
:10B270000094FFF7D4FF2046BDE8F88370B504467C
:10B2800001F034FD94F9455010E0606A08B90120DE
:10B2900000E0002038B904F1240001F04CF918B1A5
:10B2A00001F0E4F900E003E0681E45B2002DECDC9B
:10B2B00000BFFF2084F8450001F027FD01F016FDD6
:10B2C00094F9445010E0206908B9012000E0002002
:10B2D00048B904F1100001F02EF908B101F0C6F9E7
:10B2E000681E45B200E001E0002DECDC00BFFF204D
:10B2F00084F8440001F009FD70BD70B5054601F009
:10B30000F5FCA86BE96B884201D1012400E0002420
:10B3100001F0FBFC204670BD2DE9F04104460F46CC
:10B3200015464FF00008A66B206C40B9206860BB42
:10B33000606801F026FA80460020606025E07DB953
:10B340003946226CA06803F0D5FC216CA068084443
:10B35000A060D4E90110884217D32068A06014E0EF
:10B360003946226CE06803F0C5FC216CE068401AA5
:10B37000E0602168E068884203D2216C6068401A6E
:10B38000E060022D01D106B1761E701CA06340461C
:10B39000BDE8F0812DE9FF4383B0074688461D468E
:10B3A0004FF000093C4600BF01F0A0FCA06BE16B30
:10B3B000884201D3022D28D12A4641462046FFF774
:10B3C000ABFF0646606A08B9012000E0002068B9BA
:10B3D00004F1240001F0AFF888B14FF080508149AA
:10B3E0000860BFF34F8FBFF36F8F08E03EB14FF09F
:10B3F00080507C490860BFF34F8FBFF36F8F01F01F
:10B4000084FC012007B0BDE8F083059818B901F06D
:10B410007CFC0020F6E7B9F1000F04D101A801F08F
:10B42000F4F84FF0010901F070FC00F0D4FD01F0D8
:10B430005DFC94F94400401C10B9002084F84400DD
:10B4400094F94500401C10B9002084F8450001F033
:10B450005CFC05A901A801F0DFF8F0B92046FFF770
:10B460004CFFA0B104F11000059901F042F820460C
:10B47000FFF704FF00F0E4FC002895D14FF0805066
:10B4800058490860BFF34F8FBFF36F8F8CE720469A
:10B49000FFF7F4FE00F0D4FC86E72046FFF7EEFE4F
:10B4A00000F0CEFC0020ADE710B504464CB1002002
:10B4B00060602060E06000231A4619462046FFF7CE
:10B4C00069FF10BD2DE9F041044601260027224600
:10B4D00000210120FFF7B6FE05462846FFF7E4FFEE
:10B4E0002846BDE8F0812DE9F05F05468A461646FC
:10B4F0001F462C4600BFBF21EFF3118081F3118856
:10B50000BFF34F8FBFF36F8F00BF8146A06BE16B1E
:10B51000884201D3022F20D194F945B03A465146D2
:10B520002046FFF7F9FE0BF1010070B9606A08B917
:10B53000012000E0002068B904F1240000F0FBFFC6
:10B5400040B13EB10120306004E00BF1010040B297
:10B5500084F845004FF0010801E04FF0000800BFFB
:10B5600089F3118800BF4046BDE8F09F2DE9F04700
:10B5700005460E462C4600BFBF21EFF3118081F334
:10B580001188BFF34F8FBFF36F8F00BF8046D4F891
:10B590003890E06B48451DD994F945A009F10100A8
:10B5A000A0630AF1010070B9606A08B9012000E0E7
:10B5B000002068B904F1240000F0BDFF40B13EB1A5
:10B5C0000120306004E00AF1010040B284F8450037
:10B5D000012700E0002700BF88F3118800BF38462C
:10B5E000BDE8F08704ED00E070B5054601F07EFB94
:10B5F000A86B08B9012400E0002401F086FB204676
:10B6000070BD70B504460D46206C70B1216CE068C9
:10B610000844E0606168E068884201D32068E06027
:10B620002846226CE16803F065FB70BD2DE9F74107
:10B6300083B005460F464FF000082C4600BF01F0CE
:10B6400055FBA66BF6B139462046FFF7DAFF701EB0
:10B65000A063206908B9012000E0002060B904F16E
:10B66000100000F068FF38B14FF08050F8490860D2
:10B67000BFF34F8FBFF36F8F01F047FB012006B080
:10B68000BDE8F081059818B901F03FFB0020F6E70E
:10B69000B8F1000F04D101A800F0B7FF4FF0010886
:10B6A00001F033FB00F097FC01F020FB94F944001B
:10B6B000401C10B9002084F8440094F94500401C57
:10B6C00010B9002084F8450001F01FFB05A901A86E
:10B6D00000F0A2FFF0B92046FFF786FFA0B104F109
:10B6E0002400059900F005FF2046FFF7C7FD00F094
:10B6F000A7FB0028A3D14FF08050D5490860BFF3C5
:10B700004F8FBFF36F8F9AE72046FFF7B7FD00F02A
:10B7100097FB94E72046FFF7B1FD00F091FB204630
:10B72000FFF762FF00288AD00020A8E701464A6A96
:10B7300022B10A6B1268C2F1050000E000207047D8
:10B740002DE9F34182B0054600272C46B84600BFDC
:10B7500001F0CCFAA66BFEB1701EA063206810B990
:10B7600001F0ABF86060206908B9012000E000201A
:10B7700060B904F1100000F0DEFE38B14FF08050E7
:10B78000B3490860BFF34F8FBFF36F8F01F0BDFA6D
:10B79000012004B0BDE8F081039818B901F0B5FAB2
:10B7A0000020F6E71FB9684600F02FFF012701F0DF
:10B7B000ACFA00F010FC01F099FA94F94400401C36
:10B7C00010B9002084F8440094F94500401C10B9D9
:10B7D000002084F8450001F098FA03A9684600F0BB
:10B7E0001BFF40BB2046FFF7FFFEF0B1206838B9D1
:10B7F00001F07CFA606800F040FF804601F085FAB5
:10B8000004F12400039900F074FE2046FFF736FD92
:10B8100000F016FB00289BD14FF080508C49086047
:10B82000BFF34F8FBFF36F8F92E72046FFF726FDE0
:10B8300000F006FB8CE72046FFF720FD00F000FB40
:10B840002046FFF7D1FE002882D0B8F1000F0BD0C0
:10B8500001F04CFA2046FFF769FF06463146606862
:10B8600000F0CCFF01F051FA002092E72DE9F743F8
:10B8700082B005460F464FF000082C4600BF01F08D
:10B8800035FAD4F83890B9F1000F1ED0E668394681
:10B890002046FFF7B6FEE660606A08B9012000E0C6
:10B8A000002060B904F1240000F045FE38B14FF0EB
:10B8B000805067490860BFF34F8FBFF36F8F01F06F
:10B8C00024FA012005B0BDE8F083049818B901F00E
:10B8D0001CFA0020F6E7B8F1000F04D1684600F02A
:10B8E00094FE4FF0010801F010FA00F074FB01F033
:10B8F000FDF994F94400401C10B9002084F844007C
:10B9000094F94500401C10B9002084F8450001F06E
:10B91000FCF904A9684600F07FFEF0B92046FFF765
:10B9200063FEA0B104F12400049900F0E2FD20467A
:10B93000FFF7A4FC00F084FA0028A0D14FF080505B
:10B9400043490860BFF34F8FBFF36F8F97E72046DF
:10B95000FFF794FC00F074FA91E72046FFF78EFCA5
:10B9600000F06EFA2046FFF73FFE002887D0002047
:10B97000A8E72DE9F05F05468A4616462C4600BF2B
:10B98000BF21EFF3118081F31188BFF34F8FBFF315
:10B990006F8F00BF8046D4F83890B9F1000F21D0E6
:10B9A00094F944B051462046FFF72BFEA9F101005F
:10B9B000A0630BF1010070B9206908B9012000E013
:10B9C000002068B904F1100000F0B5FD40B13EB1AF
:10B9D0000120306004E00BF1010040B284F8440023
:10B9E000012700E0002700BF88F3118800BF384618
:10B9F000BDE8F09F2DE9F047054689462C4600BF7B
:10BA0000BF21EFF3118081F31188BFF34F8FBFF394
:10BA10006F8F00BF0746A06B48B1D4F80C80494631
:10BA20002046FFF7EEFDC4F80C80012600E000265A
:10BA300000BF87F3118800BF3046BDE8F08770B5BE
:10BA4000044601F053F9A56B01F05FF9284670BD7B
:10BA500004ED00E070B50446254601F047F9D5E94C
:10BA60000E10461A01F051F9304670BD0146886B40
:10BA7000704770B504462546284601F0DDF970BDD3
:10BA800001468A6B0AB9012000E000207047014698
:10BA90008A6BCB6B9A4201D1012000E000207047F5
:10BAA00010B5002407E004EB8401FE4A02EB81009C
:10BAB000FFF72EFB641C052CF5D3FB48FFF728FB92
:10BAC000FA48FFF725FBFA48FFF722FBF948FFF792
:10BAD0001FFBF948FFF71CFBF348F8490860F348DF
:10BAE000F749086010BD10B5044601F0FFF8F548AD
:10BAF0000068401CF3490860F348006840B9F24808
:10BB000004600846006801280DD1FFF7C9FF0AE06C
:10BB1000EE48006838B9EC480068C06AE16A8842BB
:10BB200001D8E9480460EA480068401CE849086018
:10BB300094F82C1001208840E64909680843E5493B
:10BB40000860E16A01EB8101D64A02EB8100211D08
:10BB5000FFF7EEFA01F0D9F8DC48006868B1DA487E
:10BB60000068C06AE16A884207D24FF08050DA4923
:10BB70000860BFF34F8FBFF36F8F10BD2DE9FF5FDC
:10BB800080460F469146DDE90E6A109CA9F101003E
:10BB9000216B01EB800B2BF0070B002507E0795D93
:10BBA00004F134004155785D00B902E06D1C102DA0
:10BBB000F5D300BF002143200155052E00D30426F4
:10BBC000E66266640020A064201DFFF7AEFA04F16F
:10BBD0001800FFF7AAFA2461C6F10500A0616462AB
:10BBE0000020E06484F8500041465846039A01F072
:10BBF00046F82060BAF1000F01D0CAF80040BDE855
:10BC0000FF9F2DE9FF4F85B0804689461746DDE945
:10BC100012ABB80001F0BDF8064656B1542001F051
:10BC2000B8F804460CB1266304E0304601F004F98C
:10BC300000E000247CB10020CDE900ABCDE902405A
:10BC40003A4649464046089BFFF798FF2046FFF7D3
:10BC50004AFF012501E04FF0FF35284609B0BDE855
:10BC6000F08F96490968096809B9012100E00021AF
:10BC700021B14FF0FF31994A116006E08F49096800
:10BC8000C968C868954A41681160704710B5044694
:10BC9000206B01F0D1F8204601F0CEF810BD70B550
:10BCA000054601F023F815B98748006800E02846EA
:10BCB0000446201DFFF762FA78B9E06A00EB8000C5
:10BCC000784951F8200040B994F82C1001208840A0
:10BCD0008049096881437F480160A06A18B104F176
:10BCE0001800FFF74BFA7A480068401C7849086052
:10BCF00075480068844209D1211D6E48FFF718FA83
:10BD000077480068401C7649086009E06D48006883
:10BD1000401E6C4908602046FFF7B8FFFFF7A1FFFF
:10BD200000F0F3FF6948006858B167480068844232
:10BD300007D14FF0805068490860BFF34F8FBFF3C1
:10BD40006F8F70BD2DE9F04100276648006800281C
:10BD500068D165480068451C634805608DB957483F
:10BD6000D0F8008056480068544908605448C0F82C
:10BD700000805E480068401C5C490860FFF771FF66
:10BD800000BF5648006885423BD300BF4B4800685F
:10BD9000006808B9012000E0002020B14FF0FF301A
:10BDA0004E4908602CE045480068C068C468666871
:10BDB000B54202D24948066022E0201DFFF7DEF9B5
:10BDC000A06A18B104F11800FFF7D8F994F82C1004
:10BDD000012088403F49096808433E490860E16AFC
:10BDE00001EB81012F4A02EB8100211DFFF7A0F931
:10BDF0003549E06A0968C96A8842C7D30127C5E79F
:10BE000000BF31480068C06A00EB8000254951F846
:10BE10002000012800D901273548006808B902F040
:10BE2000C0F906E032480068401C3149086002F061
:10BE3000B8F93048006800B101273846BDE8F08104
:10BE400070B50024002600F051FF26480068401E0F
:10BE5000244908600846006800287AD1194800681B
:10BE6000002876D04FE01248C068C46804F118007A
:10BE7000FFF784F9201DFFF781F994F82C100120B9
:10BE8000884014490968084312490860E16A01EBD7
:10BE90008101044A02EB8100211DFFF749F90A499B
:10BEA000E06A29E024020020880200209C02002091
:10BEB000B0020020C4020020D8020020500100205F
:10BEC000540100205C0100204C010020680100208A
:10BED000780100206401002004ED00E07C010020D6
:10BEE000580100208401002060010020740100201E
:10BEF0006C010020700100200968C96A884202D3E1
:10BF00000120F7490860F748006808B9012000E0FF
:10BF100000200028A7D00CB1FFF7A3FEF248056867
:10BF200065B100BFFFF70EFF10B10120EC490860BA
:10BF30006D1E002DF6D10020EB490860E84800682E
:10BF400038B101263007E9490860BFF34F8FBFF3CE
:10BF50006F8F00F0DAFE304670BD2DE9F0410546E6
:10BF60000E46E3480768E3480068001DFFF706F93E
:10BF700050B9E048006890F82C1001208840DE4954
:10BF800009688143DC480160681C38B936B1D9487A
:10BF90000168091DD948FFF7CBF81AE07C19D5488C
:10BFA00000684460BC4207D2D2480168091DD448E9
:10BFB0000068FFF7C9F80CE0CE480168091DD148B8
:10BFC0000068FFF7C1F8D0480068844201D2CE482B
:10BFD0000460BDE8F081CD480068401CCB49086092
:10BFE00070472DE9F047044688464FF00009FFF7F7
:10BFF000F2FFBF480668206800EB08052068B042E1
:10C0000007D92068A8420BD9B54209D94FF00109D8
:10C0100006E02068A84201D8B54201D94FF00109D5
:10C020002560B9F1000F03D0A81B0021FFF795FF91
:10C03000FFF706FF07463FB94FF08050AB49086055
:10C04000BFF34F8FBFF36F8FBDE8F08770B5044625
:10C05000002544B1FFF7BFFF00212046FFF77DFF19
:10C06000FFF7EEFE05463DB94FF080509F4908604E
:10C07000BFF34F8FBFF36F8F70BD70B5044600F0F4
:10C0800035FE14B99B48006800E020460646F56A74
:10C0900000F03BFE284670BD70B5024600BFBF25CC
:10C0A000EFF3118485F31188BFF34F8FBFF36F8FC8
:10C0B00000BF214612B98F4C246800E01446234685
:10C0C000D86A00BF81F3118800BF70BD2DE9F04729
:10C0D00080460D464FF00009052D00D3042500F0E1
:10C0E00005FEB8F1000F02D18248006800E040462A
:10C0F0000446666CAE4256D0B5420BD97D48006806
:10C1000084420DD07B480068C06AA84208D84FF02E
:10C11000010905E077480068844201D14FF0010928
:10C12000E76AE16A606C884200D1E5626564A069F3
:10C1300000F0004010B9C5F10500A06107EB8701D0
:10C14000734A02EB81016069884201D1012000E05D
:10C150000020E0B1201DFFF711F830B90120B840F0
:10C160006549096881436448016094F82C100120F6
:10C1700088406149096808435F490860E16A01EB4A
:10C180008101634A02EB8100211DFEF7D1FFB9F165
:10C19000000F07D04FF0805054490860BFF34F8F15
:10C1A000BFF36F8F00BF00F0B0FDBDE8F0875748C8
:10C1B000006818B101204A4908601DE00020484984
:10C1C00008604D480068B0FA80F0C0F11F0101EB33
:10C1D00081024F4B03EB820042685268426000F1DB
:10C1E00008024368934202D1426852684260426842
:10C1F000D268404B1A6000BF704770B5054600F02A
:10C2000075FD15B93B48006800E028460446201D2E
:10C21000FEF7B4FF78B9E06A00EB80003C4951F8C2
:10C22000200040B994F82C10012088403249096858
:10C23000814331480160A06A18B104F11800FEF78B
:10C240009DFF211D2D48FEF773FF94F85000012833
:10C2500002D1002084F8500000F057FD2D480068FE
:10C2600028B100F043FDFFF7FCFC00F04EFD214833
:10C270000068844217D12748006840B14FF08050D1
:10C280001A490860BFF34F8FBFF36F8F0BE01B4855
:10C29000006821490968884203D1002015490860D7
:10C2A00001E0FFF784FF70BD10B5014600200A468B
:10C2B000124C5369A34201D1012300E0002373B162
:10C2C000084C936AA34201D1012300E0002333B953
:10C2D000936A0BB9012300E0002303B1012010BDD4
:10C2E00070010020B00200206C01002004ED00E08D
:10C2F000600100204C01002064010020D8020020D1
:10C3000054010020500100207C0100208401002005
:10C3100024020020680100205C01002070B5054661
:10C320002C4674B3FC48006884422AD000F0DEFC3E
:10C330002046FFF7B9FF10B3201DFEF71FFF94F84A
:10C340002C1001208840F54909680843F34908602A
:10C35000E16A01EB8101F24A02EB8100211DFEF747
:10C36000E7FEED49E06A0968C96A884207D34FF0E1
:10C370008050EC490860BFF34F8FBFF36F8F00F020
:10C38000C4FC70BD2DE9F04106460027344600BFCD
:10C39000BF21EFF3118081F31188BFF34F8FBFF3FB
:10C3A0006F8F00BF05462046FFF77EFF20B3DE48B3
:10C3B0000068E0B9D849E06A0968C96A884200D3D0
:10C3C0000127201DFEF7DAFE94F82C10012088408A
:10C3D000D24909680843D1490860E16A01EB81014B
:10C3E000CF4A02EB8100211DFEF7A2FE04E004F11A
:10C3F0001801CE48FEF79CFE00BF85F3118800BFF0
:10C400003846BDE8F08110B516E000F06FFCC84872
:10C41000C068C468201DFEF7B1FEC6480068401E13
:10C42000C4490860C4480068401EC349086000F061
:10C430006CFC2046FFF72AFCBF4800680028E4D1C6
:10C4400010BD00BFFFF7DFFFB54800680128F9D92C
:10C450004FF08050B3490860BFF34F8FBFF36F8F29
:10C46000F0E71CB5B54800210B46FE22CDE90010CF
:10C47000B3A1B548FFF7C5FB0446012C14D100BF9A
:10C48000BF2080F31188BFF34F8FBFF36F8F00BFC2
:10C490004FF0FF30AD4908600120AD490860002031
:10C4A000AC49086000F00CFC1CBD10B500BFBF20FB
:10C4B00080F31188BFF34F8FBFF36F8F00BF002051
:10C4C000A349086000F011FC10BDA249086870473C
:10C4D0000021A04A106870479648006870470146DE
:10C4E00011B98D48006800E00846024602F13400A8
:10C4F000704770B505460C468748016818312846D4
:10C50000FEF722FE01212046FFF727FD70BD70B522
:10C5100006460C46154644F000407F49096888618C
:10C520007D48016818313046FEF702FE0121284699
:10C53000FFF713FD70BD70B50646F068C46804F1DE
:10C540001800FEF71BFE78480068A8B9201DFEF70A
:10C5500015FE94F82C1001208840704909680843A2
:10C560006E490860E16A01EB81016D4A02EB8100CE
:10C57000211DFEF7DDFD04E004F118016B48FEF714
:10C58000D7FD6549E06A0968C96A884204D901256E
:10C5900001207149086000E00025284670BD70B593
:10C5A00005460E4646F000402860EC682846FEF737
:10C5B000E5FD201DFEF7E2FD94F82C1001208840D7
:10C5C00056490968084355490860E16A01EB810151
:10C5D000534A02EB8100211DFEF7AAFD4E49E06A95
:10C5E0000968C96A884202D901205B49086070BDA8
:10C5F00010B5044600F07AFB5848006820605548A2
:10C600000068606000F081FB10BD5449096801605A
:10C61000504909684160704770B506460C4600F005
:10C6200065FB4C4802687068131A2068401C08B902
:10C63000002517E0494930680968884204D07068CD
:10C64000904201D801250DE02068984207D9206862
:10C65000C01A20603046FFF7D8FF002502E0002016
:10C660002060012500F051FB284670BD01203A49A9
:10C670000860704728490868704770B505462C4621
:10C680000026002D7BD02449E06A0968C96A8842E7
:10C690006ED2A06900F0004028B91F480068C06A47
:10C6A000C0F10500A061E16A01EB81011C4A02EBC7
:10C6B00081016069884201D1012000E0002050B36F
:10C6C000201DFEF75BFD78B9E06A00EB800014499D
:10C6D00051F8200040B994F82C10012088400F49EF
:10C6E000096881430D4801600B480068C06AE06238
:10C6F00094F82C100120884008490968084307492C
:10C700000860E16A01EB8101054A02EB8100211D0D
:10C71000FEF70EFD2AE025E04C0100206401002018
:10C720002402002004ED00E084010020B00200207B
:10C73000C40200205C01002058010020800100207C
:10C7400049444C450000000043C400087C0100201F
:10C7500068010020600100207001002074010020A9
:10C760000DE005E0FC480068C06AE062012606E0D2
:10C77000F949606C0968C96A884200D201263046CE
:10C7800070BD70B505462C460026ADB3A06C401EAA
:10C79000A064616CE06A88422ED0A06C60BB201D52
:10C7A000FEF7ECFC78B9E06A00EB8000EB4951F849
:10C7B000200040B994F82C1001208840E84909680D
:10C7C0008143E7480160606CE062E06AC0F1050007
:10C7D000A06194F82C1001208840E14909680843C1
:10C7E000DF490860E16A01EB8101DC4A02EB81006C
:10C7F000211DFEF79DFC0126304670BD2DE9F04756
:10C8000006460F4634464FF00109002E47D0606CB3
:10C81000B84201D23D4600E0656CE06AA8423ED0D5
:10C82000A06C01283BD1D4F82C80E562A06900F00F
:10C83000004010B9C5F10500A06108EB8801C74AA6
:10C8400002EB81016069884201D1012000E00020F3
:10C8500028B3201DFEF792FC78B9E06A00EB800057
:10C86000BE4951F8200040B994F82C1001208840AE
:10C87000BB4909688143BA48016094F82C10012033
:10C880008840B74909680843B5490860E16A01EB87
:10C890008101B24A02EB8100211DFEF749FCBDE88F
:10C8A000F087AD4909688869AB490968C96AC1F16F
:10C8B0000501A94A126891617047A748006830B124
:10C8C000A549096801F14800896C491C0160A2482A
:10C8D0000068704770B506460D4600F007FA9E489E
:10C8E0000068C06C88B901209B49096881F8500034
:10C8F0005DB101212846FFF730FB4FF08050994988
:10C900000860BFF34F8FBFF36F8F00F0FEF900F0A8
:10C91000EDF991480068C46C4CB126B100208E49F5
:10C920000968C86403E0601E8B490968C864002078
:10C930008949096881F8500000F0E7F9204670BD88
:10C940002DE9F0410746884614461D4600F0CEF911
:10C950008148006890F85000022818D07E49096884
:10C9600001F14C00C96CB943016001207A490968A2
:10C9700081F850005DB101212846FFF7EEFA4FF033
:10C98000805078490860BFF34F8FBFF36F8F00F07E
:10C99000BCF900F0ABF91CB16F480068C06C2060B6
:10C9A0006D48006890F85000022801D0002608E089
:10C9B0006949096801F14C00C96C21EA080101606C
:10C9C000012600206449096881F8500000F09DF9B3
:10C9D0003046BDE8F0812DE9F04781460D46164608
:10C9E0001F464FF0010A4C4600F080F90FB1E06C91
:10C9F000386094F85080022084F85000052E17D239
:10CA0000DFE806F01503070B0D00E06C2843E06437
:10CA10000EE0E06C401CE0640AE0E56408E0B8F178
:10CA2000020F01D0E56401E04FF0000A00E000BF12
:10CA300000BFB8F1010F22D1201DFEF79FFB94F833
:10CA40002C10012088404649096808434449086081
:10CA5000E16A01EB8101414A02EB8100211DFEF7F1
:10CA600067FB3D49E06A0968C96A884207D94FF007
:10CA700080503C490860BFF34F8FBFF36F8F00F0C9
:10CA800044F95046BDE8F0872DE9F84F82460D463F
:10CA900016461F46DDF828B001200090544600BF1E
:10CAA000BF21EFF3118081F31188BFF34F8FBFF3E4
:10CAB0006F8F00BF81460FB1E06C386094F85080F2
:10CAC000022084F85000052E17D2DFE806F0150387
:10CAD000070B0D00E06C2843E0640EE0E06C401CA6
:10CAE000E0640AE0E56408E0B8F1020F01D0E56413
:10CAF00001E00020009000E000BF00BFB8F1010F8E
:10CB000039D119480068A8B9201DFEF737FB94F801
:10CB10002C10012088401249096808431049086018
:10CB2000E16A01EB81010D4A02EB8100211DFEF754
:10CB3000FFFA04E004F118010C48FEF7F9FA06497F
:10CB4000E06A0968C96A884215D9BBF1000F0FD0A5
:10CB50000120CBF800000EE04C0100202402002050
:10CB60006401002004ED00E084010020B0020020F8
:10CB700001203749086000BF89F3118800BF009881
:10CB8000BDE8F88F2DE9F04105460E462C4600BF62
:10CB9000BF21EFF3118081F31188BFF34F8FBFF3F3
:10CBA0006F8F00BF074694F85080022084F8500031
:10CBB000E06C401CE064B8F1010F2AD12548006800
:10CBC000A8B9201DFEF7DAFA94F82C10012088404D
:10CBD00021490968084320490860E16A01EB8101A5
:10CBE0001E4A02EB8100211DFEF7A2FA04E004F1C7
:10CBF00018011B48FEF79CFA1A49E06A0968C96ADD
:10CC0000884206D916B10120306002E001201049A7
:10CC1000086000BF87F3118800BFBDE8F08170B5E0
:10CC2000054615B90F48006800E02846064600F0A2
:10CC30005DF896F85000022804D1002086F85000D4
:10CC4000012400E0002400F060F8204670BD0000E0
:10CC500070010020840100206401002024020020D3
:10CC6000B00200204C01002000BFBF2080F31188DB
:10CC7000BFF34F8FBFF36F8F00BF00BFFEE7001FF2
:10CC80004FF080730360001F21F001030360001F59
:10CC9000314B0360143802602038704700204FF099
:10CCA000E021086188612D4800684FF47A71B0FB7B
:10CCB000F1F0401E4FF0E021486107200861704705
:10CCC00010B52748006840F47F00254908600846F1
:10CCD000006840F07F400860FFF7E0FF0020214936
:10CCE0000860FAF741FE002010BD704700BFBF206A
:10CCF00080F31188BFF34F8FBFF36F8F00BF1948C8
:10CD00000068401C17490860704716480068401EBC
:10CD1000144908600846006820B9002080F3118893
:10CD200000BF00BF704710B500BFBF2080F311885F
:10CD3000BFF34F8FBFF36F8F00BFFFF703F820B132
:10CD40004FF0805006491C39086000BF002080F376
:10CD5000118800BF10BD000069CC0008A4010020AC
:10CD600020ED00E088010020434A22F00700434AFA
:10CD700010600022414B5A6044F2F832404B5A6036
:10CD800000221A60014644F2F8324A601A460A60EC
:10CD900070472DE9F04104464FF00008FFF71BF9FA
:10CDA0003848006820B9FFF7DFFF012035490860E7
:10CDB00044B1083404F0070020B104F00700C0F1CA
:10CDC00008000444002C32D044F2F83084422ED2C1
:10CDD0002A4F3846056801E02F462D686868A04252
:10CDE00002D228680028F7D1254885421FD038682C
:10CDF00000F10808286838606868001B102810D9FE
:10CE00002E196868001B70606C6071681B4800E038
:10CE10000068026852688A42FAD30268326006608B
:10CE200000BF194968680968081A17490860FFF7C0
:10CE300007F84046BDE8F08170B506463546B6B104
:10CE4000083D2C46FFF7C7F861680C4800E0006811
:10CE5000026852688A42FAD30268226004600A4972
:10CE600060680968084408490860FEF7E9FF70BD7A
:10CE70000548006870477047F40200208C010020CC
:10CE800094010020A00100209C01002031490143B1
:10CE9000314A1160704770B5002100230F22C47819
:10CEA00004B32D4C246804F4E064C4F5E064210A62
:10CEB000C1F10403CA40447804FA03F184781440B1
:10CEC00021430901254C0678A155047804F01F057B
:10CED0000124AC4005786D11AD0005F1E025C5F8E1
:10CEE000004109E0047804F01F050124AC401C4D0A
:10CEF0000678761145F8264070BD1A4A0A4002436A
:10CF0000154B1B1F1A60704739B1134A121D126866
:10CF10000243114B1B1D1A6006E00F4A121D1268D6
:10CF200082430D4B1B1D1A607047042808D14FF037
:10CF3000E021096941F004014FF0E022116107E0AE
:10CF40004FF0E021096921F004014FF0E022116166
:10CF5000704700000000FA050CED00E000E400E07E
:10CF600080E100E080FFFF1F0CB5002001900090E1
:10CF70006C48006840F480306A49086000BF694826
:10CF8000006800F4003000900198401C0190009867
:10CF900018B90198B0F5A06FF1D16248006800F4AB
:10CFA000003010B10120009001E0002000900098B6
:10CFB000012843D15C48006840F010005A490860DD
:10CFC0000846006820F0030008600846006840F04A
:10CFD000020008605348406852494860084640686B
:10CFE00048600846406840F48060486008464068F1
:10CFF00020F47C1048600846406840F4E81048601F
:10D000000846006840F08070086000BF454800682E
:10D0100000F000700028F9D04248406820F003007A
:10D02000404948600846406840F00200486000BF40
:10D030003C48406800F00C000828F9D10CBD10B540
:10D04000FFF792FF10BD10B53648006840F00100B0
:10D05000344908600846406834490840314948600E
:10D0600008460068324908402E49086008460068B2
:10D0700020F4802008600846406820F4FE004860E4
:10D080004FF41F008860FFF7DAFF4FF00060294976
:10D09000086010BD10B5002100200022214B5B6804
:10D0A00003F00C0121B1042906D0082928D107E09A
:10D0B000214B224C236027E01F4B204C236023E0B0
:10D0C000184B5B6803F47010164B5B6803F48032F6
:10D0D000022303EB904022B9194B4343174C2360C2
:10D0E0000DE0104B5B6803F4003323B1144B434352
:10D0F000124C236003E0104B4343104C236003E0C9
:10D100000D4B0E4C236000BF00BF064B5B68C3F3A2
:10D1100003130C4CE15C094B1B68CB40074C2360AC
:10D1200010BD000000100240002002400000FFF887
:10D13000FFFFF6FE08ED00E000127A00A4010020D7
:10D1400000093D00A801002010B50446CC488442E7
:10D1500008D10121042000F02DFB0021042000F063
:10D1600029FB46E0C748844208D10121082000F08D
:10D1700021FB0021082000F01DFB3AE0C248844258
:10D1800008D10121102000F015FB0021102000F033
:10D1900011FB2EE0BD48844208D10121202000F07F
:10D1A00009FB0021202000F005FB22E0B848844262
:10D1B00008D10121402000F0FDFA0021402000F0BC
:10D1C000F9FA16E0B348844208D10121802000F02A
:10D1D000F1FA0021802000F0EDFA0AE0AE48844226
:10D1E00007D10121801500F0E5FA0021A01500F01B
:10D1F000E1FA10BD10B50121084600F0DBFA00216C
:10D20000012000F0D7FA10BD2DE9F04102460025BB
:10D210000026002000230024002791F803C00CF012
:10D220000F0591F803C00CF0100CBCF1000F03D0F7
:10D2300091F802C04CEA050591F800C0BCF1000F5E
:10D2400031D0146800202BE04FF0010C0CFA00F3F1
:10D25000B1F800C00CEA03069E4220D183004FF0D3
:10D260000F0C0CFA03F7BC4305FA03FC4CEA040468
:10D2700091F803C0BCF1280F06D14FF0010C0CFA55
:10D2800000FCC2F814C00AE091F803C0BCF1480FDA
:10D2900005D14FF0010C0CFA00FCC2F810C0401C84
:10D2A0000828D1D31460B1F800C0BCF1FF0F34DD01
:10D2B000546800202EE000F1080C4FF0010808FA35
:10D2C0000CF3B1F800C00CEA03069E4221D18300A2
:10D2D0004FF00F0C0CFA03F7BC4305FA03FC4CEAC1
