:020000040800F2
:10000000D84E002061430008394500083B450008F0
:100010003F45000843450008474500080000000030
:100020000000000000000000000000004501000882
:100030004B4500080000000089010008F71D00087A
:100040007B4300087B4300087B4300087B43000898
:100050007B4300087B4300087B4300087B43000888
:100060007B4300087B4300087B4300087B43000878
:100070007B4300087B4300087B4300087B43000868
:100080007B4300087B4300087B4300087B43000858
:100090007B4300087B4300087B4300087B43000848
:1000A0007B4300087B4300087B4300087B43000838
:1000B0007B4300087B4300087B4300087B43000828
:1000C0007B4300087B4300087B4300087B43000818
:1000D0007B430008A94600087B4300087B430008D7
:1000E0007B4300087B4300087B4300087B430008F8
:1000F0007B4300087B4300087B4300087B430008E8
:100100007B4300087B4300087B4300087B430008D7
:100110007B4300087B4300087B4300087B430008C7
:100120007B4300087B4300087B4300087B430008B7
:10013000DFF80CD005F0F4FB00480047AB440008A2
:10014000D84E0020224B19680868B0E8F00F80F301
:100150000988BFF36F8F4FF0000080F311884EF0D5
:100160000D0E70470000000006480068006880F32C
:10017000088862B661B6BFF34F8FBFF36F8F00DFA1
:1001800000BF00BF08ED00E0EFF30980BFF36F8F01
:100190000F4B1A6820E9F00F106008B54FF0BF0050
:1001A00080F31188BFF34F8FBFF36F8F01F065F8B5
:1001B0004FF0000080F31188BDE808401968086816
:1001C000B0E8F00F80F30988BFF36F8F704700BF6E
:1001D00000000020EFF30580704700F10801416046
:1001E0004FF0FF31816000F10801C1600161002121
:1001F0000160704700210161704742684A6093685E
:100200008B60936859609160086103685B1C0360B0
:10021000704710B502460B685C1C0CB9106907E00A
:1002200002F1080000E04068446824689C42FAD962
:1002300044684C604C68A160886041600A61146841
:10024000641C146010BD01460A69D1E90130986050
:10025000D1E9010358605068884201D18868506034
:10026000002008611068401E106010687047000090
:1002700070B505460E462C4601F0A0FDD4E90F12DC
:10028000206801FB020060600020A0632068A0607D
:10029000E06B401E226C216800FB0210E060FF2032
:1002A00084F8440084F845009EB9206908B901200B
:1002B00000E00020A8B904F1100001F0A3F980B11A
:1002C0004FF08050FA490860BFF34F8FBFF36F8F34
:1002D00007E004F11000FFF780FF04F12400FFF7AE
:1002E0007CFF01F07AFD012070BD2DE9F04106464A
:1002F0000D4617469846069C0DB9246000E027601D
:10030000E663256401212046FFF7B2FFBDE8F081D6
:100310002DE9F84307460D4690460DB9002601E049
:1003200007FB05F606F1480001F09BFD044644B1C9
:1003300004F1480943464A46294638460094FFF7E7
:10034000D4FF2046BDE8F88370B5044601F036FDC1
:1003500094F9455010E0606A08B9012000E00020DF
:1003600038B904F1240001F04DF918B101F0E5F9B4
:1003700000E003E0681E45B2002DECDC00BFFF206A
:1003800084F8450001F029FD01F018FD94F944506E
:1003900010E0206908B9012000E0002048B904F10C
:1003A000100001F02FF908B101F0C7F9681E45B23D
:1003B00000E001E0002DECDC00BFFF2084F84400E9
:1003C00001F00BFD70BD70B5054601F0F7FCA86BA0
:1003D000E96B884201D1012400E0002401F0FDFC1A
:1003E000204670BD2DE9F04104460F4615464FF0FA
:1003F0000008A66B206C40B9206860BB606801F003
:1004000027FA80460020606025E07DB93946226CDD
:10041000A06805F073FA216CA0680844A060D4E9D4
:100420000110884217D32068A06014E03946226C7E
:10043000E06805F063FA216CE068401AE06021682A
:10044000E068884203D2216C6068401AE060022DA7
:1004500001D106B1761E701CA0634046BDE8F08154
:100460002DE9FF4383B0074688461D464FF000093B
:100470003C4600BF01F0A2FCA06BE16B884201D3B7
:10048000022D28D12A4641462046FFF7ABFF0646FB
:10049000606A08B9012000E0002068B904F1240076
:1004A00001F0B0F888B14FF0805081490860BFF387
:1004B0004F8FBFF36F8F08E03EB14FF080507C4903
:1004C0000860BFF34F8FBFF36F8F01F086FC0120F0
:1004D00007B0BDE8F083059818B901F07EFC002054
:1004E000F6E7B9F1000F04D101A801F0F5F84FF0DB
:1004F000010901F072FC00F0D4FD01F05FFC94F9F9
:100500004400401C10B9002084F8440094F94500D0
:10051000401C10B9002084F8450001F05EFC05A9DC
:1005200001A801F0E0F8F0B92046FFF74CFFA0B1B8
:1005300004F11000059901F043F82046FFF704FF8D
:1005400000F0E4FC002895D14FF080505849086035
:10055000BFF34F8FBFF36F8F8CE72046FFF7F4FE9A
:1005600000F0D4FC86E72046FFF7EEFE00F0CEFC5C
:100570000020ADE710B504464CB10020606020605B
:10058000E06000231A4619462046FFF769FF10BDB8
:100590002DE9F041044601260027224600210120D2
:1005A000FFF7B6FE05462846FFF7E4FF2846BDE8FC
:1005B000F0812DE9F05F05468A4616461F462C4617
:1005C00000BFBF21EFF3118081F31188BFF34F8F7C
:1005D000BFF36F8F00BF8146A06BE16B884201D3F0
:1005E000022F20D194F945B03A4651462046FFF7F4
:1005F000F9FE0BF1010070B9606A08B9012000E052
:10060000002068B904F1240000F0FCFF40B13EB1C5
:100610000120306004E00BF1010040B284F8450095
:100620004FF0010801E04FF0000800BF89F3118886
:1006300000BF4046BDE8F09F2DE9F04705460E4655
:100640002C4600BFBF21EFF3118081F31188BFF367
:100650004F8FBFF36F8F00BF8046D4F83890E06BA8
:1006600048451DD994F945A009F10100A0630AF19C
:10067000010070B9606A08B9012000E0002068B983
:1006800004F1240000F0BEFF40B13EB10120306013
:1006900004E00AF1010040B284F84500012700E0BF
:1006A000002700BF88F3118800BF3846BDE8F087F7
:1006B00004ED00E070B5054601F080FBA86B08B9B9
:1006C000012400E0002401F088FB204670BD70B5D5
:1006D00004460D46206C70B1216CE0680844E0606F
:1006E0006168E068884201D32068E0602846226C97
:1006F000E16805F003F970BD2DE9F74183B00546C7
:100700000F464FF000082C4600BF01F057FBA66BC8
:10071000F6B139462046FFF7DAFF701EA063206964
:1007200008B9012000E0002060B904F1100000F0D9
:1007300069FF38B14FF08050F8490860BFF34F8F20
:10074000BFF36F8F01F049FB012006B0BDE8F081D7
:10075000059818B901F041FB0020F6E7B8F1000F49
:1007600004D101A800F0B8FF4FF0010801F035FBFB
:1007700000F097FC01F022FB94F94400401C10B9F2
:10078000002084F8440094F94500401C10B9002072
:1007900084F8450001F021FB05A901A800F0A3FFA2
:1007A000F0B92046FFF786FFA0B104F124000599B7
:1007B00000F006FF2046FFF7C7FD00F0A7FB00286A
:1007C000A3D14FF08050D5490860BFF34F8FBFF3DE
:1007D0006F8F9AE72046FFF7B7FD00F097FB94E78D
:1007E0002046FFF7B1FD00F091FB2046FFF762FFC6
:1007F00000288AD00020A8E701464A6A22B10A6B85
:100800001268C2F1030000E0002070472DE9F341B7
:1008100082B0054600272C46B84600BF01F0CEFA4C
:10082000A66BFEB1701EA063206810B901F0ACF891
:100830006060206908B9012000E0002060B904F17F
:10084000100000F0DFFE38B14FF08050B34908606F
:10085000BFF34F8FBFF36F8F01F0BFFA012004B0D9
:10086000BDE8F081039818B901F0B7FA0020F6E767
:100870001FB9684600F030FF012701F0AEFA00F022
:1008800010FC01F09BFA94F94400401C10B90020C0
:1008900084F8440094F94500401C10B9002084F805
:1008A000450001F09AFA03A9684600F01CFF40BB1E
:1008B0002046FFF7FFFEF0B1206838B901F07EFA5C
:1008C000606800F041FF804601F087FA04F12400DF
:1008D000039900F075FE2046FFF736FD00F016FB89
:1008E00000289BD14FF080508C490860BFF34F8F98
:1008F000BFF36F8F92E72046FFF726FD00F006FB5F
:100900008CE72046FFF720FD00F000FB2046FFF7B4
:10091000D1FE002882D0B8F1000F0BD001F04EFAC2
:100920002046FFF769FF06463146606800F0CDFFBC
:1009300001F053FA002092E72DE9F74382B0054613
:100940000F464FF000082C4600BF01F037FAD4F8EC
:100950003890B9F1000F1ED0E66839462046FFF7FF
:10096000B6FEE660606A08B9012000E0002060B9C8
:1009700004F1240000F046FE38B14FF08050674982
:100980000860BFF34F8FBFF36F8F01F026FA01208D
:1009900005B0BDE8F083049818B901F01EFA0020F4
:1009A000F6E7B8F1000F04D1684600F095FE4FF06D
:1009B000010801F012FA00F074FB01F0FFF994F95C
:1009C0004400401C10B9002084F8440094F945000C
:1009D000401C10B9002084F8450001F0FEF904A97C
:1009E000684600F080FEF0B92046FFF763FEA0B134
:1009F00004F12400049900F0E3FD2046FFF7A4FC75
:100A000000F084FA0028A0D14FF0805043490860DC
:100A1000BFF34F8FBFF36F8F97E72046FFF794FC2C
:100A200000F074FA91E72046FFF78EFC00F06EFAB2
:100A30002046FFF73FFE002887D00020A8E72DE9D9
:100A4000F05F05468A4616462C4600BFBF21EFF3ED
:100A5000118081F31188BFF34F8FBFF36F8F00BFF9
:100A60008046D4F83890B9F1000F21D094F944B001
:100A700051462046FFF72BFEA9F10100A0630BF1C0
:100A8000010070B9206908B9012000E0002068B9B0
:100A900004F1100000F0B6FD40B13EB1012030601D
:100AA00004E00BF1010040B284F84400012700E0AB
:100AB000002700BF88F3118800BF3846BDE8F09FCB
:100AC0002DE9F047054689462C4600BFBF21EFF3CC
:100AD000118081F31188BFF34F8FBFF36F8F00BF79
:100AE0000746A06B48B1D4F80C8049462046FFF772
:100AF000EEFDC4F80C80012600E0002600BF87F35D
:100B0000118800BF3046BDE8F08770B5044601F09B
:100B100055F9A56B01F061F9284670BD04ED00E0C0
:100B200070B50446254601F049F9D5E90E10461A7C
:100B300001F053F9304670BD0146886B704770B5BF
:100B400004462546284601F0DFF970BD01468A6B50
:100B50000AB9012000E00020704701468A6BCB6B88
:100B60009A4201D1012000E00020704710B5002416
:100B700007E004EB8401FE4A02EB8100FFF72DFB46
:100B8000641C032CF5D3FB48FFF727FBFA48FFF75B
:100B900024FBFA48FFF721FBF948FFF71EFBF94851
:100BA000FFF71BFBF348F8490860F348F749086072
:100BB00010BD10B5044601F001F9F5480068401C6D
:100BC000F3490860F348006840B9F24804600846F9
:100BD000006801280DD1FFF7C9FF0AE0EE48006860
:100BE00038B9EC480068C06AE16A884201D8E9482F
:100BF0000460EA480068401CE849086094F82C103A
:100C000001208840E64909680843E5490860E16A2F
:100C100001EB8101D64A02EB8100211DFFF7EDFABD
:100C200001F0DBF8DC48006868B1DA480068C06AA7
:100C3000E16A884207D24FF08050DA490860BFF37A
:100C40004F8FBFF36F8F10BD2DE9FF5F80460F46BA
:100C50009146DDE90E6A109CA9F10100216B01EBC0
:100C6000800B2BF0070B002507E0795D04F13400C1
:100C70004155785D00B902E06D1C102DF5D300BF21
:100C8000002143200155032E00D30226E66266644C
:100C90000020A064201DFFF7ADFA04F11800FFF753
:100CA000A9FA2461C6F10300A06164620020E06437
:100CB00084F8500041465846039A01F048F82060F5
:100CC000BAF1000F01D0CAF80040BDE8FF9F2DE93E
:100CD000FF4F85B0804689461746DDE912ABB80064
:100CE00001F0BFF8064656B1542001F0BAF80446A8
:100CF0000CB1266304E0304601F006F900E0002460
:100D00007CB10020CDE900ABCDE902403A4649462E
:100D10004046089BFFF798FF2046FFF74AFF012552
:100D200001E04FF0FF35284609B0BDE8F08F964945
:100D30000968096809B9012100E0002121B14FF0DB
:100D4000FF31994A116006E08F490968C968C8688F
:100D5000954A41681160704710B50446206B01F058
:100D6000D3F8204601F0D0F810BD70B5054601F06B
:100D700025F815B98748006800E028460446201D7C
:100D8000FFF761FA78B9E06A00EB8000784951F822
:100D9000200040B994F82C1001208840804909684F
:100DA00081437F480160A06A18B104F11800FFF781
:100DB0004AFA7A480068401C78490860754800681B
:100DC000844209D1211D6E48FFF717FA7748006861
:100DD000401C7649086009E06D480068401E6C4977
:100DE00008602046FFF7B8FFFFF7A1FF00F0F5FF0E
:100DF0006948006858B167480068844207D14FF0DD
:100E0000805068490860BFF34F8FBFF36F8F70BD8C
:100E10002DE9F041002766480068002868D1654840
:100E20000068451C634805608DB95748D0F80080BC
:100E300056480068544908605448C0F800805E482D
:100E40000068401C5C490860FFF771FF00BF56480E
:100E5000006885423BD300BF4B480068006808B972
:100E6000012000E0002020B14FF0FF304E49086023
:100E70002CE045480068C068C4686668B54202D284
:100E80004948066022E0201DFFF7DDF9A06A18B18D
:100E900004F11800FFF7D7F994F82C1001208840CE
:100EA0003F49096808433E490860E16A01EB810156
:100EB0002F4A02EB8100211DFFF79FF93549E06AB7
:100EC0000968C96A8842C7D30127C5E700BF31480E
:100ED0000068C06A00EB8000254951F82000012815
:100EE00000D901273548006808B903F097FA06E0F1
:100EF00032480068401C3149086003F08FFA3048DE
:100F0000006800B101273846BDE8F08170B50024C3
:100F1000002600F053FF26480068401E2449086060
:100F20000846006800287AD119480068002876D061
:100F30004FE01248C068C46804F11800FFF783F955
:100F4000201DFFF780F994F82C10012088401449E7
:100F50000968084312490860E16A01EB8101044A0B
:100F600002EB8100211DFFF748F90A49E06A29E0F8
:100F7000BC000020F80000200C010020200100200F
:100F80003401002048010020040000200800002057
:100F900010000020000000201C0000202C00002079
:100FA0001800002004ED00E0300000200C000020BC
:100FB000380000201400002028000020200000201D
:100FC000240000200968C96A884202D30120F74939
:100FD0000860F748006808B9012000E000200028F8
:100FE000A7D00CB1FFF7A3FEF248056865B100BFBA
:100FF000FFF70EFF10B10120EC4908606D1E002DB7
:10100000F6D10020EB490860E848006838B10126B5
:101010003007E9490860BFF34F8FBFF36F8F00F0CF
:10102000DCFE304670BD2DE9F04105460E46E34832
:101030000768E3480068001DFFF705F950B9E0486C
:10104000006890F82C1001208840DE49096881432F
:10105000DC480160681C38B936B1D9480168091DFF
:10106000D948FFF7CAF81AE07C19D54800684460EF
:10107000BC4207D2D2480168091DD4480068FFF776
:10108000C8F80CE0CE480168091DD1480068FFF798
:10109000C0F8D0480068844201D2CE480460BDE860
:1010A000F081CD480068401CCB49086070472DE9AD
:1010B000F047044688464FF00009FFF7F2FFBF48AB
:1010C0000668206800EB08052068B04207D9206850
:1010D000A8420BD9B54209D94FF0010906E02068B2
:1010E000A84201D8B54201D94FF001092560B9F1F4
:1010F000000F03D0A81B0021FFF795FFFFF706FFA5
:1011000007463FB94FF08050AB490860BFF34F8F9F
:10111000BFF36F8FBDE8F08770B50446002544B17A
:10112000FFF7BFFF00212046FFF77DFFFFF7EEFE30
:1011300005463DB94FF080509F490860BFF34F8F7F
:10114000BFF36F8F70BD70B5044600F037FE14B961
:101150009B48006800E020460646F56A00F03DFE28
:10116000284670BD70B5024600BFBF25EFF311845D
:1011700085F31188BFF34F8FBFF36F8F00BF2146F8
:1011800012B98F4C246800E014462346D86A00BF89
:1011900081F3118800BF70BD2DE9F04780460D46F0
:1011A0004FF00009032D00D3022500F007FEB8F12F
:1011B000000F02D18248006800E040460446666C99
:1011C000AE4256D0B5420BD97D48006884420DD05E
:1011D0007B480068C06AA84208D84FF0010905E0C2
:1011E00077480068844201D14FF00109E76AE16A5B
:1011F000606C884200D1E5626564A06900F000403F
:1012000010B9C5F10300A06107EB8701734A02EB37
:1012100081016069884201D1012000E00020E0B135
:10122000201DFFF710F830B90120B8406549096862
:1012300081436448016094F82C1001208840614982
:10124000096808435F490860E16A01EB8101634A6C
:1012500002EB8100211DFEF7D0FFB9F1000F07D08E
:101260004FF0805054490860BFF34F8FBFF36F8F2A
:1012700000BF00F0B2FDBDE8F0875748006818B124
:1012800001204A4908601DE00020484908604D4897
:101290000068B0FA80F0C0F11F0101EB81024F4BF2
:1012A00003EB820042685268426000F10802436822
:1012B000934202D14268526842604268D268404B11
:1012C0001A6000BF704770B5054600F077FD15B98C
:1012D0003B48006800E028460446201DFEF7B3FFA7
:1012E00078B9E06A00EB80003C4951F8200040B931
:1012F00094F82C1001208840324909688143314814
:101300000160A06A18B104F11800FEF79CFF211DCE
:101310002D48FEF772FF94F85000012802D10020FA
:1013200084F8500000F059FD2D48006828B100F005
:1013300045FDFFF7FCFC00F050FD214800688442A9
:1013400017D12748006840B14FF080501A49086013
:10135000BFF34F8FBFF36F8F0BE01B48006821492D
:101360000968884203D100201549086001E0FFF7B1
:1013700084FF70BD10B5014600200A46124C536927
:10138000A34201D1012300E0002373B1084C936A0A
:10139000A34201D1012300E0002333B9936A0BB9C2
:1013A000012300E0002303B1012010BD2400002030
:1013B000200100202000002004ED00E014000020A7
:1013C0000000002018000020480100200800002034
:1013D000040000203000002038000020BC00002065
:1013E0001C0000201000002070B505462C4674B388
:1013F000FD48006884422AD000F0E0FC2046FFF758
:10140000B9FF10B3201DFEF71EFF94F82C10012029
:101410008840F64909680843F4490860E16A01EB2D
:101420008101F34A02EB8100211DFEF7E6FEEE4941
:10143000E06A0968C96A884207D34FF08050ED49D5
:101440000860BFF34F8FBFF36F8F00F0C6FC70BD15
:101450002DE9F04106460027344600BFBF21EFF3D7
:10146000118081F31188BFF34F8FBFF36F8F00BFDF
:1014700005462046FFF77EFF20B3DF480068E0B94D
:10148000D949E06A0968C96A884200D30127201D4A
:10149000FEF7D9FE94F82C1001208840D349096842
:1014A0000843D2490860E16A01EB8101D04A02EBAE
:1014B0008100211DFEF7A1FE04E004F11801CF48D0
:1014C000FEF79BFE00BF85F3118800BF3846BDE8DC
:1014D000F08110B516E000F071FCC948C068C4681E
:1014E000201DFEF7B0FEC7480068401EC5490860D1
:1014F000C5480068401EC449086000F06EFC2046E4
:10150000FFF72AFCC04800680028E4D110BD00BFE6
:10151000FFF7DFFFB64800680128F9D94FF0805087
:10152000B4490860BFF34F8FBFF36F8FF0E71CB56E
:10153000B64800210B464FF48072CDE90010B4A1EB
:10154000B548FFF7C4FB0446012C14D100BFBF20EF
:1015500080F31188BFF34F8FBFF36F8F00BF4FF041
:10156000FF30AE4908600120AD4908600020AD4958
:10157000086000F00DFC1CBD10B500BFBF2080F35B
:101580001188BFF34F8FBFF36F8F00BF0020A449B6
:10159000086000F012FC10BDA249086870470021E5
:1015A000A04A10687047974800687047014611B913
:1015B0008D48006800E00846024602F1340070479A
:1015C00070B505460C468848016818312846FEF774
:1015D00020FE01212046FFF726FD70BD70B50646AE
:1015E0000C46154644F000407F49096888617E48F2
:1015F000016818313046FEF700FE01212846FFF74A
:1016000012FD70BD70B50646F068C46804F118009C
:10161000FEF719FE78480068A8B9201DFEF713FEF2
:1016200094F82C10012088407049096808436F49DC
:101630000860E16A01EB81016D4A02EB8100211D26
:10164000FEF7DBFD04E004F118016C48FEF7D5FD60
:101650006549E06A0968C96A884204D90125012000
:101660007149086000E00025284670BD70B5054648
:101670000E4646F000402860EC682846FEF7E3FD81
:10168000201DFEF7E0FD94F82C10012088405749FA
:101690000968084355490860E16A01EB8101544A31
:1016A00002EB8100211DFEF7A8FD4F49E06A0968A1
:1016B000C96A884202D901205B49086070BD10B533
:1016C000044600F07BFB59480068206055480068DC
:1016D000606000F082FB10BD544909680160514907
:1016E00009684160704770B506460C4600F066FB1D
:1016F0004C4802687068131A2068401C08B900251D
:1017000017E04A4930680968884204D070689042FE
:1017100001D801250DE02068984207D92068C01A39
:1017200020603046FFF7D8FF002502E0002020604F
:10173000012500F052FB284670BD01203A4908609F
:10174000704729490868704770B505462C46002641
:10175000002D7BD02449E06A0968C96A88426ED2AC
:10176000A06900F0004028B91F480068C06AC0F1B5
:101770000300A061E16A01EB81011D4A02EB8101D6
:101780006069884201D1012000E0002050B3201D93
:10179000FEF759FD78B9E06A00EB8000144951F872
:1017A000200040B994F82C10012088400F490968A6
:1017B00081430E4801600C480068C06AE06294F8FA
:1017C0002C1001208840094909680843074908602E
:1017D000E16A01EB8101064A02EB8100211DFEF75F
:1017E0000CFD2AE025E031E0000000201800002078
:1017F000BC00002004ED00E03800002020010020A3
:1018000034010020100000200C00002034000020D3
:1018100049444C45000000000F150008300000202E
:101820001C000020140000202400002028000020BC
:1018300005E0FD480068C06AE062012606E0FA495A
:10184000606C0968C96A884200D20126304670BDC2
:1018500070B505462C460026ADB3A06C401EA064B2
:10186000616CE06A88422ED0A06C60BB201DFEF740
:10187000EAFC78B9E06A00EB8000EC4951F82000FE
:1018800040B994F82C1001208840E9490968814347
:10189000E7480160606CE062E06AC0F10300A061AB
:1018A00094F82C1001208840E14909680843E04978
:1018B0000860E16A01EB8101DC4A02EB8100211D35
:1018C000FEF79BFC0126304670BD2DE9F047064629
:1018D0000F4634464FF00109002E47D0606CB842E5
:1018E00001D23D4600E0656CE06AA8423ED0A06CA3
:1018F00001283BD1D4F82C80E562A06900F00040BB
:1019000010B9C5F10300A06108EB8801C74A02EBDA
:1019100081016069884201D1012000E0002028B3E4
:10192000201DFEF790FC78B9E06A00EB8000BF490B
:1019300051F8200040B994F82C1001208840BC498F
:1019400009688143BA48016094F82C10012088404E
:10195000B74909680843B6490860E16A01EB8101AB
:10196000B24A02EB8100211DFEF747FCBDE8F0877B
:10197000AD4909688869AC490968C96AC1F10301C0
:10198000A94A126891617047A748006830B1A6491A
:10199000096801F14800896C491C0160A24800688F
:1019A000704770B506460D4600F008FA9E4800687C
:1019B000C06C88B901209C49096881F850005DB16C
:1019C00001212846FFF72FFB4FF08050994908600E
:1019D000BFF34F8FBFF36F8F00F0FFF900F0EEF908
:1019E00091480068C46C4CB126B100208E4909684A
:1019F000C86403E0601E8C490968C86400208A49F5
:101A0000096881F8500000F0E8F9204670BD2DE922
:101A1000F0410746884614461D4600F0CFF982483B
:101A2000006890F85000022818D07F49096801F139
:101A30004C00C96CB943016001207B49096881F8F9
:101A400050005DB101212846FFF7EDFA4FF08050BC
:101A500078490860BFF34F8FBFF36F8F00F0BDF977
:101A600000F0ACF91CB170480068C06C20606E4892
:101A7000006890F85000022801D0002608E06A496A
:101A8000096801F14C00C96C21EA080101600126D6
:101A900000206549096881F8500000F09EF9304641
:101AA000BDE8F0812DE9F04781460D4616461F46F8
:101AB0004FF0010A4C4600F081F90FB1E06C38603C
:101AC00094F85080022084F85000052E17D2DFE8E9
:101AD00006F01503070B0D00E06C2843E0640EE0F0
:101AE000E06C401CE0640AE0E56408E0B8F1020F35
:101AF00001D0E56401E04FF0000A00E000BF00BF44
:101B0000B8F1010F22D1201DFEF79DFB94F82C1097
:101B10000120884046490968084345490860E16A50
:101B200001EB8101414A02EB8100211DFEF765FBBB
:101B30003D49E06A0968C96A884207D94FF0805078
:101B40003C490860BFF34F8FBFF36F8F00F045F93A
:101B50005046BDE8F0872DE9F84F82460D461646FF
:101B60001F46DDF828B001200090544600BFBF2179
:101B7000EFF3118081F31188BFF34F8FBFF36F8FA5
:101B800000BF81460FB1E06C386094F850800220AD
:101B900084F85000052E17D2DFE806F01503070B76
:101BA0000D00E06C2843E0640EE0E06C401CE06453
:101BB0000AE0E56408E0B8F1020F01D0E56401E055
:101BC0000020009000E000BF00BFB8F1010F3AD143
:101BD00019480068A8B9201DFEF735FB94F82C10B1
:101BE0000120884012490968084311490860E16AE8
:101BF00001EB81010D4A02EB8100211DFEF7FDFA88
:101C000004E004F118010D48FEF7F7FA0649E06A0E
:101C10000968C96A884216D9BBF1000F10D00120AB
:101C2000CBF800000FE0000000000020BC00002006
:101C30001800002004ED00E0380000202001002002
:101C400001203749086000BF89F3118800BF009860
:101C5000BDE8F88F2DE9F04105460E462C4600BF41
:101C6000BF21EFF3118081F31188BFF34F8FBFF3D2
:101C70006F8F00BF074694F85080022084F8500010
:101C8000E06C401CE064B8F1010F2AD125480068DF
:101C9000A8B9201DFEF7D7FA94F82C10012088402F
:101CA00021490968084320490860E16A01EB810184
:101CB0001E4A02EB8100211DFEF79FFA04E004F1A9
:101CC00018011B48FEF799FA1A49E06A0968C96ABF
:101CD000884206D916B10120306002E00120104987
:101CE000086000BF87F3118800BFBDE8F08170B5C0
:101CF000054615B90F48006800E02846064600F082
:101D00005DF896F85000022804D1002086F85000B3
:101D1000012400E0002400F060F8204670BD0000BF
:101D2000240000203800002018000020BC00002003
:101D3000200100200000002000BFBF2080F3118898
:101D4000BFF34F8FBFF36F8F00BF00BFFEE7001FD1
:101D50004FF080730360001F21F001030360001F38
:101D6000314B0360143802602038704700204FF078
:101D7000E021086188612D4800684FF47A71B0FB5A
:101D8000F1F0401E4FF0E0214861072008617047E4
:101D900010B52748006840F47F00254908600846D0
:101DA000006840F07F400860FFF7E0FF0020214915
:101DB0000860FEF7D9F9002010BD704700BFBF20B2
:101DC00080F31188BFF34F8FBFF36F8F00BF1948A7
:101DD0000068401C17490860704716480068401E9C
:101DE000144908600846006820B9002080F3118873
:101DF00000BF00BF704710B500BFBF2080F311883F
:101E0000BFF34F8FBFF36F8F00BFFFF701F820B113
:101E10004FF0805006491C39086000BF002080F355
:101E2000118800BF10BD0000391D000858000020B7
:101E300020ED00E03C000020434A22F00700434A26
:101E400010600022414B5A6044F2F832404B5A6015
:101E500000221A60014644F2F8324A601A460A60CB
:101E600070472DE9F04104464FF00008FFF719F9DB
:101E70003848006820B9FFF7DFFF012035490860C6
:101E800044B1083404F0070020B104F00700C0F1A9
:101E900008000444002C32D044F2F83084422ED2A0
:101EA0002A4F3846056801E02F462D686868A04231
:101EB00002D228680028F7D1254885421FD038680B
:101EC00000F10808286838606868001B102810D9DD
:101ED0002E196868001B70606C6071681B4800E018
:101EE0000068026852688A42FAD30268326006606B
:101EF00000BF194968680968081A17490860FFF7A0
:101F000005F84046BDE8F08170B506463546B6B1E5
:101F1000083D2C46FFF7C5F861680C4800E00068F2
:101F2000026852688A42FAD30268226004600A4951
:101F300060680968084408490860FEF7E7FF70BD5B
:101F40000548006870477047640100204000002089
:101F500048000020540000205000002010B5044626
:101F6000B4F5E06F0BD0B4F5C06F08D0B4F5A06F36
:101F700005D0B4F5806F02D0B4F5407F00D103E006
:101F800063215DA002F0FEF96348204363490860C5
:101F900010BD2DE9F0410446002500270F26E0780A
:101FA00010B1E078012800D103E0752152A002F0C1
:101FB000E9F96078102800DA03E076214EA002F0FB
:101FC000E1F9A078102800DA03E077214AA002F0B6
:101FD000D9F9E07800B35148006800F4E060C0F53A
:101FE000E060050AC5F10407EE40607800FA07F5E5
:101FF000A078304005432D01494822788554207847
:1020000000F01F010120884021784911890001F169
:10201000E021C1F8000109E0207800F01F01012053
:10202000884040492278521141F82200BDE8F081F1
:1020300070B504460D46B4F1005F02D0B4F1006FF4
:1020400000D103E09C212CA002F09CF93648854287
:1020500000D203E09D2128A002F094F9334905EA5B
:10206000010020432D49091F086070BD70B504466A
:102070000D46102C03D0042C01D0022C00D103E01B
:10208000AF211DA002F07EF90DB1012D00D103E0BA
:10209000B02119A002F076F93DB12048001D00687A
:1020A00020431E49091D086006E01C48001D006809
:1020B000A0431A49091D086070BD10B50446042CE0
:1020C00001D0601D00B903E0C4210BA002F05AF951
:1020D000042C08D14FF0E020006940F004004FF0DC
:1020E000E021086107E04FF0E020006920F00400E3
:1020F0004FF0E021086110BD2E2E5C6C69625C73AC
:10210000745F6C69625C66776C69625C7372635C55
:102110006D6973632E6300000000FA050CED00E0AA
:1021200000E400E080E100E0FFFF0F0080FFFF1F00
:102130000CB50020019000906C48006840F480309D
:102140006A49086000BF6948006800F400300090E8
:102150000198401C0190009818B90198B0F5A06F43
:10216000F1D16248006800F4003010B10120009005
:1021700001E0002000900098012843D15C480068ED
:1021800040F010005A4908600846006820F003003B
:1021900008600846006840F0020008605348406844
:1021A000524948600846406848600846406840F424
:1021B000806048600846406820F47C10486008460B
:1021C000406840F4E81048600846006840F08070BD
:1021D000086000BF4548006800F000700028F9D092
:1021E0004248406820F00300404948600846406883
:1021F00040F00200486000BF3C48406800F00C001E
:102200000828F9D10CBD10B5FFF792FF10BD10B52D
:102210003648006840F001003449086008464068CC
:10222000344908403149486008460068324908404E
:102230002E4908600846006820F48020086008469F
:10224000406820F4FE0048604FF41F008860FFF7EC
:10225000DAFF4FF000602949086010BD10B5002179
:1022600000200022214B5B6803F00C0121B10429FE
:1022700006D0082928D107E0214B224C236027E013
:102280001F4B204C236023E0184B5B6803F4701055
:10229000164B5B6803F48032022303EB904022B9B3
:1022A000194B4343174C23600DE0104B5B6803F45C
:1022B000003323B1144B4343124C236003E0104B13
:1022C0004343104C236003E00D4B0E4C236000BFD2
:1022D00000BF064B5B68C3F303130C4CE15C094B76
:1022E0001B68CB40074C236010BD0000001002406B
:1022F000002002400000FFF8FFFFF6FE08ED00E0BE
:1023000000127A005800002000093D005C00002007
:1023100010B50446FC48844211D0FC4884420ED0DB
:10232000FB4884420BD0FB48844208D0FA488442E0
:1023300005D0FA48844202D0F948844200D103E033
:102340006F21F8A002F01EF8EF48844208D1012165
:10235000042001F05AF80021042001F056F846E06C
:10236000EA48844208D10121082001F04EF80021FA
:10237000082001F04AF83AE0E548844208D10121FA
:10238000102001F042F80021102001F03EF82EE06C
:10239000E048844208D10121202001F036F80021D4
:1023A000202001F032F822E0DB48844208D10121EC
:1023B000402001F02AF80021402001F026F816E024
:1023C000D648844208D10121802001F01EF8002166
:1023D000802001F01AF80AE0D148844207D1012197
:1023E000801501F012F80021A01501F00EF810BDC3
:1023F00010B50121084601F008F80021012001F084
:1024000004F810BD2DE9F05F05460C464FF00009B9
:10241000CA4600260027B046B346BB48854211D0C5
:10242000BA4885420ED0BA4885420BD0B948854299
:1024300008D0B948854205D0B848854202D0B8488E
:10244000854200D103E0A421B6A001F09BFFE07813
:10245000A0B1E078042811D0E07828280ED0E078E8
:1024600048280BD0E078142808D0E078102805D050
:10247000E0781C2802D0E078182800D103E0A521DC
:10248000A8A001F07FFF002010B9208800B103E070
:10249000A621A4A001F076FFE07800F00F09E07813
:1024A00000F0100080B1A078012805D0A0780228A3
:1024B00002D0A078032800D103E0AC2199A001F05C
:1024C00061FFA07840EA0909207838B3D5F8008088
:1024D00000261FE0012000FA06F7208800EA070A1C
:1024E000BA4516D1B7000F2000FA07FB28EA0B08FF
:1024F00009FA07F040EA0808E078282803D101200B
:10250000B040686105E0E078482802D10120B04081
:102510002861761C082EDDD3C5F800802088FF28AE
:102520002BDDD5F80480002623E006F10800012108
:1025300001FA00F7208800EA070ABA4518D1B70067
:102540000F2000FA07FB28EA0B0809FA07F040EA17
:102550000808E078282803D106F108008140696165
:10256000E078482804D106F1080001218140296162
:10257000761C082ED9D3C5F80480BDE8F09F4FF62D
:10258000FF710180022181700421C170704770B514
:1025900005460C4600265C48854211D05B488542C2
:1025A0000ED05B4885420BD05A48854208D05A4825
:1025B000854205D05948854202D05948854200D10C
:1025C00004E040F2031157A001F0DCFE012C25D0FD
:1025D000022C23D0042C21D0082C1FD0102C1DD06D
:1025E000202C1BD0402C19D0802C17D0B4F5807F24
:1025F00014D0B4F5007F11D0B4F5806F0ED0B4F5CF
:10260000006F0BD0B4F5805F08D0B4F5005F05D043
:10261000B4F5804F02D0B4F5004F00D104E04FF480
:10262000827140A001F0AEFEA868204008B10126EA
:1026300000E00026304670BD10B5044632488442A2
:1026400011D0324884420ED0314884420BD03148F8
:10265000844208D03048844205D03048844202D0B9
:102660002F48844200D104E04FF48B712DA001F07B
:1026700089FEA06880B210BD70B505460C460026E4
:102680002148854211D0214885420ED020488542FC
:102690000BD02048854208D01F48854205D01F48EE
:1026A000854202D01E48854200D104E04FF4937168
:1026B0001CA001F067FE012C25D0022C23D0042C95
:1026C00021D0082C1FD0102C1DD0202C1BD0402C2A
:1026D00019D0802C17D0B4F5807F14D0B4F5007FCA
:1026E00011D0B4F5806F0ED0B4F5006F0BD0B4F5F7
:1026F000805F08D0B4F5005F05D0B4F5804F02D0FC
:10270000B4F5004F24D129E000080140000C01403D
:10271000001001400014014000180140001C01405D
:10272000002001402E2E5C6C69625C73745F6C69E2
:10273000625C66776C69625C7372635C73746D3340
:1027400032663130785F6770696F2E630000000079
:1027500040F22711AFF2340001F014FEE868204087
:1027600008B1012600E00026304670BD10B50446D1
:10277000FE48844211D0FE4884420ED0FD48844277
:102780000BD0FD48844208D0FC48844205D0FC4868
:10279000844202D0FB48844200D105E040F2391166
:1027A000AFF2800001F0EEFDE06880B210BD70B5C0
:1027B00004460D46ED48844211D0ED4884420ED0C7
:1027C000EC4884420BD0EC48844208D0EB48844269
:1027D00005D0EB48844202D0EA48844200D105E0AB
:1027E0004FF4A471AFF2C40001F0CCFD002008B991
:1027F00005B105E040F24911AFF2D80001F0C2FD89
:10280000256170BD70B504460D46D848844211D08C
:10281000D74884420ED0D74884420BD0D648844251
:1028200008D0D648844205D0D548844202D0D54845
:10283000844200D105E04FF4AC71AFF2181001F002
:10284000A1FD002008B905B105E040F25911AFF231
:102850002C1001F097FD656170BD70B505460C4602
:102860001646C248854211D0C14885420ED0C148A3
:1028700085420BD0C048854208D0C048854205D06B
:10288000BF48854202D0BF48854200D105E04FF4E1
:10289000B671AFF2701001F075FD012C25D0022C3D
:1028A00023D0042C21D0082C1FD0102C1DD0202C7C
:1028B0001BD0402C19D0802C17D0B4F5807F14D0B9
:1028C000B4F5007F11D0B4F5806F0ED0B4F5006F71
:1028D0000BD0B4F5805F08D0B4F5005F05D0B4F537
:1028E000804F02D0B4F5004F00D105E040F26D11E9
:1028F000AFF2D01001F046FD0EB1012E00D105E07F
:102900004FF4B771AFF2E41001F03CFD0EB12C6151
:1029100000E06C6170BD70B504460D46934884427A
:1029200011D0934884420ED0924884420BD09248F2
:10293000844208D09148844205D09148844202D014
:102940009048844200D105E04FF4C071AFF22C20D2
:1029500001F018FDE56070BD70B504460D464FF4FA
:1029600080368248844211D0814884420ED081480A
:1029700084420BD08048844208D08048844205D0ED
:102980007F48844202D07F48844200D105E040F273
:102990009111AFF2702001F0F5FC002008B905B1EB
:1029A00005E04FF4C971AFF2842001F0EBFC2E4337
:1029B000A661A561A661A669A66970BD70B5054648
:1029C0000C4600263DB1012D05D0022D03D0032D6C
:1029D00001D0042D00D105E04FF4D771AFF2BC2037
:1029E00001F0D0FCECB1012C1BD0022C19D0032C2F
:1029F00017D0042C15D0052C13D0062C11D0072C81
:102A00000FD0082C0DD0092C0BD00A2C09D00B2C80
:102A100007D00C2C05D00D2C03D00E2C01D00F2C80
:102A200000D105E040F2AF11AFF2083001F0AAFC8E
:102A3000554806684FF68070064046EA051626435C
:102A40005148066070BD10B504460CB1012C00D190
:102A500005E04FF4E171AFF2343001F093FC4B48E4
:102A6000C46110BD2DE9F04704460E460027B84664
:102A70000025A946012C77D0022C75D0042C73D0E8
:102A8000082C71D0424884426ED0414820308442A4
:102A90006AD04048844267D03E488030844263D048
:102AA0003D48844260D03D4884425DD03C488442E9
:102AB0005AD03C48844257D03B48844254D0B4F565
:102AC000805F51D0B4F5EA1F4ED0B4F5EB1F4BD068
:102AD000B4F5004F48D03548844245D0401C84426C
:102AE00042D0801C84427FD0001D84427CD02F487D
:102AF0000F30844278D0B4F1201F75D04FEAF03007
:102B0000844271D02A4884426ED02A4884426BD0D5
:102B10002948844268D02948844265D028488442A4
:102B200062D0B4F5011F5FD0264884425CD0401CBF
:102B3000844259D0801C844256D0001D844253D018
:102B400020480F3084424FD01E481F3084424BD063
:102B50001C483F30844247D01A487F30844243D0DB
:102B60001848FF3084422FE03EE00000000801409A
:102B7000000C014000100140001401400018014009
:102B8000001C0140002001400000014000002042E4
:102B90001000140040001600000118000002180088
:102BA0000003180000081A00000C1A0001002000A1
:102BB000000130000002300000043000001120004D
:102BC00000202000010000800ED0664884420BD017
:102BD0006548844208D06548844205D064488442F0
:102BE00002D06448844200D105E040F20621AFF2F1
:102BF000CC4001F0C7FB0EB1012E00D105E040F240
:102C00000721AFF2E04001F0BDFB04F00040B0F15D
:102C1000004F02D15848C56901E057484568C4F3E0
:102C20000349A7B204F44010B0F5401F08D125F0C5
:102C300070655148406820F070604F49486013E06B
:102C400004F48010B0F5801F07D1032000FA09F8C2
:102C500025EA080545F0706506E0600D000107FAF9
:102C600000F0854345F0706526B1600D010107FA5B
:102C700001F0054304F00040B0F1004F02D13E489E
:102C8000C56101E03C484560BDE8F08770B5054688
:102C90000C4600265DB1012D09D0022D07D0032D71
:102CA00005D0042D03D0052D01D0062D00D105E05F
:102CB00040F23521AFF2945001F064FBECB1012CED
:102CC0001BD0022C19D0032C17D0042C15D0052CA6
:102CD00013D0062C11D0072C0FD0082C0DD0092CA6
:102CE0000BD00A2C09D00B2C07D00C2C05D00D2CA6
:102CF00003D00E2C01D00F2C00D105E040F236217C
:102D0000AFF2E05001F03EFBA007010F0F2000FAE8
:102D100001F619480830A11050F82100B0431649B7
:102D20000831A21041F822000846A11050F82100F5
:102D3000A107090F05FA01F108430F490831A21054
:102D400041F8220070BD10B504460CB1012C00D131
:102D500005E04FF41271AFF2346001F013FB074845
:102D6000046010BD000200800004008000080080A4
:102D7000001000800020008000000140DC002042A4
:102D8000FE48006840F00100FC49086008464068C1
:102D9000FB490840F949486008460068F94908407D
:102DA000F64908600846006820F48020086008465C
:102DB000406820F4FE0048604FF41F0088607047B0
:102DC00010B504462CB1B4F5803F02D0B4F5802F85
:102DD00000D104E040F21111EBA001F0D3FAE74872
:102DE000006820F48030E54908600846006820F457
:102DF00080200860B4F5803F03D0B4F5802F0ED159
:102E000006E0DE48006840F48030DC49086007E0F6
:102E1000DA48006840F4A020D849086000E000BF0C
:102E200000BF10BD2DE9F041044600250026002713
:102E3000212C13D0312C11D0392C0FD0412C0DD096
:102E4000612C0BD07A2C09D07B2C07D07C2C05D0A0
:102E50007D2C03D07E2C01D07F2C00D104E04FF4D8
:102E6000A261C9A001F08EFA6511012D02D1C348FB
:102E7000066806E0022D02D1C048066A01E0BF489C
:102E8000466A04F01F050120A840304008B1012720
:102E900000E000273846BDE8F08138B500200090FA
:102EA0000024002500BF3120FFF7BCFF0546009835
:102EB000401C00900098B0F5A06F01D0002DF2D01A
:102EC0003120FFF7AFFF08B1012400E000242046C5
:102ED00038BD70B5044600251F2C00DC04E040F22C
:102EE0004D11A9A001F04EFAA448056825F0F80597
:102EF00045EAC405056070BD10B504460CB1012C4F
:102F000000D104E04FF4B0719FA001F03BFAA84853
:102F1000046010BD70B505460C4600262DB1B5F510
:102F2000803F02D0B5F5403F00D104E04FF4BD71C1
:102F300095A001F027FA4CB3B4F5802F26D0B4F554
:102F4000002F23D0B4F5402F20D0B4F5801F1DD022
:102F5000B4F5A01F1AD0B4F5C01F17D0B4F5E01F08
:102F600014D0B4F5001F11D0B4F5101F0ED0B4F575
:102F7000201F0BD0B4F5301F08D0B4F5401F05D08A
:102F8000B4F5501F02D0B4F5601F00D104E040F248
:102F90007B117DA001F0F6F97848466826F47C168E
:102FA00045EA040006437548466070BD10B5044606
:102FB0000CB1012C00D104E040F28F1172A001F09D
:102FC000E1F97B48046610BD70B5044600251CB1CC
:102FD000012C01D0022C00D104E040F233216AA080
:102FE00001F0D0F96548456825F0030525434560A3
:102FF00070BD6248406800F00C00704770B5044630
:1030000000257CB1802C0DD0902C0BD0A02C09D0A9
:10301000B02C07D0C02C05D0D02C03D0E02C01D090
:10302000F02C00D104E040F25F2157A001F0AAF992
:103030005248456825F0F0052543456070BD70B5E0
:10304000044600255CB1B4F5806F08D0B4F5A06FDC
:1030500005D0B4F5C06F02D0B4F5E06F00D104E044
:1030600040F2792148A001F08DF94448456825F4E3
:10307000E0652543456070BD70B5044600255CB130
:10308000B4F5806F08D0B4F5A06F05D0B4F5C06F6B
:1030900002D0B4F5E06F00D104E040F293213AA0F1
:1030A00001F070F93548456825F4605545EAC405D6
:1030B000456070BD70B504460D4604F0E00008B9E7
:1030C00004B104E040F2BA212FA001F05BF90DB188
:1030D000012D00D104E040F2BB212BA001F052F9F8
:1030E0002DB12648407A20432449487204E0234801
:1030F000407AA0432149487270BD10B504460CB116
:10310000012C00D104E040F2D3211FA001F03AF9D4
:103110002748D830046010BD70B50446002544B17E
:10312000B4F5804F05D0B4F5004F02D0B4F5404F50
:1031300000D104E040F2FA2113A001F023F90F4876
:10314000456825F440452543456070BD10B50446EB
:103150001CB1012C01D0042C00D104E04FF44E71BD
:1031600009A001F00FF9002004492031087003493B
:1031700081F82000012C1FD0042C1BE0001002401D
:103180000000FFF8FFFFF6FE2E2E5C6C69625C7398
:10319000745F6C69625C66776C69625C7372635CB5
:1031A00073746D3332663130785F7263632E6300FF
:1031B0000000424208D103E00120F449087004E015
:1031C0000520F249087000E000BF00BF10BD10B537
:1031D00004460CB1012C00D105E04FF45671AFF25A
:1031E000580001F0CFF8EA48046010BD10B504465D
:1031F000B4F5807F05D0B4F5007F02D0B4F5407FF0
:1032000000D105E040F26931AFF2840001F0BAF874
:10321000DE482038006A2043DC492039086210BDAE
:1032200010B504460CB1012C00D105E040F2773115
:10323000AFF2AC0001F0A6F8D5484438046010BDE8
:1032400030B50021002200240023D04D203D6D68C0
:1032500005F00C0121B1042905D0082926D105E08B
:10326000CC4D056025E0CB4D056022E0C74D203DEB
:103270006D6805F47012C54D203D6D6805F480340D
:10328000022505EB92421CB9C34D554305600CE085
:10329000BE4D203D6D6805F400351DB1BE4D554352
:1032A000056002E0BB4D5543056002E0B94D056085
:1032B00000BF00BFB54D203D6D6805F0F001090964
:1032C000B64D6B5C0568DD404560B04D203D6D68D6
:1032D00005F4E061090AB14D6B5C4568DD4085602D
:1032E000AA4D203D6D6805F46051C90AAB4D6B5C79
:1032F0004568DD40C560A54D203D6D6805F4404141
:10330000890BA74D6B5CC568B5FBF3F5056130BD56
:1033100070B504460D4640F2575024EA000008B943
:1033200004B105E040F21941AFF2A41001F02AF80F
:103330000DB1012D00D105E040F21A41AFF2B810F5
:1033400001F020F83DB191482038406920438F4971
:103350002039486106E08D4820384069A0438B49F8
:103360002039486170BD70B504460D468D48204037
:1033700008B904B105E040F23541AFF2F41001F0B4
:1033800001F80DB1012D00D105E040F23641AFF258
:10339000082000F0F7FF3DB17C48203880692043C9
:1033A0007A492039886106E0784820388069A0434E
:1033B00076492039886170BD70B504460D467A485B
:1033C000204008B904B105E040F25141AFF2482075
:1033D00000F0D8FF0DB1012D00D105E040F25241BF
:1033E000AFF25C2000F0CEFF3DB168482038C069E4
:1033F000204366492039C86106E064482038C06926
:10340000A04362492039C86170BD70B504460D46BD
:103410006448204008B904B105E040F28641AFF2AB
:10342000982000F0AFFF0DB1012D00D105E040F272
:103430008741AFF2AC2000F0A5FF3DB153482038E2
:10344000C068204351492039C86006E04F48203801
:10345000C068A0434D492039C86070BD70B50446AE
:103460000D465148204008B904B105E040F2A241A0
:10347000AFF2EC2000F086FF0DB1012D00D105E088
:1034800040F2A341AFF2003000F07CFF3DB13F4875
:103490002038006920433D492039086106E03B4857
:1034A00020380069A04339492039086170BD10B542
:1034B00004460CB1012C00D105E040F2B441AFF25A
:1034C000383000F05FFF32484038046010BD10B55E
:1034D00004460CB1012C00D105E040F2C141AFF22D
:1034E000583000F04FFF3148C46410BD10B5044699
:1034F0003CB1052C05D0042C03D0062C01D0072CA0
:1035000000D105E040F2E141AFF2843000F03AFF33
:103510001E482038C47110BD1C482038406A40F055
:1035200080701A4920394862704770B504460025FA
:10353000012C09D0022C07D0042C05D0082C03D074
:10354000102C01D0802C00D105E040F25251AFF296
:10355000C83000F017FF0D4820388068204008B1BF
:10356000012500E00025284670BD10B5044604F092
:10357000600008B904B105E040F27C51AFF2F830C8
:1035800000F000FF01482038847210BD2010024076
:103590008004424200127A0000093D006C000020C5
:1035A0007C0000200200C0FF003601810000424282
:1035B00010B50446FE4884420BD0FE48844208D031
:1035C000FD48844205D0FD48844202D0FC48844234
:1035D00000D103E08521FBA000F0D4FEF448844232
:1035E00009D101218803FFF710FF00214FF480402B
:1035F000FFF70BFF32E0EF48844209D10121480474
:10360000FFF72CFF00214FF40030FFF727FF25E0E4
:10361000E948844209D101218804FFF71FFF0021F6
:103620004FF48020FFF71AFF18E0E448844209D1E4
:103630000121C804FFF712FF00214FF40020FFF71B
:103640000DFF0BE0DE48844208D101210805FFF799
:1036500005FF00214FF48010FFF700FF10BD2DE99A
:10366000F04786B005460C460026B24600BFB1467C
:103670000027CF4885420BD0CE48854208D0CE489F
:10368000854205D0CD48854202D0CD48854200D143
:1036900003E0AE21CBA000F075FE206820B1D44934
:1036A0002068884200D203E0AF21C6A000F06AFE85
:1036B000A08818B1A088B0F5805F00D103E0B021E8
:1036C000C0A000F05FFEE08858B1E088B0F5805FF0
:1036D00007D0E088B0F5005F03D0E088B0F5405F28
:1036E00000D103E0B121B7A000F04CFE208938B131
:1036F0002089B0F5806F03D02089B0F5C06F00D16C
:1037000003E0B221AFA000F03DFE60894FF6F371F7
:10371000084010B9608900B103E0B321A9A000F00E
:1037200031FEA08958B1A089B0F5807F07D0A0896B
:10373000B0F5007F03D0A089B0F5407F00D103E051
:10374000B421A0A000F01EFEA08968B1984885426F
:1037500005D09848854202D09748854200D103E0C1
:10376000B72198A000F00EFE2F462E8A4CF6FF706F
:103770000640E08806432E82AE894EF6F3100640DE
:10378000A08821890843618908430643AE81AE8A37
:103790004FF6FF400640A0890643AE8201A8FFF71E
:1037A0004FFD8348874202D1DDF810A001E0DDF82B
:1037B0000CA0A88900F4004040B10AEBCA0000EB5D
:1037C0000A1021684900B0FBF1F807E00AEBCA00D3
:1037D00000EB0A1021688900B0FBF1F86420B8FB07
:1037E000F0F006013009642101FB1089A88900F47A
:1037F000004040B1322000EBC900B0FBF1F000F016
:103800000700064308E0322000EB09106421B0FBFA
:10381000F1F000F00F0006432E8106B0BDE8F087FE
:103820004FF41651016000218180C18001810C217B
:10383000418100218181704770B505460C46002604
:103840005B48854205D05B48854202D05A48854294
:1038500000D104E04FF48F715AA000F093FD20884E
:1038600018B12088B0F5006F00D104E040F21F11BC
:1038700054A000F087FD608818B16088B0F5806FB3
:1038800000D104E04FF490714EA000F07BFDA088C1
:1038900018B1A088B0F5007F00D104E040F22111FA
:1038A00048A000F06FFDE08818B1E088B0F5807F97
:1038B00000D104E04FF4917142A000F063FD2E8A24
:1038C0004FF2FF000640208861880843A188084322
:1038D000E188084306432E8270BD002101804180AB
:1038E0008180C180704770B504460D4630488442DF
:1038F0000BD03048844208D02F48844205D02F484E
:10390000844202D02E48844200D104E04FF4A771D3
:103910002CA000F037FD0DB1012D00D104E040F2E4
:103920004F1128A000F02EFD25B1A08940F40050D1
:10393000A08104E0A0894DF6FF710840A08170BD10
:103940002DE9F04705460C4617464FF00008C246E1
:10395000C1460026164885420BD01648854208D03D
:103960001548854205D01548854202D01448854245
:1039700000D104E04FF4B97112A000F003FD282C2F
:103980003CD040F22770844238D040F22660844216
:1039900034D040F22550844230D040F2244084425A
:1039A0002CD040F64600844228D040F66A1021E030
:1039B000003801400044004000480040004C0040F6
:1039C000005000402E2E5C6C69625C73745F6C6901
:1039D000625C66776C69625C7372635C73746D338E
:1039E00032663130785F75736172742E6300000047
:1039F00021AA4400844201D0602C00D105E040F2AD
:103A00007311AFF2400000F0BDFC0FB1012F00D1E7
:103A100005E04FF4BA71AFF2540000F0B3FC40F689
:103A20006A1084420FD1F948854205D0F848854292
:103A300002D0F848854200D105E040F27711AFF29C
:103A40007C0000F09FFC2E46C4F3421804F01F0ACD
:103A5000012000FA0AF9B8F1010F01D10C3605E096
:103A6000B8F1020F01D1103600E0143627B13068EA
:103A700040EA0900306003E0306820EA0900306065
:103A8000BDE8F08770B504460D461646DF4884420F
:103A90000BD0DF48844208D0DE48844205D0DE489F
:103AA000844202D0DD48844200D105E040F2A311F7
:103AB000AFF2F00000F066FC4FF63F70284008B906
:103AC00005B105E04FF4D271AFF2081000F05AFCD6
:103AD0000EB1012E00D105E040F2A511AFF21C108D
:103AE00000F050FC1EB1A08A2843A08202E0A08A08
:103AF000A843A08270BD70B504460D46C3488442F9
:103B00000BD0C348844208D0C248844205D0C24882
:103B1000844202D0C148844200D105E04FF4DE71F6
:103B2000AFF2601000F02EFC0F2D00DC05E040F23B
:103B3000BD11AFF2701000F025FC208A4FF6F07135
:103B400008402082208A2843208270BD70B5044638
:103B50000D46AE4884420BD0AD48844208D0AD48F3
:103B6000844205D0AC48844202D0AC48844200D1A3
:103B700005E040F2D311AFF2B41000F003FC15B130
:103B8000B5F5006F00D105E04FF4EA71AFF2CC104B
:103B900000F0F8FBA0894FF2FF710840A081A089D6
:103BA0002843A08170BD70B504460D4697488442F5
:103BB0000BD09748844208D09648844205D0964856
:103BC000844202D09548844200D105E04FF4F3715D
:103BD000AFF2102000F0D6FB0DB1012D00D105E0B1
:103BE00040F2E711AFF2242000F0CCFB25B1A08910
:103BF00040F00200A08104E0A0894FF6FD7108406A
:103C0000A08170BD70B504460D46804884420BD03B
:103C10007F48844208D07F48844205D07E48844251
:103C200002D07E48844200D105E04FF40071AFF22B
:103C30006C2000F0A7FB0DB1202D00D105E040F273
:103C40000121AFF2802000F09DFB208A4FF6DF714A
:103C500008402082208A2843208270BD70B5044627
:103C60000D466A4884420BD06948844208D06948AE
:103C7000844205D06848844202D06848844200D11A
:103C800005E040F21321AFF2C42000F07BFB0DB140
:103C9000012D00D105E04FF40571AFF2D82000F0FE
:103CA00071FB25B1208A40F48040208204E0208A04
:103CB0004BF6FF710840208270BD70B504460D467A
:103CC000524884420BD05248844208D05148844222
:103CD00005D05148844202D05048844200D105E0CA
:103CE00040F22A21AFF2243000F04CFBB5F5007F02
:103CF00000DA05E040F22B21AFF2383000F042FB51
:103D0000C5F30800A08070BD10B504463F4884424A
:103D10000BD03F48844208D03E48844205D03E48FC
:103D2000844202D03D48844200D105E040F23B216C
:103D3000AFF2703000F026FBA088C0F3080010BD81
:103D400010B50446314884420BD03148844208D033
:103D50003048844205D03048844202D02F48844203
:103D600000D105E040F24B21AFF2A83000F00AFB91
:103D7000A08940F00100A08110BD70B504460D4639
:103D80002248844205D02248844202D021488442FD
:103D900000D105E040F25B21AFF2D83000F0F2FA3A
:103DA000208BC0B22083208B40EA0520208370BD89
:103DB00070B504460D46154884420BD01448844221
:103DC00008D01448844205D01348844202D01348D6
:103DD000844200D105E040F26F21AFF2184000F0BC
:103DE000D1FA208B00F47F402083208B284320834E
:103DF00070BD70B504460D460448844205D00448A1
:103E0000844202D0034884420AD10FE000380140C6
:103E10000044004000480040004C0040005000407A
:103E200040F28221AFF2644000F0ACFA0DB1012DF6
:103E300000D105E040F28321AFF2784000F0A2FA11
:103E400025B1A08A40F02000A08204E0A08A4FF6AD
:103E5000DF710840A08270BD70B504460D46F94878
:103E6000844205D0F848844202D0F848844200D108
:103E700005E04FF42671AFF2B44000F083FA0DB1C3
:103E8000012D00D105E040F29921AFF2C84000F0C9
:103E900079FA25B1A08A40F01000A08204E0A08A3F
:103EA0004FF6EF710840A08270BD70B504460D4614
:103EB000E44884420BD0E448844208D0E34884427A
:103EC00005D0E348844202D0E248844200D105E0B4
:103ED00040F2AF21AFF2145000F054FA0DB1012DB1
:103EE00000D105E04FF42C71AFF2285000F04AFAEF
:103EF00025B1A08A40F00800A08204E0A08A4FF615
:103F0000F7710840A08270BD70B504460D46CD48DB
:103F100084420BD0CC48844208D0CC48844205D09F
:103F2000CB48844202D0CB48844200D105E040F225
:103F3000CB21AFF2705000F025FA0DB1012D00D168
:103F400005E04FF43371AFF2845000F01BFA25B155
:103F5000A08940F40040A08103E0A089C0F30E00D6
:103F6000A08170BD70B504460D46B64884420BD0A2
:103F7000B548844208D0B548844205D0B44884424C
:103F800002D0B448844200D105E040F2E321AFF210
:103F9000CC5000F0F7F90DB1012D00D105E04FF440
:103FA0003971AFF2E05000F0EDF925B1A08A40F48C
:103FB0000060A08204E0A08A4FF2FF710840A08256
:103FC00070BD70B504460D469E4884420BD09E4895
:103FD000844208D09D48844205D09D48844202D046
:103FE0009C48844200D105E040F2FD21AFF22C60F4
:103FF00000F0C8F9042D00D005B905E040F2FE211B
:10400000AFF2406000F0BEF9A08A4FF6FB710840A5
:10401000A082A08A2843A08270BD70B504460D46D8
:10402000884884420BD08848844208D0874884421C
:1040300005D08748844202D08648844200D105E0FA
:104040004FF44471AFF2846000F09CF90DB1012D82
:1040500000D105E040F21131AFF2986000F092F922
:1040600025B1A08A40F00200A08204E0A08A4FF6A9
:10407000FD710840A08270BD70B505460C46002653
:10408000704885420BD07048854208D06F48854201
:1040900005D06F48854202D06E48854200D105E0C8
:1040A00040F23331AFF2E46000F06CF9012C13D030
:1040B000802C11D0402C0FD0202C0DD0102C0BD0E8
:1040C000B4F5807F08D0B4F5007F05D0082C03D06C
:1040D000042C01D0022C00D105E04FF44D71AFF259
:1040E0001C7000F04FF9B4F5007F0FD155488542A0
:1040F00005D05548854202D05448854200D105E09C
:1041000040F23731AFF2447000F03CF9288820408B
:1041100008B1012600E00026304670BD70B50446A7
:104120000D46484884420BD04748844208D047484F
:10413000844205D04648844202D04648844200D199
:1041400005E040F25F31AFF2847000F01BF94FF6EA
:104150009F40284008B905B105E04FF45871AFF20F
:104160009C7000F00FF905F40070B0F5007F0FD1DE
:104170003448844205D03448844202D033488442D3
:1041800000D105E040F26331AFF2C87000F0FAF8F8
:10419000E843208070BD2DE9F04705460C46002716
:1041A0000026B046B146274885420BD026488542B6
:1041B00008D02648854205D02548854202D02548AA
:1041C000854200D105E040F28131AFF6080000F0F1
:1041D000D9F8282C20D040F2277084421CD040F21D
:1041E0002660844218D040F22550844214D040F218
:1041F0002440844210D040F6460084420CD040F661
:104200006A10844208D0B4F5587F05D0B4F5187F01
:1042100002D0B4F5B07F00D105E040F28231AFF6B4
:104220005C0000F0AFF840F66A1084421AD10548ED
:10423000854205D00448854202D0044885420BD10E
:1042400010E00000003801400044004000480040F9
:10425000004C00400050004040F28531AFF69C0019
:1042600000F090F8C4F3421804F01F06012000FA91
:1042700006F6B8F1010F02D1A889064007E0B8F1AF
:10428000020F02D1288A064001E0A88A06402712C0
:10429000012000FA07F7288807401EB117B14FF038
:1042A000010901E04FF000094846BDE8F0872DE91B
:1042B000F04104460D4600260027244884420BD0D6
:1042C0002348844208D02348844205D022488442AF
:1042D00002D02248844200D105E040F2C131AFF65D
:1042E0001C1000F04FF840F2266085420BD040F2DF
:1042F0002550854207D040F64600854203D040F65F
:104300006A10854200D105E040F2C231AFF64C1090
:1043100000F038F840F66A1085420FD10B4884420D
:1043200005D00B48844202D00A48844200D105E0FF
:1043300040F2C531AFF6741000F024F82E120120BF
:10434000B04087B2F8432080BDE8F08100380140DA
:104350000044004000480040004C00400050004035
:104360000648804706480047FEE7FEE7FEE7FEE70F
:10437000FEE7FEE7FEE7FEE7FEE7FEE70F220008A6
:1043800031010008704710B500F0E0F8002201216B
:104390004FF4165000F02AF900F09EF910BD3EB51A
:1043A000044600200290FFF7EEFF02A8032100233D
:1043B0004FF48072CDE9001046A14A48FCF787FC13
:1043C00002A8032100234FF48072CDE9001046A11A
:1043D0004A48FCF77CFC02A802210023CA01CDE96F
:1043E000001047A14A48FCF772FC0020FCF7BDFC16
:1043F0003EBD0EB50020029002A8032100234FF419
:104400008072CDE9001043A1AFF26D00FCF75FFCB4
:10441000029810B90298FCF7A8FC0EBD10B54048F0
:104420000068401C3E49086000F001FC00F065FA9D
:104430003B4800684FF47A71B0FBF1F201FB1200C7
:1044400078BB00BF3748007840B14FF40051364880
:10445000FEF7ADF900203349087007E04FF4005132
:104460003148FEF7CFF901202E49087000BF2F48D0
:104470000078B0B100202D49087000BF2C480078AA
:1044800038B101212B48FEF792F900202849087025
:1044900006E001212748FEF7B5F9012024490870FC
:1044A00000BF10BD1E480068704786B0012140F271
:1044B000FD10FEF758FF4FF44070FDF74FFD01A8C7
:1044C000FEF7BEFEFFF795FFFDF731F800E000BFF5
:1044D000FDE700007461736B5F3438355F73656EA0
:1044E00064000000615800087461736B5F343835F4
:1044F0005F7265636569766500000000AB4F000878
:104500007461736B5F3438355F706F6C6C000000E2
:10451000974F0008696E69745F7461736B000000E7
:104520008000002084000020001401409A00002038
:104530008500002000080140704700BFFEE700BF73
:10454000FEE700BFFEE700BFFEE7704708B54FF487
:104550000050ADF8000003208DF8020010208DF807
:10456000030069460848FDF74DFF0120ADF8000043
:1045700003208DF8020010208DF8030069460348DF
:10458000FDF740FF08BD0000001401400008014095
:1045900006E0052100BF0A00A1F1010399B2FAD19A
:1045A0000200A0F1010398B2F3D170478E2000BF42
:1045B000411EC9B20800FBD17047002000BF01E0D6
:1045C000411CC8B22128FBDB7047002107E04FF4F3
:1045D000FA5100BF0A00A1F1010399B2FAD1020019
:1045E000A0F1010398B2F2D17047000070B586B017
:1045F00006460C46154601218803FEF7B4FE4FF42B
:104600000070ADF8140018208DF8170003208DF805
:10461000160005A92D48FDF7F5FE4FF48060ADF8B2
:10462000140048208DF8170005A92848FDF7EAFE78
:1046300001960020ADF80800ADF80A00ADF80C00B6
:10464000ADF810000C20ADF80E0001A92048FFF7CE
:1046500006F825208DF800008DF801408DF80250F5
:1046600001208DF803006846FDF793FC012240F21B
:1046700025511748FFF764F901211548FFF733F971
:1046800040211348FFF74AFD06B070BD10B504463F
:1046900021460F48FFF711FB00BF80210C48FFF7B0
:1046A000EBFC0028F9D010BD10B540F225510848A8
:1046B000FFF771FD40B10648FFF726FB054908707A
:1046C0000846007800F0E1F910BD00000008014044
:1046D000003801408600002008B501215748FEF748
:1046E000C1F903208DF802004FF40140ADF800003D
:1046F00010208DF8030069465148FDF783FE4FF402
:104700004E70ADF8000010208DF8030069464D484A
:10471000FDF778FE4FF48050ADF8000010208DF8C2
:10472000030069464748FDF76DFEFF20ADF8000025
:1047300010208DF8030069464348FDF763FE41F6FB
:104740000640ADF8000010208DF8030069463F4890
:10475000FDF758FE4FF400713A48FEF753F88021F8
:104760003948FEF74FF808213748FEF74BF84FF469
:1047700080513648FEF746F84FF480713148FEF715
:1047800041F840213048FEF73DF804212E48FEF75D
:1047900039F84FF400612D48FEF734F820212948FC
:1047A000FEF730F820212848FEF72CF80221264891
:1047B000FEF728F84FF480612448FEF723F8102113
:1047C0002048FEF71FF810211F48FEF71BF80121B3
:1047D0001D48FEF717F84FF400411948FEF712F88C
:1047E00008211848FEF70EF84FF48050ADF800008D
:1047F00004208DF8030069461348FDF703FEB0203E
:10480000ADF8000004208DF8030069460C48FDF760
:10481000F9FD0820ADF8000010208DF8030069466E
:104820000B48FDF7EFFD0120ADF8000010208DF8DA
:10483000030069460648FDF7E5FD08BD00023000AB
:1048400000080140000C014000140140001001402C
:104850000018014003460A46002107E0C1EBC100F1
:1048600013F8200000B903E0481CC1B29142F5DB07
:1048700000BF914201DA084670470020FCE77CB592
:1048800004460D460195FD48006808B900207CBD2E
:104890003CB100236A4601A9F8480068FBF789FE8D
:1048A00006E000231A4601A9F4480068FBF7D8FD8A
:1048B0000098ECE770B504460A20FFF786FE4FF437
:1048C0008071EF48FDF773FF0220FFF77EFE0025A1
:1048D00005E0E11C485DFFF7D9FE681CC5B2A07871
:1048E000A842F6DC0220FFF770FE4FF48071E44826
:1048F000FDF788FF0020207070BD70B5E14800888A
:1049000020B1E0480088401EDE490880DE4800787B
:1049100001283DD1DB480088D0BB0020DA4908706F
:104920001E21DA48FFF796FF05460120C5EBC501B9
:10493000D64A02F82100C5EBC500114601EB800004
:10494000C41CD82020700020E070D148007820F0EE
:1049500004006071207861784840A1784840E1788F
:1049600048402179484061794840A1794840E07148
:104970000820C5EBC50102EB81018870C5EBC500BD
:10498000114601EB800631460120FFF778FF00BF9A
:1049900070BD70B5BF48007801284AD11E21BB48C0
:1049A000FFF758FF05460120C5EBC501B74A02F8DD
:1049B0002100C5EBC500114601EB8000C41C41205D
:1049C0002070432060705420A0701120E0700120FE
:1049D00020716071A0710020E07101202072192007
:1049E00060721420A0720020E07230202073082032
:1049F00060733020A0731220E0730620207417200B
:104A000060740F23E21C04F11201481C00F056FFF1
:104A10001420C5EBC5019D4A02EB81018870C5EBEE
:104A2000C500114601EB800631460020FFF727FF45
:104A30002AE098480078022826D11E219348FFF7E3
:104A400009FF04460120C4EBC401904A02F821008A
:104A5000C4EBC400114601EB8000C51C7420287013
:104A6000AA206870DE20A8700320C4EBC40102EB0A
:104A700081018870C4EBC400114601EB8006314609
:104A80000020FFF7FCFE00BF70BD7FB5044601208B
:104A9000814908707F48007801286BD17F48006801
:104AA000C01C7F49097844547D480078401C7C49EB
:104AB00008707A480068C078412802D00020087049
:104AC0007FBD764800680079432803D000207449F0
:104AD0000870F5E7714800684079542803D0002039
:104AE0006F490870ECE76E480078142841DB00201D
:104AF0006B4908700F2369480268921D02A903A838
:104B000000F0DCFE65480068807D9DF80C1088424E
:104B100023D162480068407D9DF8081088421CD16E
:104B200001205E49096808705C49096848705B4863
:104B300001900020009000236A4601A959480068AE
:104B4000FBF737FD009838B14FF0805056490860A8
:104B5000BFF34F8FBFF36F8F00BF14215348FFF790
:104B600079FE0546C5EBC500504901EB80004B4975
:104B700008605AE047480078022856D14748006844
:104B8000C01C47490978445445480078401C4449B2
:104B9000087042480068C078102804DB3F4800686D
:104BA000C078732803DD00203D49087088E73C4841
:104BB0000078032839DB002039490870374800683D
:104BC000C078364909680979484034490968497903
:104BD00088421DD1012031490968087002202F49FF
:104BE000096848702D48039000200290002302AA13
:104BF00003A92C480068FBF7DCFC029838B14FF0A1
:104C0000805029490860BFF34F8FBFF36F8F00BFFB
:104C100014212648FFF71EFE0546C5EBC5002349B3
:104C200001EB80001D49086000BF00BF48E72DE987
:104C3000F05F4FF480511E48FDF7A9FC0546102196
:104C40000F48FDF7A4FC064620210D48FDF79FFC08
:104C5000074680210A48FDF79AFC81464FF0000A7A
:104C60001448007870B3002012490870124805708B
:104C70001248067012480770BDE8F09F8C000020B3
:104C80000008014096000020940000205C450020B0
:104C90009C000020880000209A000020A000002036
:104CA000890000209000002004ED00E0A4480020CE
:104CB00000140140A4000020A5000020A600002050
:104CC000A7000020FFE7FE480078854265D0FC4839
:104CD0000570002D58D10020FA490870FA49088063
:104CE0004FF40071F948FDF762FD4FF48071F74809
:104CF000FDF75DFD2021F548FDF759FD4021F44801
:104D0000FDF755FD2021F248FDF751FD0421F04843
:104D1000FDF74DFD0121EF48FDF749FD1E21EE484D
:104D2000FFF798FD80460120C8EBC801EA4A02F867
:104D30002100C8EBC800114601EB8000C41CD8203C
:104D400020700C20E070012060712078617848406C
:104D5000A1784840E178484021794840617948404D
:104D6000A1794840E0710820C8EBC80102EB81013D
:104D70008870C8EBC800114601EB800B5946012032
:104D8000FFF77DFD824608E0012D06D10120CD49C7
:104D900008704EF66020CC490880CB48008820B1CE
:104DA000C9480088401EC8490880C64800780128C4
:104DB0007ED1C54800880028FAD1C24908704FF456
:104DC0000071C248FDF71EFD8021C148FDF71AFDA4
:104DD0000821BF48FDF716FD4FF48051BF48FDF78D
:104DE00011FD4FF48071B948FDF70CFD4021B84822
:104DF000FDF708FD0421B648FDF704FD4FF40061FE
:104E0000B648FDF7FFFC2021B048FDF7FBFC202150
:104E1000AF48FDF7F7FC0221AD48FDF7F3FC4FF476
:104E20008061AE48FDF7EEFC1021A848FDF7EAFCD2
:104E30001021A748FDF7E6FC0121A548FDF7E2FC9B
:104E40004FF40041A648FDF7DDFC08219F48FDF71F
:104E5000D9FC01219F48FDF7D5FC1E219E48FFF794
:104E6000F9FC80460120C8EBC8019B4A02F82100EA
:104E7000C8EBC800114601EB8000C41CD82020708C
:104E80000020E0702071207861784840A178484087
:104E9000E17848402179484061794840A17948400B
:104EA000E0710820C8EBC80102EB8101887000E0C6
:104EB0000AE0C8EBC800114601EB800B59460120FF
:104EC000FFF7DDFC824600BF86480078864210D09E
:104ED0007DB184480670012D0BD156B9012082495D
:104EE00008704EF660208149088029027748FDF756
:104EF0005EFC7E48008820B17C480088401E7B49CB
:104F000008807948007801280BD17848008840B99A
:104F100000207549087025B14FF480716B48FDF78A
:104F200071FC73480078874211D085B9B9F1000F40
:104F30000DD16F48077057B901206E4908704FF4C2
:104F4000FA606D49088002216448FDF730FC6A4828
:104F5000008820B168480088401E6749088065487D
:104F60000078012809D16448008830B900206149DF
:104F7000087002215948FDF745FCBAF1000F07D02F
:104F80004FF080505D490860BFF34F8FBFF36F8FC4
:104F900000BFBDE8F09F07E0022059490870FFF705
:104FA000F8FC1E20FCF7B8F8F6E7002204210A20DE
:104FB000FBF7AEF953490860F8E34FF0FF3252496E
:104FC00050480068FBF798FB0128F5D14E4800686F
:104FD0004078012872D100254B480068C07812281B
:104FE00002D014286BD10CE2474800680079474989
:104FF000087045480068007900F00100002857D08B
:1050000010213248FDF738FB012800D100E00020D4
:1050100020B110212D48FDF7F5FB03E010212B48AE
:10502000FDF7C5FB1E212C48FFF714FC06460120A6
:10503000C6EBC601284A02F82100C6EBC60011469D
:1050400001EB8000C41CD820207010211F48FDF700
:1050500013FB012800D100E0002020B12B4800788C
:1050600040F0010003E02948007820F00100E070E2
:10507000207861784840A1784840E178484021791B
:10508000484061794840A1794840E0710820C6EB6A
:10509000C601114A02EB81018870C6EBC6001146B9
:1050A00001EB800739460020FFF7E9FB054600BF0A
:1050B00015480068007900F0020029E038E334E385
:1050C000A5000020AA000020A8000020000C01403C
:1050D00000140140001801405C4500200010014010
:1050E00000080140A6000020AE000020AC00002017
:1050F000A7000020AF000020B000002004ED00E079
:105100008800002090000020B40000209B000020B8
:10511000002857D08021FE48FDF7AEFA012800D1C3
:1051200000E0002020B18021FA48FDF76BFB03E08E
:105130008021F848FDF73BFB1E21F748FFF78AFB6B
:1051400006460120C6EBC601F34A02F82100C6EB71
:10515000C600114601EB8000C41CD82020708021BD
:10516000EB48FDF789FA012800D100E0002020B1CA
:10517000EA48007840F0010003E0E848007820F0B9
:105180000100E070207861784840A1784840E178DB
:1051900048402179484061794840A1794840E07110
:1051A0000820C6EBC601DC4A02EB81018870C6EB21
:1051B000C600114601EB800739460020FFF75FFB70
:1051C000054600BFD6480068007900F004000028BA
:1051D00057D02021CE48FDF74FFA012800D100E03A
:1051E000002020B12021CA48FDF70CFB03E020215C
:1051F000C748FDF7DCFA1E21C748FFF72BFB064620
:105200000120C6EBC601C44A02F82100C6EBC60065
:10521000114601EB8000C41CD82020702021BC481E
:10522000FDF72AFA012800D100E0002020B1BB4898
:10523000007840F0010003E0B848007820F0010059
:10524000E070207861784840A1784840E178484093
:105250002179484061794840A1794840E0710820AF
:10526000C6EBC601AC4A02EB81018870C6EBC600F2
:10527000114601EB800739460020FFF700FB054689
:1052800000BFA7480068007900F0080000286FD030
:105290004FF480719E48FDF7EFF9012800D100E03E
:1052A000002028B14FF480719948FDF7ABFA04E073
:1052B0004FF480719648FDF77AFA1E219648FFF761
:1052C000C9FA06460120C6EBC601934A02F821003E
:1052D000C6EBC600114601EB8000C41CD82020702C
:1052E0004FF480718A48FDF7C7F9012800D100E02A
:1052F000002020B18948007840F0080003E087488A
:10530000007820F00800E0704FF480718048FDF7CD
:10531000B3F9012800D100E0002020B181480078D5
:1053200040F0010003E07F48007820F00100607148
:10533000207861784840A1784840E1784840217958
:10534000484061794840A1794840E0710820C6EBA7
:10535000C601714A02EB81018870C6EBC600114696
:1053600001EB800739460020FFF789FA054600BFA8
:105370006B480068007900F01000E8B102216A482B
:10538000FDF77AF9012804D102216748FDF73AFABE
:1053900003E002216448FDF70AFA04216248FDF7A0
:1053A0006BF9012804D104215F48FDF72BFA03E0D3
:1053B00004215D48FDF7FBF959480068007900F0C9
:1053C0002000E8B108215848FDF756F9012804D11A
:1053D00008215548FDF716FA03E008215248FDF769
:1053E000E6F910215048FDF747F9012804D11021B2
:1053F0004D48FDF707FA03E010214B48FDF7D7F9B8
:1054000094E14748006800794649087044480068BC
:10541000007900F0010078B34FF480713C48FDF74B
:105420002BF9012800D100E0002028B14FF4807151
:105430003748FDF7E7F904E04FF480713448FDF791
:10544000B6F91E213448FFF705FA06460120C6EBDF
:10545000C601314A02F82100C6EBC600114601EB35
:105460008000C41CD82020704FF480712848FDF7BC
:1054700003F9012801D101E02AE0002020B12948E8
:10548000007840F0090003E02648007820F0090089
:105490006071207861784840A1784840E1784840C0
:1054A0002179484061794840A1794840E07108205D
:1054B000C6EBC601184A02EB81018870C6EBC60034
:1054C000114601EB800739460020FFF7D8F900BFED
:1054D00013480068007900F0020000286AD01348E1
:1054E0000078E8BB4FF480710948FDF760F940216E
:1054F0000848FDF75CF920210648FDF758F910210E
:105500000448FDF754F908210248FDF750F90FE06F
:10551000000C0140001401405C4500209B0000206D
:10552000B40000209C0000200018014098000020DA
:105530000120D64908700020D54908701E21D548A1
:10554000FFF788F906460120C6EBC601D14A02F8EA
:105550002100C6EBC600114601EB8000C41C00E030
:1055600029E0D8202070CC48007840F00800E07096
:10557000CA48007840F0090060712078617848409E
:10558000A1784840E1784840217948406179484015
:10559000A1794840E0710820C6EBC60102EB810109
:1055A0008870C6EBC600114601EB80073946002023
:1055B000FFF765F952E04FF48071B948FDF722F921
:1055C0004021B848FDF71EF92021B648FDF71AF929
:1055D0001021B448FDF716F90821B248FDF712F979
:1055E0000020AA4908701E21AA48FFF733F9064691
:1055F0000120C6EBC601A74A02F82100C6EBC6008F
:10560000114601EB8000C41CD8202070A24800780D
:1056100040F00800E070A148007840F00900607197
:10562000207861784840A1784840E1784840217965
:10563000484061794840A1794840E0710820C6EBB4
:10564000C60102EB81018870C6EBC600114601EB72
:10565000800739460020FFF712F900BF9248006822
:10566000007900F0040068B304218E48FDF79FF82C
:105670004FF480718A48FDF7C5F820218848FDF76E
:10568000C1F810218648FDF7BDF808218448FDF7D0
:10569000B9F880218348FDF7B5F840218148FDF72E
:1056A000B1F820217F48FDF7ADF810217D48FDF7C6
:1056B000A9F808217B48FDF7A5F801217948FDF7F5
:1056C000A1F806E001207949087047F23050784986
:1056D000088075480068007900F0080020B3202198
:1056E0007048FDF764F810216E48FDF760F84FF43C
:1056F00080716B48FDF786F820216948FDF782F834
:1057000010216748FDF77EF808216548FDF77AF813
:1057100080216448FDF776F840216248FDF772F871
:1057200008216048FDF76EF800E000BF00BF91E07F
:105730005D480068407802287AD15B48006800F133
:1057400008042078012804D120215548FDF72FF8BE
:105750000DE0207858B904215248FDF753F8022192
:105760005048FDF74FF801214E48FDF74BF8E0781F
:1057700060B904214B48FDF745F802214948FDF77F
:1057800041F801214748FDF73DF82FE0E078012876
:105790000DD104214348FDF70AF802214148FDF7E5
:1057A00031F801213F48FDF72DF81FE056E0E07881
:1057B00002280CD102213B48FCF7F9FF04213948AB
:1057C000FDF720F801213748FDF71CF80EE0E078DE
:1057D00003280BD101213348FCF7E9FF02213148AE
:1057E000FDF710F804212F48FDF70CF820796179B6
:1057F00088420CD104212B48FCF7D9FF022129480B
:10580000FDF700F801212748FCF7FCFF21E0207993
:10581000617988420DDD01212248FCF7C8FF022191
:105820002048FCF7EFFF04211E48FCF7EBFF10E0D7
:1058300010E02079617988420BDA01211948FCF7E0
:10584000B6FF02211748FCF7DDFF04211548FCF7DD
:10585000D9FF00BF0020144909680870FFF7ADBBED
:10586000002204210A20FAF753FD124908600CE0D7
:105870004FF0FF3210490F480068FAF73DFF01284A
:1058800003D10D480068FFF715F8F1E798000020F4
:10589000990000205C4500209B0000209C00002017
:1058A000000C014000140140B400002094000020CE
:1058B000960000208C000020B8000020F0B50446BF
:1058C0000D464FF6FF70002112E0575C784000262D
:1058D0000AE000F0010727B140104AF201077840C2
:1058E00000E04010771CFEB2082EF2DB4F1CF9B22C
:1058F0009942EADB070A27702870F0BD40EA0103ED
:105900009B0703D009E008C9121F08C0042AFAD275
:1059100003E011F8013B00F8013B521EF9D2704739
:10592000064C074D06E0E06840F0010394E80700EC
:1059300098471034AC42F6D3FAF7FEFB64590008DE
:105940008459000802E008C8121F08C1002AFAD1D1
:1059500070477047002001E001C1121F002AFBD1EF
:10596000704700008459000800000020BC000000BF
:1059700044590008405A0008BC0000201C4E00009A
:105980005459000800000000000000000000000062
:105990000000000000000000000000000000000007
:1059A00000000000000000000000000000000000F7
:1059B00000000000000000000000000000000000E7
:1059C000AAAAAAAA0000000000000000000000002F
:1059D00000000000F84300000000000000A24A049C
:1059E000000000000000000001020304060708098F
:1059F0000000000001020304010203040607080975
:105A00000204060800000000000000000100000081
:105A10000000000000000000000000000000000086
:105A200000000000A4480020010303030000000060
:105A30000000000000000000000000000000000066
:0400000508000131BD
:00000001FF
