:020000040800F2
:10000000704A0020613A0008E53B0008E73B000821
:10001000EB3B0008EF3B0008F33B0008000000004A
:100020000000000000000000000000004501000882
:10003000F73B00080000000089010008F7140008E1
:100040007B3A00087B3A00087B3A00087B3A0008BC
:100050007B3A00087B3A00087B3A00087B3A0008AC
:100060007B3A00087B3A00087B3A00087B3A00089C
:100070007B3A00087B3A00087B3A00087B3A00088C
:100080007B3A00087B3A00087B3A00087B3A00087C
:100090007B3A00087B3A00087B3A00087B3A00086C
:1000A0007B3A00087B3A00087B3A00087B3A00085C
:1000B0007B3A00087B3A00087B3A00087B3A00084C
:1000C0007B3A00087B3A00087B3A00087B3A00083C
:1000D0007B3A0008553D00087B3A00085942000869
:1000E0007B3A00087B3A00087B3A00087B3A00081C
:1000F0007B3A00087B3A00087B3A00087B3A00080C
:100100007B3A00087B3A00087B3A00087B3A0008FB
:100110007B3A00087B3A00087B3A00087B3A0008EB
:100120007B3A00087B3A00087B3A00087B3A0008DB
:10013000DFF80CD004F0A8FB00480047893B00081A
:10014000704A0020224B19680868B0E8F00F80F36D
:100150000988BFF36F8F4FF0000080F311884EF0D5
:100160000D0E70470000000006480068006880F32C
:10017000088862B661B6BFF34F8FBFF36F8F00DFA1
:1001800000BF00BF08ED00E0EFF30980BFF36F8F01
:100190000F4B1A6820E9F00F106008B54FF0BF0050
:1001A00080F31188BFF34F8FBFF36F8F00F0E7FB31
:1001B0004FF0000080F31188BDE808401968086816
:1001C000B0E8F00F80F30988BFF36F8F704700BF6E
:1001D00000000020EFF30580704700F10801416046
:1001E0004FF0FF31816000F10801C1600161002121
:1001F0000160704700210161704742684A6093685E
:100200008B60936859609160086103685B1C0360B0
:10021000704710B502460B685C1C0CB9106907E00A
:1002200002F1080000E04068446824689C42FAD962
:1002300044684C604C68A160886041600A61146841
:10024000641C146010BD01460A69D1E90130986050
:10025000D1E9010358605068884201D18868506034
:10026000002008611068401E106010687047000090
:1002700010B5002407E004EB8401FE4A02EB810084
:10028000FFF7ABFF641C052CF5D3FB48FFF7A5FF78
:10029000FA48FFF7A2FFFA48FFF79FFFF948FFF778
:1002A0009CFFF948FFF799FFF348F8490860F348C5
:1002B000F749086010BD10B5044601F0FFF8F54895
:1002C0000068401CF3490860F348006840B9F248F0
:1002D00004600846006801280DD1FFF7C9FF0AE055
:1002E000EE48006838B9EC480068C06AE16A8842A4
:1002F00001D8E9480460EA480068401CE849086001
:1003000094F82C1001208840E64909680843E54923
:100310000860E16A01EB8101D64A02EB8100211DF0
:10032000FFF76BFF01F0D9F8DC48006868B1DA48E4
:100330000068C06AE16A884207D24FF08050DA490B
:100340000860BFF34F8FBFF36F8F10BD2DE9FF5FC4
:1003500080460F469146DDE90E6A109CA9F1010026
:10036000216B01EB800B2BF0070B002507E0795D7B
:1003700004F134004155785D00B902E06D1C102D88
:10038000F5D300BF002143200155052E00D30426DC
:10039000E66266640020A064201DFFF72BFF04F1D5
:1003A0001800FFF727FF2461C6F10500A061646211
:1003B0000020E06484F8500041465846039A01F05A
:1003C00046F82060BAF1000F01D0CAF80040BDE83D
:1003D000FF9F2DE9FF4F85B0804689461746DDE92E
:1003E00012ABB80001F0BDF8064656B1542001F03A
:1003F000B8F804460CB1266304E0304601F004F975
:1004000000E000247CB10020CDE900ABCDE9024042
:100410003A4649464046089BFFF798FF2046FFF7BB
:100420004AFF012501E04FF0FF35284609B0BDE83D
:10043000F08F96490968096809B9012100E0002197
:1004400021B14FF0FF31994A116006E08F490968E8
:10045000C968C868954A41681160704710B504467C
:10046000206B01F0D1F8204601F0CEF810BD70B538
:10047000054601F023F815B98748006800E02846D2
:100480000446201DFFF7DFFE78B9E06A00EB80002C
:10049000784951F8200040B994F82C100120884088
:1004A0008049096881437F480160A06A18B104F15E
:1004B0001800FFF7C8FE7A480068401C78490860B9
:1004C00075480068844209D1211D6E48FFF795FEEA
:1004D00077480068401C7649086009E06D4800686C
:1004E000401E6C4908602046FFF7B8FFFFF7A1FFE8
:1004F00000F0F3FF6948006858B16748006884421B
:1005000007D14FF0805068490860BFF34F8FBFF3A9
:100510006F8F70BD2DE9F041002766480068002804
:1005200068D165480068451C634805608DB9574827
:10053000D0F8008056480068544908605448C0F814
:1005400000805E480068401C5C490860FFF771FF4E
:1005500000BF5648006885423BD300BF4B48006847
:10056000006808B9012000E0002020B14FF0FF3002
:100570004E4908602CE045480068C068C468666859
:10058000B54202D24948066022E0201DFFF75BFE1B
:10059000A06A18B104F11800FFF755FE94F82C106A
:1005A000012088403F49096808433E490860E16AE4
:1005B00001EB81012F4A02EB8100211DFFF71DFE97
:1005C0003549E06A0968C96A8842C7D30127C5E787
:1005D00000BF31480068C06A00EB8000254951F82F
:1005E0002000012800D901273548006808B903F028
:1005F00084FA06E032480068401C3149086003F084
:100600007CFA3048006800B101273846BDE8F08127
:1006100070B50024002600F051FF26480068401EF7
:10062000244908600846006800287AD11948006803
:10063000002876D04FE01248C068C46804F1180062
:10064000FFF701FE201DFFF7FEFD94F82C1001209E
:10065000884014490968084312490860E16A01EBBF
:100660008101044A02EB8100211DFFF7C6FD0A4902
:10067000E06A29E0A4000020080100201C010020FD
:100680003001002044010020580100200400002017
:100690000800002010000020000000201C000020A6
:1006A0002C0000201800002004ED00E030000020A5
:1006B0000C0000203800002014000020280000203A
:1006C00020000020240000200968C96A884202D363
:1006D0000120F7490860F748006808B9012000E0E8
:1006E00000200028A7D00CB1FFF7A3FEF248056850
:1006F00065B100BFFFF70EFF10B10120EC490860A3
:100700006D1E002DF6D10020EB490860E848006816
:1007100038B101263007E9490860BFF34F8FBFF3B6
:100720006F8F00F0DAFE304670BD2DE9F0410546CE
:100730000E46E3480768E3480068001DFFF783FDA5
:1007400050B9E048006890F82C1001208840DE493C
:1007500009688143DC480160681C38B936B1D94862
:100760000168091DD948FFF748FD1AE07C19D548F2
:1007700000684460BC4207D2D2480168091DD448D1
:100780000068FFF746FD0CE0CE480168091DD1481E
:100790000068FFF73EFDD0480068844201D2CE4891
:1007A0000460BDE8F081CD480068401CCB4908607A
:1007B00070472DE9F047044688464FF00009FFF7DF
:1007C000F2FFBF480668206800EB08052068B042C9
:1007D00007D92068A8420BD9B54209D94FF00109C1
:1007E00006E02068A84201D8B54201D94FF00109BE
:1007F0002560B9F1000F03D0A81B0021FFF795FF7A
:10080000FFF706FF07463FB94FF08050AB4908603D
:10081000BFF34F8FBFF36F8FBDE8F08770B504460D
:10082000002544B1FFF7BFFF00212046FFF77DFF01
:10083000FFF7EEFE05463DB94FF080509F49086036
:10084000BFF34F8FBFF36F8F70BD70B5044600F0DC
:1008500035FE14B99B48006800E020460646F56A5C
:1008600000F03BFE284670BD70B5024600BFBF25B4
:10087000EFF3118485F31188BFF34F8FBFF36F8FB0
:1008800000BF214612B98F4C246800E0144623466D
:10089000D86A00BF81F3118800BF70BD2DE9F04711
:1008A00080460D464FF00009052D00D3042500F0C9
:1008B00005FEB8F1000F02D18248006800E0404612
:1008C0000446666CAE4256D0B5420BD97D480068EE
:1008D00084420DD07B480068C06AA84208D84FF017
:1008E000010905E077480068844201D14FF0010911
:1008F000E76AE16A606C884200D1E5626564A069DC
:1009000000F0004010B9C5F10500A06107EB8701B8
:10091000734A02EB81016069884201D1012000E045
:100920000020E0B1201DFFF78EFC30B90120B84057
:100930006549096881436448016094F82C100120DE
:1009400088406149096808435F490860E16A01EB32
:100950008101634A02EB8100211DFFF74EFCB9F1D2
:10096000000F07D04FF0805054490860BFF34F8FFD
:10097000BFF36F8F00BF00F0B0FDBDE8F0875748B0
:10098000006818B101204A4908601DE0002048496C
:1009900008604D480068B0FA80F0C0F11F0101EB1B
:1009A00081024F4B03EB820042685268426000F1C3
:1009B00008024368934202D142685268426042682A
:1009C000D268404B1A6000BF704770B5054600F012
:1009D00075FD15B93B48006800E028460446201D17
:1009E000FFF731FC78B9E06A00EB80003C4951F830
:1009F000200040B994F82C10012088403249096841
:100A0000814331480160A06A18B104F11800FFF772
:100A10001AFC211D2D48FFF7F0FB94F85000012827
:100A200002D1002084F8500000F057FD2D480068E6
:100A300028B100F043FDFFF7FCFC00F04EFD21481B
:100A40000068844217D12748006840B14FF08050B9
:100A50001A490860BFF34F8FBFF36F8F0BE01B483D
:100A6000006821490968884203D1002015490860BF
:100A700001E0FFF784FF70BD10B5014600200A4673
:100A8000124C5369A34201D1012300E0002373B14A
:100A9000084C936AA34201D1012300E0002333B93B
:100AA000936A0BB9012300E0002303B1012010BDBC
:100AB00024000020300100202000002004ED00E090
:100AC0001400002000000020180000205801002021
:100AD0000800002004000020300000203800002022
:100AE000A40000201C0000201000002070B5054666
:100AF0002C4674B3FC48006884422AD000F0DEFC27
:100B00002046FFF7B9FF10B3201DFFF79CFB94F8B8
:100B10002C1001208840F54909680843F349086012
:100B2000E16A01EB8101F24A02EB8100211DFFF72E
:100B300064FBED49E06A0968C96A884207D34FF04F
:100B40008050EC490860BFF34F8FBFF36F8F00F008
:100B5000C4FC70BD2DE9F04106460027344600BFB5
:100B6000BF21EFF3118081F31188BFF34F8FBFF3E3
:100B70006F8F00BF05462046FFF77EFF20B3DE489B
:100B80000068E0B9D849E06A0968C96A884200D3B8
:100B90000127201DFFF757FB94F82C1001208840F7
:100BA000D24909680843D1490860E16A01EB810133
:100BB000CF4A02EB8100211DFFF71FFB04E004F187
:100BC0001801CE48FFF719FB00BF85F3118800BF5D
:100BD0003846BDE8F08110B516E000F06FFCC8485B
:100BE000C068C468201DFFF72EFBC6480068401E81
:100BF000C4490860C4480068401EC349086000F04A
:100C00006CFC2046FFF72AFCBF4800680028E4D1AE
:100C100010BD00BFFFF7DFFFB54800680128F9D914
:100C20004FF08050B3490860BFF34F8FBFF36F8F11
:100C3000F0E71CB5B54800210B46FE22CDE90010B7
:100C4000B3A1B548FFF7C5FB0446012C14D100BF82
:100C5000BF2080F31188BFF34F8FBFF36F8F00BFAA
:100C60004FF0FF30AD4908600120AD490860002019
:100C7000AC49086000F00CFC1CBD10B500BFBF20E3
:100C800080F31188BFF34F8FBFF36F8F00BF002039
:100C9000A349086000F011FC10BDA2490868704724
:100CA0000021A04A106870479648006870470146C6
:100CB00011B98D48006800E00846024602F1340090
:100CC000704770B505460C468748016818312846BC
:100CD000FFF79FFA01212046FFF727FD70BD70B591
:100CE00006460C46154644F000407F490968886175
:100CF0007D48016818313046FFF77FFA0121284608
:100D0000FFF713FD70BD70B50646F068C46804F1C6
:100D10001800FFF798FA78480068A8B9201DFFF777
:100D200092FA94F82C100120884070490968084311
:100D30006E490860E16A01EB81016D4A02EB8100B6
:100D4000211DFFF75AFA04E004F118016B48FFF780
:100D500054FA6549E06A0968C96A884204D90125DC
:100D600001207149086000E00025284670BD70B57B
:100D700005460E4646F000402860EC682846FFF71E
:100D800062FA201DFFF75FFA94F82C1001208840CA
:100D900056490968084355490860E16A01EB810139
:100DA000534A02EB8100211DFFF727FA4E49E06A02
:100DB0000968C96A884202D901205B49086070BD90
:100DC00010B5044600F07AFB58480068206055488A
:100DD0000068606000F081FB10BD54490968016043
:100DE000504909684160704770B506460C4600F0EE
:100DF00065FB4C4802687068131A2068401C08B9EB
:100E0000002517E0494930680968884204D07068B5
:100E1000904201D801250DE02068984207D920684A
:100E2000C01A20603046FFF7D8FF002502E00020FE
:100E30002060012500F051FB284670BD01203A4991
:100E40000860704728490868704770B505462C4609
:100E50000026002D7BD02449E06A0968C96A8842CF
:100E60006ED2A06900F0004028B91F480068C06A2F
:100E7000C0F10500A061E16A01EB81011C4A02EBAF
:100E800081016069884201D1012000E0002050B357
:100E9000201DFFF7D8F978B9E06A00EB800014490B
:100EA00051F8200040B994F82C10012088400F49D7
:100EB000096881430D4801600B480068C06AE06220
:100EC00094F82C1001208840084909680843074914
:100ED0000860E16A01EB8101054A02EB8100211DF6
:100EE000FFF78BF92AE025E0000000201800002021
:100EF000A400002004ED00E03800002030010020B4
:100F000044010020100000200C00002034000020CC
:100F100049444C4500000000130C0008300000203C
:100F20001C000020140000202400002028000020C5
:100F30000DE005E0FC480068C06AE062012606E0BA
:100F4000F949606C0968C96A884200D201263046B6
:100F500070BD70B505462C460026ADB3A06C401E92
:100F6000A064616CE06A88422ED0A06C60BB201D3A
:100F7000FFF769F978B9E06A00EB8000EB4951F8B6
:100F8000200040B994F82C1001208840E8490968F5
:100F90008143E7480160606CE062E06AC0F10500EF
:100FA000A06194F82C1001208840E14909680843A9
:100FB000DF490860E16A01EB8101DC4A02EB810054
:100FC000211DFFF71AF90126304670BD2DE9F047C3
:100FD00006460F4634464FF00109002E47D0606C9C
:100FE000B84201D23D4600E0656CE06AA8423ED0BE
:100FF000A06C01283BD1D4F82C80E562A06900F0F8
:10100000004010B9C5F10500A06108EB8801C74A8E
:1010100002EB81016069884201D1012000E00020DB
:1010200028B3201DFFF70FF978B9E06A00EB8000C4
:10103000BE4951F8200040B994F82C100120884096
:10104000BB4909688143BA48016094F82C1001201B
:101050008840B74909680843B5490860E16A01EB6F
:101060008101B24A02EB8100211DFFF7C6F8BDE8FD
:10107000F087AD4909688869AB490968C96AC1F157
:101080000501A94A126891617047A748006830B10C
:10109000A549096801F14800896C491C0160A24812
:1010A0000068704770B506460D4600F007FA9E4886
:1010B0000068C06C88B901209B49096881F850001C
:1010C0005DB101212846FFF730FB4FF08050994970
:1010D0000860BFF34F8FBFF36F8F00F0FEF900F091
:1010E000EDF991480068C46C4CB126B100208E49DE
:1010F0000968C86403E0601E8B490968C864002061
:101100008949096881F8500000F0E7F9204670BD70
:101110002DE9F0410746884614461D4600F0CEF9F9
:101120008148006890F85000022818D07E4909686C
:1011300001F14C00C96CB943016001207A4909688A
:1011400081F850005DB101212846FFF7EEFA4FF01B
:10115000805078490860BFF34F8FBFF36F8F00F066
:10116000BCF900F0ABF91CB16F480068C06C20609E
:101170006D48006890F85000022801D0002608E071
:101180006949096801F14C00C96C21EA0801016054
:10119000012600206449096881F8500000F09DF99B
:1011A0003046BDE8F0812DE9F04781460D461646F0
:1011B0001F464FF0010A4C4600F080F90FB1E06C79
:1011C000386094F85080022084F85000052E17D221
:1011D000DFE806F01503070B0D00E06C2843E06420
:1011E0000EE0E06C401CE0640AE0E56408E0B8F161
:1011F000020F01D0E56401E04FF0000A00E000BFFB
:1012000000BFB8F1010F22D1201DFFF71CF894F8A0
:101210002C10012088404649096808434449086069
:10122000E16A01EB8101414A02EB8100211DFEF7D9
:10123000E4FF3D49E06A0968C96A884207D94FF06E
:1012400080503C490860BFF34F8FBFF36F8F00F0B1
:1012500044F95046BDE8F0872DE9F84F82460D4627
:1012600016461F46DDF828B001200090544600BF06
:10127000BF21EFF3118081F31188BFF34F8FBFF3CC
:101280006F8F00BF81460FB1E06C386094F85080DA
:10129000022084F85000052E17D2DFE806F015036F
:1012A000070B0D00E06C2843E0640EE0E06C401C8E
:1012B000E0640AE0E56408E0B8F1020F01D0E564FB
:1012C00001E00020009000E000BF00BFB8F1010F76
:1012D00039D119480068A8B9201DFEF7B4FF94F869
:1012E0002C10012088401249096808431049086001
:1012F000E16A01EB81010D4A02EB8100211DFEF73D
:101300007CFF04E004F118010C48FEF776FF064963
:10131000E06A0968C96A884215D9BBF1000F0FD08D
:101320000120CBF800000EE000000020A400002007
:101330001800002004ED00E03800002030010020FB
:1013400001203749086000BF89F3118800BF009869
:10135000BDE8F88F2DE9F04105460E462C4600BF4A
:10136000BF21EFF3118081F31188BFF34F8FBFF3DB
:101370006F8F00BF074694F85080022084F8500019
:10138000E06C401CE064B8F1010F2AD125480068E8
:10139000A8B9201DFEF757FF94F82C1001208840B3
:1013A00021490968084320490860E16A01EB81018D
:1013B0001E4A02EB8100211DFEF71FFF04E004F12D
:1013C00018011B48FEF719FF1A49E06A0968C96A43
:1013D000884206D916B10120306002E00120104990
:1013E000086000BF87F3118800BFBDE8F08170B5C9
:1013F000054615B90F48006800E02846064600F08B
:101400005DF896F85000022804D1002086F85000BC
:10141000012400E0002400F060F8204670BD0000C8
:10142000240000203800002018000020A400002024
:10143000300100200000002000BFBF2080F3118891
:10144000BFF34F8FBFF36F8F00BF00BFFEE7001FDA
:101450004FF080730360001F21F001030360001F41
:10146000314B0360143802602038704700204FF081
:10147000E021086188612D4800684FF47A71B0FB63
:10148000F1F0401E4FF0E0214861072008617047ED
:1014900010B52748006840F47F00254908600846D9
:1014A000006840F07F400860FFF7E0FF002021491E
:1014B0000860FEF759FE002010BD704700BFBF2036
:1014C00080F31188BFF34F8FBFF36F8F00BF1948B0
:1014D0000068401C17490860704716480068401EA5
:1014E000144908600846006820B9002080F311887C
:1014F00000BF00BF704710B500BFBF2080F3118848
:10150000BFF34F8FBFF36F8F00BFFFF703F820B11A
:101510004FF0805006491C39086000BF002080F35E
:10152000118800BF10BD00003914000858000020C9
:1015300020ED00E03C000020434A22F00700434A2F
:1015400010600022414B5A6044F2F832404B5A601E
:1015500000221A60014644F2F8324A601A460A60D4
:1015600070472DE9F04104464FF00008FFF71BF9E2
:101570003848006820B9FFF7DFFF012035490860CF
:1015800044B1083404F0070020B104F00700C0F1B2
:1015900008000444002C32D044F2F83084422ED2A9
:1015A0002A4F3846056801E02F462D686868A0423A
:1015B00002D228680028F7D1254885421FD0386814
:1015C00000F10808286838606868001B102810D9E6
:1015D0002E196868001B70606C6071681B4800E021
:1015E0000068026852688A42FAD302683260066074
:1015F00000BF194968680968081A17490860FFF7A9
:1016000007F84046BDE8F08170B506463546B6B1EC
:10161000083D2C46FFF7C7F861680C4800E00068F9
:10162000026852688A42FAD30268226004600A495A
:1016300060680968084408490860FEF7E9FF70BD62
:101640000548006870477047740100204000002082
:1016500048000020540000205000002010B504462F
:10166000B4F5E06F0BD0B4F5C06F08D0B4F5A06F3F
:1016700005D0B4F5806F02D0B4F5407F00D103E00F
:1016800063215DA002F0FEF96348204363490860CE
:1016900010BD2DE9F0410446002500270F26E07813
:1016A00010B1E078012800D103E0752152A002F0CA
:1016B000E9F96078102800DA03E076214EA002F004
:1016C000E1F9A078102800DA03E077214AA002F0BF
:1016D000D9F9E07800B35148006800F4E060C0F543
:1016E000E060050AC5F10407EE40607800FA07F5EE
:1016F000A078304005432D01494822788554207850
:1017000000F01F010120884021784911890001F172
:10171000E021C1F8000109E0207800F01F0101205C
:10172000884040492278521141F82200BDE8F081FA
:1017300070B504460D46B4F1005F02D0B4F1006FFD
:1017400000D103E09C212CA002F09CF93648854290
:1017500000D203E09D2128A002F094F9334905EA64
:10176000010020432D49091F086070BD70B5044673
:101770000D46102C03D0042C01D0022C00D103E024
:10178000AF211DA002F07EF90DB1012D00D103E0C3
:10179000B02119A002F076F93DB12048001D006883
:1017A00020431E49091D086006E01C48001D006812
:1017B000A0431A49091D086070BD10B50446042CE9
:1017C00001D0601D00B903E0C4210BA002F05AF95A
:1017D000042C08D14FF0E020006940F004004FF0E5
:1017E000E021086107E04FF0E020006920F00400EC
:1017F0004FF0E021086110BD2E2E5C6C69625C73B5
:10180000745F6C69625C66776C69625C7372635C5E
:101810006D6973632E6300000000FA050CED00E0B3
:1018200000E400E080E100E0FFFF0F0080FFFF1F09
:101830000CB50020019000906C48006840F48030A6
:101840006A49086000BF6948006800F400300090F1
:101850000198401C0190009818B90198B0F5A06F4C
:10186000F1D16248006800F4003010B1012000900E
:1018700001E0002000900098012843D15C480068F6
:1018800040F010005A4908600846006820F0030044
:1018900008600846006840F002000860534840684D
:1018A000524948600846406848600846406840F42D
:1018B000806048600846406820F47C104860084614
:1018C000406840F4E81048600846006840F08070C6
:1018D000086000BF4548006800F000700028F9D09B
:1018E0004248406820F0030040494860084640688C
:1018F00040F00200486000BF3C48406800F00C0027
:101900000828F9D10CBD10B5FFF792FF10BD10B536
:101910003648006840F001003449086008464068D5
:101920003449084031494860084600683249084057
:101930002E4908600846006820F4802008600846A8
:10194000406820F4FE0048604FF41F008860FFF7F5
:10195000DAFF4FF000602949086010BD10B5002182
:1019600000200022214B5B6803F00C0121B1042907
:1019700006D0082928D107E0214B224C236027E01C
:101980001F4B204C236023E0184B5B6803F470105E
:10199000164B5B6803F48032022303EB904022B9BC
:1019A000194B4343174C23600DE0104B5B6803F465
:1019B000003323B1144B4343124C236003E0104B1C
:1019C0004343104C236003E00D4B0E4C236000BFDB
:1019D00000BF064B5B68C3F303130C4CE15C094B7F
:1019E0001B68CB40074C236010BD00000010024074
:1019F000002002400000FFF8FFFFF6FE08ED00E0C7
:101A000000127A005800002000093D005C00002010
:101A100010B50446FC48844211D0FC4884420ED0E4
:101A2000FB4884420BD0FB48844208D0FA488442E9
:101A300005D0FA48844202D0F948844200D103E03C
:101A40006F21F8A002F01EF8EF48844208D101216E
:101A5000042001F05AF80021042001F056F846E075
:101A6000EA48844208D10121082001F04EF8002103
:101A7000082001F04AF83AE0E548844208D1012103
:101A8000102001F042F80021102001F03EF82EE075
:101A9000E048844208D10121202001F036F80021DD
:101AA000202001F032F822E0DB48844208D10121F5
:101AB000402001F02AF80021402001F026F816E02D
:101AC000D648844208D10121802001F01EF800216F
:101AD000802001F01AF80AE0D148844207D10121A0
:101AE000801501F012F80021A01501F00EF810BDCC
:101AF00010B50121084601F008F80021012001F08D
:101B000004F810BD2DE9F05F05460C464FF00009C2
:101B1000CA4600260027B046B346BB48854211D0CE
:101B2000BA4885420ED0BA4885420BD0B9488542A2
:101B300008D0B948854205D0B848854202D0B84897
:101B4000854200D103E0A421B6A001F09BFFE0781C
:101B5000A0B1E078042811D0E07828280ED0E078F1
:101B600048280BD0E078142808D0E078102805D059
:101B7000E0781C2802D0E078182800D103E0A521E5
:101B8000A8A001F07FFF002010B9208800B103E079
:101B9000A621A4A001F076FFE07800F00F09E0781C
:101BA00000F0100080B1A078012805D0A0780228AC
:101BB00002D0A078032800D103E0AC2199A001F065
:101BC00061FFA07840EA0909207838B3D5F8008091
:101BD00000261FE0012000FA06F7208800EA070A25
:101BE000BA4516D1B7000F2000FA07FB28EA0B0808
:101BF00009FA07F040EA0808E078282803D1012014
:101C0000B040686105E0E078482802D10120B0408A
:101C10002861761C082EDDD3C5F800802088FF28B7
:101C20002BDDD5F80480002623E006F10800012111
:101C300001FA00F7208800EA070ABA4518D1B70070
:101C40000F2000FA07FB28EA0B0809FA07F040EA20
:101C50000808E078282803D106F10800814069616E
:101C6000E078482804D106F108000121814029616B
:101C7000761C082ED9D3C5F80480BDE8F09F4FF636
:101C8000FF710180022181700421C170704770B51D
:101C900005460C4600265C48854211D05B488542CB
:101CA0000ED05B4885420BD05A48854208D05A482E
:101CB000854205D05948854202D05948854200D115
:101CC00004E040F2031157A001F0DCFE012C25D006
:101CD000022C23D0042C21D0082C1FD0102C1DD076
:101CE000202C1BD0402C19D0802C17D0B4F5807F2D
:101CF00014D0B4F5007F11D0B4F5806F0ED0B4F5D8
:101D0000006F0BD0B4F5805F08D0B4F5005F05D04C
:101D1000B4F5804F02D0B4F5004F00D104E04FF489
:101D2000827140A001F0AEFEA868204008B10126F3
:101D300000E00026304670BD10B5044632488442AB
:101D400011D0324884420ED0314884420BD0314801
:101D5000844208D03048844205D03048844202D0C2
:101D60002F48844200D104E04FF48B712DA001F084
:101D700089FEA06880B210BD70B505460C460026ED
:101D80002148854211D0214885420ED02048854205
:101D90000BD02048854208D01F48854205D01F48F7
:101DA000854202D01E48854200D104E04FF4937171
:101DB0001CA001F067FE012C25D0022C23D0042C9E
:101DC00021D0082C1FD0102C1DD0202C1BD0402C33
:101DD00019D0802C17D0B4F5807F14D0B4F5007FD3
:101DE00011D0B4F5806F0ED0B4F5006F0BD0B4F500
:101DF000805F08D0B4F5005F05D0B4F5804F02D005
:101E0000B4F5004F24D129E000080140000C014046
:101E1000001001400014014000180140001C014066
:101E2000002001402E2E5C6C69625C73745F6C69EB
:101E3000625C66776C69625C7372635C73746D3349
:101E400032663130785F6770696F2E630000000082
:101E500040F22711AFF2340001F014FEE868204090
:101E600008B1012600E00026304670BD10B50446DA
:101E7000FE48844211D0FE4884420ED0FD48844280
:101E80000BD0FD48844208D0FC48844205D0FC4871
:101E9000844202D0FB48844200D105E040F239116F
:101EA000AFF2800001F0EEFDE06880B210BD70B5C9
:101EB00004460D46ED48844211D0ED4884420ED0D0
:101EC000EC4884420BD0EC48844208D0EB48844272
:101ED00005D0EB48844202D0EA48844200D105E0B4
:101EE0004FF4A471AFF2C40001F0CCFD002008B99A
:101EF00005B105E040F24911AFF2D80001F0C2FD92
:101F0000256170BD70B504460D46D848844211D095
:101F1000D74884420ED0D74884420BD0D64884425A
:101F200008D0D648844205D0D548844202D0D5484E
:101F3000844200D105E04FF4AC71AFF2181001F00B
:101F4000A1FD002008B905B105E040F25911AFF23A
:101F50002C1001F097FD656170BD70B505460C460B
:101F60001646C248854211D0C14885420ED0C148AC
:101F700085420BD0C048854208D0C048854205D074
:101F8000BF48854202D0BF48854200D105E04FF4EA
:101F9000B671AFF2701001F075FD012C25D0022C46
:101FA00023D0042C21D0082C1FD0102C1DD0202C85
:101FB0001BD0402C19D0802C17D0B4F5807F14D0C2
:101FC000B4F5007F11D0B4F5806F0ED0B4F5006F7A
:101FD0000BD0B4F5805F08D0B4F5005F05D0B4F540
:101FE000804F02D0B4F5004F00D105E040F26D11F2
:101FF000AFF2D01001F046FD0EB1012E00D105E088
:102000004FF4B771AFF2E41001F03CFD0EB12C615A
:1020100000E06C6170BD70B504460D469348844283
:1020200011D0934884420ED0924884420BD09248FB
:10203000844208D09148844205D09148844202D01D
:102040009048844200D105E04FF4C071AFF22C20DB
:1020500001F018FDE56070BD70B504460D464FF403
:1020600080368248844211D0814884420ED0814813
:1020700084420BD08048844208D08048844205D0F6
:102080007F48844202D07F48844200D105E040F27C
:102090009111AFF2702001F0F5FC002008B905B1F4
:1020A00005E04FF4C971AFF2842001F0EBFC2E4340
:1020B000A661A561A661A669A66970BD70B5054651
:1020C0000C4600263DB1012D05D0022D03D0032D75
:1020D00001D0042D00D105E04FF4D771AFF2BC2040
:1020E00001F0D0FCECB1012C1BD0022C19D0032C38
:1020F00017D0042C15D0052C13D0062C11D0072C8A
:102100000FD0082C0DD0092C0BD00A2C09D00B2C89
:1021100007D00C2C05D00D2C03D00E2C01D00F2C89
:1021200000D105E040F2AF11AFF2083001F0AAFC97
:10213000554806684FF68070064046EA0516264365
:102140005148066070BD10B504460CB1012C00D199
:1021500005E04FF4E171AFF2343001F093FC4B48ED
:10216000C46110BD2DE9F04704460E460027B8466D
:102170000025A946012C77D0022C75D0042C73D0F1
:10218000082C71D0424884426ED0414820308442AD
:102190006AD04048844267D03E488030844263D051
:1021A0003D48844260D03D4884425DD03C488442F2
:1021B0005AD03C48844257D03B48844254D0B4F56E
:1021C000805F51D0B4F5EA1F4ED0B4F5EB1F4BD071
:1021D000B4F5004F48D03548844245D0401C844275
:1021E00042D0801C84427FD0001D84427CD02F4886
:1021F0000F30844278D0B4F1201F75D04FEAF03010
:10220000844271D02A4884426ED02A4884426BD0DE
:102210002948844268D02948844265D028488442AD
:1022200062D0B4F5011F5FD0264884425CD0401CC8
:10223000844259D0801C844256D0001D844253D021
:1022400020480F3084424FD01E481F3084424BD06C
:102250001C483F30844247D01A487F30844243D0E4
:102260001848FF3084422FE03EE0000000080140A3
:10227000000C014000100140001401400018014012
:10228000001C0140002001400000014000002042ED
:102290001000140040001600000118000002180091
:1022A0000003180000081A00000C1A0001002000AA
:1022B0000001300000023000000430000011200056
:1022C00000202000010000800ED0664884420BD020
:1022D0006548844208D06548844205D064488442F9
:1022E00002D06448844200D105E040F20621AFF2FA
:1022F000CC4001F0C7FB0EB1012E00D105E040F249
:102300000721AFF2E04001F0BDFB04F00040B0F166
:10231000004F02D15848C56901E057484568C4F3E9
:102320000349A7B204F44010B0F5401F08D125F0CE
:1023300070655148406820F070604F49486013E074
:1023400004F48010B0F5801F07D1032000FA09F8CB
:1023500025EA080545F0706506E0600D000107FA02
:1023600000F0854345F0706526B1600D010107FA64
:1023700001F0054304F00040B0F1004F02D13E48A7
:10238000C56101E03C484560BDE8F08770B5054691
:102390000C4600265DB1012D09D0022D07D0032D7A
:1023A00005D0042D03D0052D01D0062D00D105E068
:1023B00040F23521AFF2945001F064FBECB1012CF6
:1023C0001BD0022C19D0032C17D0042C15D0052CAF
:1023D00013D0062C11D0072C0FD0082C0DD0092CAF
:1023E0000BD00A2C09D00B2C07D00C2C05D00D2CAF
:1023F00003D00E2C01D00F2C00D105E040F2362185
:10240000AFF2E05001F03EFBA007010F0F2000FAF1
:1024100001F619480830A11050F82100B0431649C0
:102420000831A21041F822000846A11050F82100FE
:10243000A107090F05FA01F108430F490831A2105D
:1024400041F8220070BD10B504460CB1012C00D13A
:1024500005E04FF41271AFF2346001F013FB07484E
:10246000046010BD000200800004008000080080AD
:10247000001000800020008000000140DC002042AD
:10248000FE48006840F00100FC49086008464068CA
:10249000FB490840F949486008460068F949084086
:1024A000F64908600846006820F480200860084665
:1024B000406820F4FE0048604FF41F0088607047B9
:1024C00010B504462CB1B4F5803F02D0B4F5802F8E
:1024D00000D104E040F21111EBA001F0D3FAE7487B
:1024E000006820F48030E54908600846006820F460
:1024F00080200860B4F5803F03D0B4F5802F0ED162
:1025000006E0DE48006840F48030DC49086007E0FF
:10251000DA48006840F4A020D849086000E000BF15
:1025200000BF10BD2DE9F04104460025002600271C
:10253000212C13D0312C11D0392C0FD0412C0DD09F
:10254000612C0BD07A2C09D07B2C07D07C2C05D0A9
:102550007D2C03D07E2C01D07F2C00D104E04FF4E1
:10256000A261C9A001F08EFA6511012D02D1C34804
:10257000066806E0022D02D1C048066A01E0BF48A5
:10258000466A04F01F050120A840304008B1012729
:1025900000E000273846BDE8F08138B50020009003
:1025A0000024002500BF3120FFF7BCFF054600983E
:1025B000401C00900098B0F5A06F01D0002DF2D023
:1025C0003120FFF7AFFF08B1012400E000242046CE
:1025D00038BD70B5044600251F2C00DC04E040F235
:1025E0004D11A9A001F04EFAA448056825F0F805A0
:1025F00045EAC405056070BD10B504460CB1012C58
:1026000000D104E04FF4B0719FA001F03BFAA8485C
:10261000046010BD70B505460C4600262DB1B5F519
:10262000803F02D0B5F5403F00D104E04FF4BD71CA
:1026300095A001F027FA4CB3B4F5802F26D0B4F55D
:10264000002F23D0B4F5402F20D0B4F5801F1DD02B
:10265000B4F5A01F1AD0B4F5C01F17D0B4F5E01F11
:1026600014D0B4F5001F11D0B4F5101F0ED0B4F57E
:10267000201F0BD0B4F5301F08D0B4F5401F05D093
:10268000B4F5501F02D0B4F5601F00D104E040F251
:102690007B117DA001F0F6F97848466826F47C1697
:1026A00045EA040006437548466070BD10B504460F
:1026B0000CB1012C00D104E040F28F1172A001F0A6
:1026C000E1F97B48046610BD70B5044600251CB1D5
:1026D000012C01D0022C00D104E040F233216AA089
:1026E00001F0D0F96548456825F0030525434560AC
:1026F00070BD6248406800F00C00704770B5044639
:1027000000257CB1802C0DD0902C0BD0A02C09D0B2
:10271000B02C07D0C02C05D0D02C03D0E02C01D099
:10272000F02C00D104E040F25F2157A001F0AAF99B
:102730005248456825F0F0052543456070BD70B5E9
:10274000044600255CB1B4F5806F08D0B4F5A06FE5
:1027500005D0B4F5C06F02D0B4F5E06F00D104E04D
:1027600040F2792148A001F08DF94448456825F4EC
:10277000E0652543456070BD70B5044600255CB139
:10278000B4F5806F08D0B4F5A06F05D0B4F5C06F74
:1027900002D0B4F5E06F00D104E040F293213AA0FA
:1027A00001F070F93548456825F4605545EAC405DF
:1027B000456070BD70B504460D4604F0E00008B9F0
:1027C00004B104E040F2BA212FA001F05BF90DB191
:1027D000012D00D104E040F2BB212BA001F052F901
:1027E0002DB12648407A20432449487204E023480A
:1027F000407AA0432149487270BD10B504460CB11F
:10280000012C00D104E040F2D3211FA001F03AF9DD
:102810002748D830046010BD70B50446002544B187
:10282000B4F5804F05D0B4F5004F02D0B4F5404F59
:1028300000D104E040F2FA2113A001F023F90F487F
:10284000456825F440452543456070BD10B50446F4
:102850001CB1012C01D0042C00D104E04FF44E71C6
:1028600009A001F00FF90020044920310870034944
:1028700081F82000012C1FD0042C1BE00010024026
:102880000000FFF8FFFFF6FE2E2E5C6C69625C73A1
:10289000745F6C69625C66776C69625C7372635CBE
:1028A00073746D3332663130785F7263632E630008
:1028B0000000424208D103E00120F449087004E01E
:1028C0000520F249087000E000BF00BF10BD10B540
:1028D00004460CB1012C00D105E04FF45671AFF263
:1028E000580001F0CFF8EA48046010BD10B5044666
:1028F000B4F5807F05D0B4F5007F02D0B4F5407FF9
:1029000000D105E040F26931AFF2840001F0BAF87D
:10291000DE482038006A2043DC492039086210BDB7
:1029200010B504460CB1012C00D105E040F277311E
:10293000AFF2AC0001F0A6F8D5484438046010BDF1
:1029400030B50021002200240023D04D203D6D68C9
:1029500005F00C0121B1042905D0082926D105E094
:10296000CC4D056025E0CB4D056022E0C74D203DF4
:102970006D6805F47012C54D203D6D6805F4803416
:10298000022505EB92421CB9C34D554305600CE08E
:10299000BE4D203D6D6805F400351DB1BE4D55435B
:1029A000056002E0BB4D5543056002E0B94D05608E
:1029B00000BF00BFB54D203D6D6805F0F00109096D
:1029C000B64D6B5C0568DD404560B04D203D6D68DF
:1029D00005F4E061090AB14D6B5C4568DD40856036
:1029E000AA4D203D6D6805F46051C90AAB4D6B5C82
:1029F0004568DD40C560A54D203D6D6805F440414A
:102A0000890BA74D6B5CC568B5FBF3F5056130BD5F
:102A100070B504460D4640F2575024EA000008B94C
:102A200004B105E040F21941AFF2A41001F02AF818
:102A30000DB1012D00D105E040F21A41AFF2B810FE
:102A400001F020F83DB191482038406920438F497A
:102A50002039486106E08D4820384069A0438B4901
:102A60002039486170BD70B504460D468D48204040
:102A700008B904B105E040F23541AFF2F41001F0BD
:102A800001F80DB1012D00D105E040F23641AFF261
:102A9000082000F0F7FF3DB17C48203880692043D2
:102AA0007A492039886106E0784820388069A04357
:102AB00076492039886170BD70B504460D467A4864
:102AC000204008B904B105E040F25141AFF248207E
:102AD00000F0D8FF0DB1012D00D105E040F25241C8
:102AE000AFF25C2000F0CEFF3DB168482038C069ED
:102AF000204366492039C86106E064482038C0692F
:102B0000A04362492039C86170BD70B504460D46C6
:102B10006448204008B904B105E040F28641AFF2B4
:102B2000982000F0AFFF0DB1012D00D105E040F27B
:102B30008741AFF2AC2000F0A5FF3DB153482038EB
:102B4000C068204351492039C86006E04F4820380A
:102B5000C068A0434D492039C86070BD70B50446B7
:102B60000D465148204008B904B105E040F2A241A9
:102B7000AFF2EC2000F086FF0DB1012D00D105E091
:102B800040F2A341AFF2003000F07CFF3DB13F487E
:102B90002038006920433D492039086106E03B4860
:102BA00020380069A04339492039086170BD10B54B
:102BB00004460CB1012C00D105E040F2B441AFF263
:102BC000383000F05FFF32484038046010BD10B567
:102BD00004460CB1012C00D105E040F2C141AFF236
:102BE000583000F04FFF3148C46410BD10B50446A2
:102BF0003CB1052C05D0042C03D0062C01D0072CA9
:102C000000D105E040F2E141AFF2843000F03AFF3C
:102C10001E482038C47110BD1C482038406A40F05E
:102C200080701A4920394862704770B50446002503
:102C3000012C09D0022C07D0042C05D0082C03D07D
:102C4000102C01D0802C00D105E040F25251AFF29F
:102C5000C83000F017FF0D4820388068204008B1C8
:102C6000012500E00025284670BD10B5044604F09B
:102C7000600008B904B105E040F27C51AFF2F830D1
:102C800000F000FF01482038847210BD201002407F
:102C90008004424200127A0000093D006C000020CE
:102CA0007C0000200200C0FF00360181000042428B
:102CB00010B50446FE4884420BD0FE48844208D03A
:102CC000FD48844205D0FD48844202D0FC4884423D
:102CD00000D103E08521FBA000F0D4FEF44884423B
:102CE00009D101218803FFF710FF00214FF4804034
:102CF000FFF70BFF32E0EF48844209D1012148047D
:102D0000FFF72CFF00214FF40030FFF727FF25E0ED
:102D1000E948844209D101218804FFF71FFF0021FF
:102D20004FF48020FFF71AFF18E0E448844209D1ED
:102D30000121C804FFF712FF00214FF40020FFF724
:102D40000DFF0BE0DE48844208D101210805FFF7A2
:102D500005FF00214FF48010FFF700FF10BD2DE9A3
:102D6000F04786B005460C460026B24600BFB14685
:102D70000027CF4885420BD0CE48854208D0CE48A8
:102D8000854205D0CD48854202D0CD48854200D14C
:102D900003E0AE21CBA000F075FE206820B1D4493D
:102DA0002068884200D203E0AF21C6A000F06AFE8E
:102DB000A08818B1A088B0F5805F00D103E0B021F1
:102DC000C0A000F05FFEE08858B1E088B0F5805FF9
:102DD00007D0E088B0F5005F03D0E088B0F5405F31
:102DE00000D103E0B121B7A000F04CFE208938B13A
:102DF0002089B0F5806F03D02089B0F5C06F00D175
:102E000003E0B221AFA000F03DFE60894FF6F37100
:102E1000084010B9608900B103E0B321A9A000F017
:102E200031FEA08958B1A089B0F5807F07D0A08974
:102E3000B0F5007F03D0A089B0F5407F00D103E05A
:102E4000B421A0A000F01EFEA08968B19848854278
:102E500005D09848854202D09748854200D103E0CA
:102E6000B72198A000F00EFE2F462E8A4CF6FF7078
:102E70000640E08806432E82AE894EF6F3100640E7
:102E8000A08821890843618908430643AE81AE8A40
:102E90004FF6FF400640A0890643AE8201A8FFF727
:102EA0004FFD8348874202D1DDF810A001E0DDF834
:102EB0000CA0A88900F4004040B10AEBCA0000EB66
:102EC0000A1021684900B0FBF1F807E00AEBCA00DC
:102ED00000EB0A1021688900B0FBF1F86420B8FB10
:102EE000F0F006013009642101FB1089A88900F483
:102EF000004040B1322000EBC900B0FBF1F000F01F
:102F00000700064308E0322000EB09106421B0FB03
:102F1000F1F000F00F0006432E8106B0BDE8F08707
:102F20004FF41651016000218180C18001810C2184
:102F3000418100218181704770B505460C4600260D
:102F40005B48854205D05B48854202D05A4885429D
:102F500000D104E04FF48F715AA000F093FD208857
:102F600018B12088B0F5006F00D104E040F21F11C5
:102F700054A000F087FD608818B16088B0F5806FBC
:102F800000D104E04FF490714EA000F07BFDA088CA
:102F900018B1A088B0F5007F00D104E040F2211103
:102FA00048A000F06FFDE08818B1E088B0F5807FA0
:102FB00000D104E04FF4917142A000F063FD2E8A2D
:102FC0004FF2FF000640208861880843A18808432B
:102FD000E188084306432E8270BD002101804180B4
:102FE0008180C180704770B504460D4630488442E8
:102FF0000BD03048844208D02F48844205D02F4857
:10300000844202D02E48844200D104E04FF4A771DC
:103010002CA000F037FD0DB1012D00D104E040F2ED
:103020004F1128A000F02EFD25B1A08940F40050DA
:10303000A08104E0A0894DF6FF710840A08170BD19
:103040002DE9F04705460C4617464FF00008C246EA
:10305000C1460026164885420BD01648854208D046
:103060001548854205D01548854202D0144885424E
:1030700000D104E04FF4B97112A000F003FD282C38
:103080003CD040F22770844238D040F2266084421F
:1030900034D040F22550844230D040F22440844263
:1030A0002CD040F64600844228D040F66A1021E039
:1030B000003801400044004000480040004C0040FF
:1030C000005000402E2E5C6C69625C73745F6C690A
:1030D000625C66776C69625C7372635C73746D3397
:1030E00032663130785F75736172742E6300000050
:1030F00021AA4400844201D0602C00D105E040F2B6
:103100007311AFF2400000F0BDFC0FB1012F00D1F0
:1031100005E04FF4BA71AFF2540000F0B3FC40F692
:103120006A1084420FD1F948854205D0F84885429B
:1031300002D0F848854200D105E040F27711AFF2A5
:103140007C0000F09FFC2E46C4F3421804F01F0AD6
:10315000012000FA0AF9B8F1010F01D10C3605E09F
:10316000B8F1020F01D1103600E0143627B13068F3
:1031700040EA0900306003E0306820EA090030606E
:10318000BDE8F08770B504460D461646DF48844218
:103190000BD0DF48844208D0DE48844205D0DE48A8
:1031A000844202D0DD48844200D105E040F2A31100
:1031B000AFF2F00000F066FC4FF63F70284008B90F
:1031C00005B105E04FF4D271AFF2081000F05AFCDF
:1031D0000EB1012E00D105E040F2A511AFF21C1096
:1031E00000F050FC1EB1A08A2843A08202E0A08A11
:1031F000A843A08270BD70B504460D46C348844202
:103200000BD0C348844208D0C248844205D0C2488B
:10321000844202D0C148844200D105E04FF4DE71FF
:10322000AFF2601000F02EFC0F2D00DC05E040F244
:10323000BD11AFF2701000F025FC208A4FF6F0713E
:1032400008402082208A2843208270BD70B5044641
:103250000D46AE4884420BD0AD48844208D0AD48FC
:10326000844205D0AC48844202D0AC48844200D1AC
:1032700005E040F2D311AFF2B41000F003FC15B139
:10328000B5F5006F00D105E04FF4EA71AFF2CC1054
:1032900000F0F8FBA0894FF2FF710840A081A089DF
:1032A0002843A08170BD70B504460D4697488442FE
:1032B0000BD09748844208D09648844205D096485F
:1032C000844202D09548844200D105E04FF4F37166
:1032D000AFF2102000F0D6FB0DB1012D00D105E0BA
:1032E00040F2E711AFF2242000F0CCFB25B1A08919
:1032F00040F00200A08104E0A0894FF6FD71084073
:10330000A08170BD70B504460D46804884420BD044
:103310007F48844208D07F48844205D07E4884425A
:1033200002D07E48844200D105E04FF40071AFF234
:103330006C2000F0A7FB0DB1202D00D105E040F27C
:103340000121AFF2802000F09DFB208A4FF6DF7153
:1033500008402082208A2843208270BD70B5044630
:103360000D466A4884420BD06948844208D06948B7
:10337000844205D06848844202D06848844200D123
:1033800005E040F21321AFF2C42000F07BFB0DB149
:10339000012D00D105E04FF40571AFF2D82000F007
:1033A00071FB25B1208A40F48040208204E0208A0D
:1033B0004BF6FF710840208270BD70B504460D4683
:1033C000524884420BD05248844208D0514884422B
:1033D00005D05148844202D05048844200D105E0D3
:1033E00040F22A21AFF2243000F04CFBB5F5007F0B
:1033F00000DA05E040F22B21AFF2383000F042FB5A
:10340000C5F30800A08070BD10B504463F48844253
:103410000BD03F48844208D03E48844205D03E4805
:10342000844202D03D48844200D105E040F23B2175
:10343000AFF2703000F026FBA088C0F3080010BD8A
:1034400010B50446314884420BD03148844208D03C
:103450003048844205D03048844202D02F4884420C
:1034600000D105E040F24B21AFF2A83000F00AFB9A
:10347000A08940F00100A08110BD70B504460D4642
:103480002248844205D02248844202D02148844206
:1034900000D105E040F25B21AFF2D83000F0F2FA43
:1034A000208BC0B22083208B40EA0520208370BD92
:1034B00070B504460D46154884420BD0144884422A
:1034C00008D01448844205D01348844202D01348DF
:1034D000844200D105E040F26F21AFF2184000F0C5
:1034E000D1FA208B00F47F402083208B2843208357
:1034F00070BD70B504460D460448844205D00448AA
:10350000844202D0034884420AD10FE000380140CF
:103510000044004000480040004C00400050004083
:1035200040F28221AFF2644000F0ACFA0DB1012DFF
:1035300000D105E040F28321AFF2784000F0A2FA1A
:1035400025B1A08A40F02000A08204E0A08A4FF6B6
:10355000DF710840A08270BD70B504460D46F94881
:10356000844205D0F848844202D0F848844200D111
:1035700005E04FF42671AFF2B44000F083FA0DB1CC
:10358000012D00D105E040F29921AFF2C84000F0D2
:1035900079FA25B1A08A40F01000A08204E0A08A48
:1035A0004FF6EF710840A08270BD70B504460D461D
:1035B000E44884420BD0E448844208D0E348844283
:1035C00005D0E348844202D0E248844200D105E0BD
:1035D00040F2AF21AFF2145000F054FA0DB1012DBA
:1035E00000D105E04FF42C71AFF2285000F04AFAF8
:1035F00025B1A08A40F00800A08204E0A08A4FF61E
:10360000F7710840A08270BD70B504460D46CD48E4
:1036100084420BD0CC48844208D0CC48844205D0A8
:10362000CB48844202D0CB48844200D105E040F22E
:10363000CB21AFF2705000F025FA0DB1012D00D171
:1036400005E04FF43371AFF2845000F01BFA25B15E
:10365000A08940F40040A08103E0A089C0F30E00DF
:10366000A08170BD70B504460D46B64884420BD0AB
:10367000B548844208D0B548844205D0B448844255
:1036800002D0B448844200D105E040F2E321AFF219
:10369000CC5000F0F7F90DB1012D00D105E04FF449
:1036A0003971AFF2E05000F0EDF925B1A08A40F495
:1036B0000060A08204E0A08A4FF2FF710840A0825F
:1036C00070BD70B504460D469E4884420BD09E489E
:1036D000844208D09D48844205D09D48844202D04F
:1036E0009C48844200D105E040F2FD21AFF22C60FD
:1036F00000F0C8F9042D00D005B905E040F2FE2124
:10370000AFF2406000F0BEF9A08A4FF6FB710840AE
:10371000A082A08A2843A08270BD70B504460D46E1
:10372000884884420BD08848844208D08748844225
:1037300005D08748844202D08648844200D105E003
:103740004FF44471AFF2846000F09CF90DB1012D8B
:1037500000D105E040F21131AFF2986000F092F92B
:1037600025B1A08A40F00200A08204E0A08A4FF6B2
:10377000FD710840A08270BD70B505460C4600265C
:10378000704885420BD07048854208D06F4885420A
:1037900005D06F48854202D06E48854200D105E0D1
:1037A00040F23331AFF2E46000F06CF9012C13D039
:1037B000802C11D0402C0FD0202C0DD0102C0BD0F1
:1037C000B4F5807F08D0B4F5007F05D0082C03D075
:1037D000042C01D0022C00D105E04FF44D71AFF262
:1037E0001C7000F04FF9B4F5007F0FD155488542A9
:1037F00005D05548854202D05448854200D105E0A5
:1038000040F23731AFF2447000F03CF92888204094
:1038100008B1012600E00026304670BD70B50446B0
:103820000D46484884420BD04748844208D0474858
:10383000844205D04648844202D04648844200D1A2
:1038400005E040F25F31AFF2847000F01BF94FF6F3
:103850009F40284008B905B105E04FF45871AFF218
:103860009C7000F00FF905F40070B0F5007F0FD1E7
:103870003448844205D03448844202D033488442DC
:1038800000D105E040F26331AFF2C87000F0FAF801
:10389000E843208070BD2DE9F04705460C4600271F
:1038A0000026B046B146274885420BD026488542BF
:1038B00008D02648854205D02548854202D02548B3
:1038C000854200D105E040F28131AFF6080000F0FA
:1038D000D9F8282C20D040F2277084421CD040F226
:1038E0002660844218D040F22550844214D040F221
:1038F0002440844210D040F6460084420CD040F66A
:103900006A10844208D0B4F5587F05D0B4F5187F0A
:1039100002D0B4F5B07F00D105E040F28231AFF6BD
:103920005C0000F0AFF840F66A1084421AD10548F6
:10393000854205D00448854202D0044885420BD117
:1039400010E0000000380140004400400048004002
:10395000004C00400050004040F28531AFF69C0022
:1039600000F090F8C4F3421804F01F06012000FA9A
:1039700006F6B8F1010F02D1A889064007E0B8F1B8
:10398000020F02D1288A064001E0A88A06402712C9
:10399000012000FA07F7288807401EB117B14FF041
:1039A000010901E04FF000094846BDE8F0872DE924
:1039B000F04104460D4600260027244884420BD0DF
:1039C0002348844208D02348844205D022488442B8
:1039D00002D02248844200D105E040F2C131AFF666
:1039E0001C1000F04FF840F2266085420BD040F2E8
:1039F0002550854207D040F64600854203D040F668
:103A00006A10854200D105E040F2C231AFF64C1099
:103A100000F038F840F66A1085420FD10B48844216
:103A200005D00B48844202D00A48844200D105E008
:103A300040F2C531AFF6741000F024F82E120120C8
:103A4000B04087B2F8432080BDE8F08100380140E3
:103A50000044004000480040004C0040005000403E
:103A60000648804706480047FEE7FEE7FEE7FEE718
:103A7000FEE7FEE7FEE7FEE7FEE7FEE70F190008B8
:103A800031010008704710B500F0B6F8002201219E
:103A90004FF4165000F000F9002202214FF41650A6
:103AA00000F07CFB00F06EF910BD3EB5044600202E
:103AB0000290FFF7E8FF02A805210023FE22CDE9CE
:103AC00000103BA13D48FCF784FC0020FCF7CFFC34
:103AD0003EBD0EB50020029002A805210023FE2263
:103AE000CDE9001036A1AFF23D00FCF772FC029860
:103AF00010B90298FCF7BBFC0EBD10B53348006846
:103B0000401C3249086000F0F0F900F0F1FB2F484A
:103B100000684FF47A71B0FBF1F201FB120078BB40
:103B200000BF2B48007840B14FF400512948FEF700
:103B3000BEF900202649087007E04FF400512548DF
:103B4000FEF7E0F901202249087000BF2248007802
:103B5000B0B100202049087000BF2048007838B17B
:103B600001211F48FEF7A3F900201C49087006E058
:103B700001211B48FEF7C6F901201849087000BF53
:103B800010BD12480068704786B0012140F2FD1058
:103B9000FEF769FF4FF44070FDF760FD01A8FEF7E6
:103BA000CFFEFFF796FFFDF744F800E000BFFDE70A
:103BB0007461736B5F3438350000000017480008EB
:103BC000696E69745F7461736B000000800000208F
:103BD0008400002000140140A10000208500002086
:103BE00000080140704700BFFEE700BFFEE700BFCE
:103BF000FEE700BFFEE7704708B54FF40050ADF890
:103C0000000003208DF8020010208DF803006946A3
:103C10000848FDF777FF0120ADF8000003208DF87C
:103C2000020010208DF8030069460348FDF76AFF83
:103C300008BD0000001401400008014006E0052115
:103C400000BF0A00A1F1010399B2FAD10200A0F16C
:103C5000010398B2F3D170478E2000BF411EC9B254
:103C60000800FBD17047002000BF01E0411CC8B232
:103C70002128FBDB7047002107E04FF4FA5100BF19
:103C80000A00A1F1010399B2FAD10200A0F10103E7
:103C900098B2F2D17047000070B586B006460C4667
:103CA000154601218803FEF7DEFE4FF40070ADF8E3
:103CB000140018208DF8170003208DF8160005A9B0
:103CC0002D48FDF71FFF4FF48060ADF81400482029
:103CD0008DF8170005A92848FDF714FF019600206C
:103CE000ADF80800ADF80A00ADF80C00ADF8100012
:103CF0000C20ADF80E0001A92048FFF730F8252070
:103D00008DF800008DF801408DF8025001208DF8EB
:103D100003006846FDF7BDFC012240F2255117481B
:103D2000FFF78EF901211548FFF75DF9402113488F
:103D3000FFF774FD06B070BD10B5044621460F486C
:103D4000FFF73BFB00BF80210C48FFF715FD002863
:103D5000F9D010BD10B540F225510848FFF79BFD82
:103D600040B10648FFF750FB054908700846007847
:103D700000F05FFB10BD000000080140003801406A
:103D80008600002008B53820ADF8000003208DF82B
:103D9000020004208DF803006946EF48FDF7B2FEEB
:103DA0004FF40140ADF8000003208DF80200102010
:103DB0008DF803006946E848FDF7A4FE4FF44E7005
:103DC000ADF8000003208DF8020010208DF80300EC
:103DD0006946E248FDF796FE4FF48050ADF80000CA
:103DE00003208DF8020010208DF803006946DB489F
:103DF000FDF788FE0121DA48FEF7B4F9FF20ADF89F
:103E0000000003208DF8020010208DF803006946A1
:103E1000D448FDF777FE41F60640ADF800000320D8
:103E20008DF8020010208DF803006946CE48FDF79A
:103E300069FE4FF40071C948FEF764F88021C94853
:103E4000FEF760F80821C748FEF75CF84FF4805190
:103E5000C548FEF757F84FF48071C048FEF752F896
:103E60004021C048FEF74EF80421BE48FEF74AF84C
:103E70004FF40061BC48FEF745F82021B748FEF733
:103E800041F82021B748FEF73DF80221B548FEF77A
:103E900039F84FF48061B448FEF734F81021AF4888
:103EA000FEF730F81021AF48FEF72CF80121AD489D
:103EB000FEF728F84FF40041A748FEF723F8082141
:103EC000A648FEF71FF80820ADF8000003208DF883
:103ED000020010208DF803006946A448FDF712FE89
:103EE0000821A248FEF70EF808BD7CB508219A48C3
:103EF000FDF7CDFE044610219748FDF7C8FE0546A4
:103F000020219548FDF7C3FE06469948007848B140
:103F100000209749087097480470974805709748A3
:103F200006707CBD9348007884425FD0914804704D
:103F3000002C52D1002092490870924908804FF419
:103F400000718648FDF7B3FF4FF480718348FDF799
:103F5000AEFF20218148FDF7AAFF40218148FDF7EF
:103F6000A6FF20217F48FDF7A2FF04217D48FDF731
:103F70009EFF02217C48FDF79AFFD8208DF80000B3
:103F800000208DF801008048007840F003008DF893
:103F9000020000208DF803008DF804008DF8050064
:103FA0008DF806009DF800009DF8011048409DF82E
:103FB000021048409DF8031048409DF80410484006
:103FC0009DF8051048409DF8061048408DF8070000
:103FD0000821684600F058F908E0012C06D10120BC
:103FE000674908704EF66020664908806548008879
:103FF00020B164480088401E62490880604800780B
:10400000012853D15F48008800284FD15C490870CF
:104010004FF400715148FDF775FF80215148FDF7BD
:1040200071FF08214F48FDF76DFF4FF480514E4856
:10403000FDF768FF4FF480714848FDF763FF4021AA
:104040004848FDF75FFF04214648FDF75BFF4FF44A
:1040500000614548FDF756FF20214048FDF752FF1B
:1040600020214048FDF74EFF02213E48FDF74AFF60
:104070004FF480613C48FDF745FF10213748FDF7BC
:1040800041FF10213748FDF73DFF01213548FDF77D
:1040900039FF4FF400413048FDF734FF08212F4825
:1040A000FDF730FF02213048FDF72CFF3248007841
:1040B00085420FD030480570012C0BD155B9012035
:1040C000324908704EF660203149088021022348A9
:1040D000FDF7EDFE2E48008820B12D480088401ED7
:1040E0002B4908802948007801280AD128480088EF
:1040F00038B90020254908704FF480711748FDF742
:1041000001FF1E48007886420DD01C48067056B943
:104110000120204908704FF4FA601F4908800821E7
:104120001248FDF7C4FE1C48008820B11A480088D8
:10413000401E1949088017480078012809D11648FF
:10414000008830B900201349087008210748FDF79E
:10415000D9FE00BFE5E6000000080140000C014068
:10416000000230000014014000100140001801401E
:1041700088000020890000208A0000208B00002099
:104180008E0000208C0000209A0000209200002069
:1041900090000020930000209400002070B586B0AD
:1041A00006460C46154601218804FEF785FC4FF4AF
:1041B0008060ADF8140018208DF8170003208DF8EA
:1041C000160005A92D48FDF79DFC4FF40060ADF8E1
:1041D000140048208DF8170005A92848FDF792FC27
:1041E00001960020ADF80800ADF80A00ADF80C000B
:1041F000ADF810000C20ADF80E0001A92048FEF724
:10420000AEFD27208DF800008DF801408DF802509A
:1042100001208DF803006846FDF73BFA012240F2C9
:1042200025511748FEF70CFF01211548FEF7DBFE6C
:1042300040211348FFF7F2FA06B070BD10B50446EE
:1042400021460F48FFF7B9F800BF80210C48FFF75F
:1042500093FA0028F9D010BD10B540F22551084856
:10426000FFF719FB40B10648FFF7CEF80549087083
:104270000846007800F0DDF810BD0000000C014099
:10428000004800409600002070B504460D46FDF73A
:1042900015F94FF48071F848FDF709FE4FF480518D
:1042A000F648FDF704FE3220FFF7E5FC002604E0A7
:1042B000A05DFFF741FD701CC6B2AE42F8DB0026E0
:1042C00004E0A05DFFF7BAFF701CC6B2AE42F8DB97
:1042D0004FF48071E848FDF715FE4FF48051E74830
:1042E000FDF710FE3220FFF7C6FCFDF7F6F870BDB3
:1042F0001CB5E348008820B1E1480088401EE04931
:104300000880E0480078012835D1DD48008890BB5E
:104310000020DC490870D8208DF8000000208DF8BE
:1043200001008DF802008DF80300D748007820F0D6
:1043300004008DF8040000208DF805008DF80600BB
:104340009DF800009DF8011048409DF8021048407B
:104350009DF8031048409DF8041048409DF8051052
:1043600048409DF8061048408DF80700082168462F
:10437000FFF78AFF00BF1CBD00B585B00020C34910
:104380000870C3480078012840D141208DF8000012
:1043900043208DF8010054208DF8020011208DF883
:1043A000030001208DF804008DF805008DF806004B
:1043B00000208DF8070001208DF8080019208DF8E5
:1043C000090014208DF80A0000208DF80B00302021
:1043D0008DF80C0008208DF80D0030208DF80E00AF
:1043E00012208DF80F0006208DF8100017208DF890
:1043F00011000F230DF103020DF11201481C00F012
:1044000023FA14216846FFF73FFF10E0A048007828
:1044100002280CD174208DF80000AA208DF801002C
:10442000DE208DF8020003216846FFF72DFF05B05E
:1044300000BD7CB505460120964908709448007877
:10444000012878D1944895490978455493480078D3
:10445000401C9249087090480078412802D0002002
:1044600008707CBD8C484078432803D000208B49DD
:104470000870F6E788488078542803D000208749E0
:104480000870EEE785480078142866DB0F23824A1F
:10449000D21C694601A800F0D7F97F48C07C9DF87E
:1044A0000410884259D17C48807C9DF800108842D5
:1044B00053D1012075490870774C641D207801287C
:1044C00004D104217648FDF7F2FC0DE0207858B9BC
:1044D00004217348FDF716FD02217148FDF712FD16
:1044E00001216F48FDF70EFDE07820B904216C48EA
:1044F000FDF7DDFC16E0E078012804D104216848CE
:10450000FDF7D5FC0EE0E078022804D102216448D2
:10451000FDF7CDFC06E0E078032803D101216048D7
:10452000FDF7C5FC20796179884205D104215C48FA
:10453000FDF7BDFC11E011E020796179884204DDCE
:1045400001215748FDF7B3FC07E0207961798842E3
:1045500003DA01215248FDF7AAFC5AE14C480078E1
:104560000228FAD14C484D49097845544B48007807
:10457000401C4A49087048480078102803DB464828
:104580000078732803DD00204449087069E7434838
:1045900000780328E1DB0020404908703E4800789D
:1045A0001028DADB3C4800787328D6DC0120374934
:1045B000087039480078122802D014285BD175E0C1
:1045C00035484078374908703348407800F001009A
:1045D00020B110212948FDF76AFC03E0102127488B
:1045E000FDF790FC2C48407800F0020020B18021BB
:1045F0002B48FDF75CFC03E080212948FDF782FC95
:104600002548407800F0040020B120211B48FDF728
:104610004EFC03E020211948FDF774FC1E48407849
:1046200000F0080028B14FF480711448FDF73FFCFA
:1046300004E04FF480711148FDF764FC164840789F
:1046400000F0100020B104211748FDF75BFC03E0E7
:1046500004211548FDF72BFC0F48407800F020009E
:1046600020B102211048FDF74DFC03E002210E4865
:10467000FDF71DFCCCE0CAE000080140000C014041
:104680009E0000209C0000209B000020A000002035
:1046900098000020A10000206C4500209900002017
:1046A000001401409A000020001001405F4840784B
:1046B0005F4908705D48407800F0010028B14FF470
:1046C00080715C48FDF7F3FB04E04FF480715948BA
:1046D000FDF718FC5548407800F0020020B34FF475
:1046E00080715448FDF7E3FB20215248FDF7DFFBC2
:1046F00010215048FDF7DBFB08214E48FDF7D7FBA2
:1047000080214D48FDF7D3FB40214B48FDF7CFFBFF
:1047100020214948FDF7CBFB10214748FDF7C7FB97
:1047200008214548FDF7C3FB4048407800F00400ED
:10473000D0B304214048FDF7BAFB4FF480713D48E7
:10474000FDF7E0FB4FF480713A48FDF7DBFB2021D9
:104750003848FDF7D7FB10213648FDF7D3FB082179
:104760003448FDF7CFFB10213248FDF7CBFB082181
:104770003048FDF7C7FB80212F48FDF7C3FB4021E0
:104780002D48FDF7BFFB20212B48FDF7BBFB102177
:104790002948FDF7B7FB08212748FDF7B3FB0121A6
:1047A0002548FDF7AFFB07E0FFE70120234908702C
:1047B00047F23050224908801C48407800F0080039
:1047C00020B320211C48FDF772FB10211A48FDF789
:1047D0006EFB4FF480711748FDF794FB20211548BC
:1047E000FDF790FB10211348FDF78CFB08211148C1
:1047F000FDF788FB80211048FDF784FB40210E481F
:10480000FDF780FB08210C48FDF77CFB00E000BFB2
:1048100000BF00BF25E608E002200A490870FFF744
:10482000ABFD4FF49670FBF7F9FFF5E76C45002000
:104830009B000020000C0140001401409C0000205F
:104840009E00002098000020F0B504460D464FF66B
:10485000FF70002112E0575C784000260AE000F06B
:10486000010727B140104AF20107784000E04010EC
:10487000771CFEB2082EF2DB4F1CF9B29942EADB3C
:10488000070A27702870F0BD064C074D06E0E06867
:1048900040F0010394E8070098471034AC42F6D387
:1048A000FBF74AFCCC480008EC48000802E008C8C6
:1048B000121F08C1002AFAD170477047002001E09A
:1048C00001C1121F002AFBD170470000EC4800080C
:1048D00000000020A4000000AC4800089049000837
:1048E000A4000020CC490000BC48000800000000E3
:1048F00000000000000000000000000000000000B8
:1049000000000000000000000000000000000000A7
:104910000000000000000000000000000000000097
:104920000000000000000000AAAAAAAA00000000DF
:10493000000000000000000000000000F84300003C
:104940000000000000A24A04000000000000000077
:104950000102030406070809000000000102030425
:10496000010203040607080902040608000000000B
:10497000000000000103030300000000000000002D
:104980000000000001000000000000000000000026
:0400000508000131BD
:00000001FF
