:020000040800F2
:1000000030500020E9010008D7030008CF030008A2
:10001000D3030008AB0200080D0A0008000000002E
:100020000000000000000000000000004501000882
:10003000AF0200080000000089010008691E0008E6
:10004000030200080302000803020008030200087C
:10005000030200080302000803020008030200086C
:10006000030200080302000803020008030200085C
:10007000030200080302000803020008030200084C
:10008000030200080302000803020008030200083C
:10009000010A000803020008030200080302000826
:1000A000030200080302000803020008030200081C
:1000B0000302000803020008B90600080302000852
:1000C00003020008030200080302000803020008FC
:1000D000030200080302000803020008ED070008FD
:1000E00003020008030200080302000803020008DC
:1000F00003020008030200080302000803020008CC
:1001000003020008030200080302000803020008BB
:1001100003020008030200080302000803020008AB
:10012000030200080302000803020008030200089B
:10013000DFF80CD000F07CF800480047CD14000830
:1001400030500020204B19680868B0E8F00F80F3A9
:100150000988BFF36F8F4FF0000080F311884EF0D5
:100160000D0E70470000000006480068006880F32C
:10017000088862B661B6BFF34F8FBFF36F8F00DFA1
:1001800000BF00BF08ED00E0EFF30980BFF36F8F01
:100190000D4B1A6820E9F00F106008B54FF0BF0052
:1001A00080F3118801F08EFC4FF0000080F311887D
:1001B000BDE8084019680868B0E8F00F80F30988C6
:1001C000BFF36F8F704700BF28000020EFF311804E
:1001D0004FF0BF0181F31188704780F31188704799
:1001E000EFF3058070470000064880470648004747
:1001F000FEE7FEE7FEE7FEE7FEE7FEE7FEE7FEE7D7
:10020000FEE7FEE7590600083101000840EA010355
:100210009B0703D009E008C9121F08C0042AFAD2BC
:1002200003E011F8013B00F8013B521EF9D2704780
:10023000064C074D06E0E06840F0010394E8070033
:1002400098471034AC42F6D3FFF776FF80230008BE
:10025000A023000870B58C1810F8015B15F0070397
:1002600001D110F8013B2A1106D110F8012B03E04F
:1002700010F8016B01F8016B5B1EF9D12B0705D457
:100280000023521E0DD401F8013BFAE710F8013BA0
:10029000CB1A921C03E013F8015B01F8015B521EBC
:1002A000F9D5A142D8D3002070BD00BFFEE770474A
:1002B0002DE9F041024600250026002000230024FD
:1002C000002791F803C00CF00F0591F803C00CF063
:1002D000100CBCF1000F03D091F802C04CEA0505E8
:1002E00091F800C0BCF1000F31D0146800202BE061
:1002F0004FF0010C0CFA00F3B1F800C00CEA030651
:100300009E4220D183004FF00F0C0CFA03F7BC4340
:1003100005FA03FC4CEA040491F803C0BCF1280F71
:1003200006D14FF0010C0CFA00FCC2F814C00AE030
:1003300091F803C0BCF1480F05D14FF0010C0CFA45
:1003400000FCC2F810C0401C0828D1D31460B1F8DA
:1003500000C0BCF1FF0F34DD546800202EE000F136
:10036000080C4FF0010808FA0CF3B1F800C00CEAD1
:1003700003069E4221D183004FF00F0C0CFA03F7C5
:10038000BC4305FA03FC4CEA040491F803C0BCF139
:10039000280F05D100F1080C08FA0CF8C2F81480F7
:1003A00091F803C0BCF1480F07D100F1080C4FF0E1
:1003B000010808FA0CF8C2F81080401C0828CED3B7
:1003C0005460BDE8F081416170470161704700BF32
:1003D000FEE700BFFEE7704770B5002100230F2243
:1003E000C47804B3154C246804F4E064C4F5E064F4
:1003F000210AC1F10403CA40447804FA03F1847865
:100400001440214309010E4C0678A155047804F0EC
:100410001F050124AC4005786D11AD0005F1E02504
:10042000C5F8004109E0047804F01F050124AC4040
:10043000044D0678761145F8264070BD0CED00E0BD
:1004400000E400E080E100E002490143024A11605B
:10045000704700000000FA050CED00E029B1064AE3
:10046000D2690243044BDA6104E0034AD269824351
:10047000014BDA61704700000010024029B1064AC2
:1004800092690243044B9A6104E0034A92698243F1
:10049000014B9A61704700000010024030B5002106
:1004A0000022002400232D4D6D6805F00C0121B1C0
:1004B000042905D0082923D105E0294D056022E053
:1004C000274D05601FE0254D6D6805F47012234D22
:1004D0006D6805F48034022505EB92421CB9214D6C
:1004E000554305600BE01D4D6D6805F400351DB1E9
:1004F0001C4D5543056002E0194D5543056002E06F
:10050000174D056000BF00BF144D6D6805F0F00188
:100510000909154D6B5C0568DD4045600F4D6D6840
:1005200005F4E061090A104D6B5C4568DD408560AB
:100530000A4D6D6805F46051C90A0B4D6B5C456846
:10054000DD40C560054D6D6805F44041890B074DE0
:100550006B5CC568B5FBF3F5056130BD001002406A
:1005600000127A0000093D00000000201000002069
:1005700010B500F001F810BD0CB5002001900090FE
:100580003348006840F480303149086000BF30488B
:10059000006800F4003000900198401C0190009821
:1005A00018B90198B0F5A06FF1D12948006800F49E
:1005B000003010B10120009001E000200090009870
:1005C000012843D12348006840F010002149086009
:1005D0000846006820F0030008600846006840F004
:1005E000020008601A484068194948600846406897
:1005F00048600846406840F48060486008464068AB
:1006000020F47C1048600846406840F4E8104860D8
:100610000846006840F08070086000BF0C48006821
:1006200000F000700028F9D00948406820F003006D
:10063000074948600846406840F00200486000BF33
:100640000348406800F00C000828F9D10CBD0000F8
:10065000001002400020024010B51348006840F02E
:1006600001001149086008464068104908400E49D9
:100670004860084600680E4908400B490860084673
:10068000006820F4802008600846406820F4FE00DE
:1006900048604FF41F008860FFF76AFF4FF000606A
:1006A0000449086010BD0000001002400000FFF87F
:1006B000FFFFF6FE08ED00E010B50121054800F04F
:1006C00026F828B10121034800F012F801F026F8BD
:1006D00010BD00000008004021B1028842F08002F5
:1006E000028004E002884FF67F731A400280704750
:1006F000CA430282704721B1028842F0010202809F
:1007000004E002884FF6FE731A400280704730B54D
:100710000246002000230024158A05EA010395897A
:1007200005EA010413B10CB1012000E0002030BD46
:100730001AB183890B43838102E083898B438381D0
:100740007047818470470000002202881D4B984248
:100750000ED01D4B98420BD0B0F1804F08D01B4BF0
:10076000984205D01A4B984202D01A4B984204D1B5
:100770004FF68F731A404B881A43174B984207D095
:10078000164B984204D04FF6FF431A40CB881A43C9
:1007900002808B8883850B8803850A4B98420BD097
:1007A000094B984208D00E4B984205D00D4B984209
:1007B00002D00D4B984201D10B7A0386012383822C
:1007C00070470000002C014000340140000400404C
:1007D00000080040000C00400010004000140040E1
:1007E00000400140004401400048014010B540F283
:1007F00025510D4800F03EF8012806D100F096FF83
:1008000040F22551084800F01AF840F227710648D6
:1008100000F030F8012806D100F090FF40F2277177
:10082000014800F00CF810BD0048004001F40072CF
:10083000B2F5007F00D100BFCA430280704710B5F7
:100840000022002340F66A14A14200D100BF0A1220
:1008500001249440A3B2DC43048010BD21B18289FD
:1008600042F40052828104E082894DF6FF731A40FF
:100870008281704770B502460024002300250020C5
:1008800040F66A16B14200D100BFC1F3421501F033
:100890001F03012606FA03F3012D02D19689334086
:1008A00006E0022D02D1168A334001E0968A3340D9
:1008B0000C12012606FA04F41688344013B10CB168
:1008C000012000E0002070BDF0B5034600240026A2
:1008D0000025002040F66A17B94200D100BF184633
:1008E000C1F3421401F01F06012707FA06F5012C97
:1008F00001D10C3004E0022C01D1103000E01430A2
:100900001AB107682F43076002E00768AF4307602A
:10091000F0BD00002DE9F04786B005460E460024E4
:10092000A24600BFA1460027B08900B100BF2F46F4
:100930002C8A4CF6FF700440F08804432C82AC896A
:100940004EF6F3100440B08831890843718908439A
:100950000443AC81AC8A4FF6FF400440B0890443A5
:10096000AC8201A8FFF79AFD1F48874202D1DDF84B
:1009700010A001E0DDF80CA0A88900F4004040B10F
:100980000AEBCA0000EB0A1031684900B0FBF1F82D
:1009900007E00AEBCA0000EB0A1031688900B0FBDF
:1009A000F1F86420B8FBF0F004012009642101FB98
:1009B0001089A88900F4004040B1322000EBC90042
:1009C000B0FBF1F000F00700044308E0322000EB38
:1009D00009106421B0FBF1F000F00F0004432C81FA
:1009E00006B0BDE8F0870000003801400146888865
:1009F000C0F308007047C1F308028280704700000E
:100A00000148C069704700000010024000BFFEE7C7
:100A1000014A024900F016B8B9140008500100203C
:100A200002E008C8121F08C1002AFAD170477047B7
:100A3000002001E001C1121F002AFBD1704780F3A2
:100A4000108870472DE9F04116460F4604460025F0
:100A500003E03946B047641C6D1C20780028F8D1AB
:100A60002846BDE8F08110B54FF44070FFF7ECFC6C
:100A700000F002F810BD000008B501210802FFF7E0
:100A8000FDFC012000F010F803208DF8020010207A
:100A90008DF803004002ADF8000069460148FFF7F9
:100AA00007FC08BD00200140411EC8B220B94FF428
:100AB00000510B4A116111E0012803D18021094A3C
:100AC00011600BE0022803D1C101064A116005E064
:100AD000032803D14FF40071024A116070470000EF
:100AE00000200140101C014010B500240648007889
:100AF000012806D105480068804700200249087097
:100B000000E00624204610BD8E0000209400002046
:100B10002DE9F05F06460D464FF0000B28880528AA
:100B200048D170784FEA0029B07840EA090909F104
:100B300001001FFA80F9F078040230790443012C97
:100B400035DBB4F5FA6F32DA374600202880012011
:100B500007F8010B2888401C288004F0070040B1EA
:100B60002046E11704EB5171C910491C01F0FF0840
:100B700005E02046E11704EB5171C1F3C70807F8FF
:100B8000018B2888401C288000232246494638468D
:100B900000F022FC8246BAF1000F04D0504600F06B
:100BA000ABFD834608E028884044288004E04FF0ED
:100BB000030B01E04FF0030B5846BDE8F09F2DE911
:100BC000F05F06460D464FF0000B2888052847D1F8
:100BD00070784FEA0029B07840EA090909F101006C
:100BE0001FFA80F9F078040230790443012C34DBD9
:100BF000B4F5FA6F31DA374600202880022007F872
:100C0000010B2888401C288004F0070040B12046D2
:100C1000E11704EB5171C910491C01F0FF0805E010
:100C20002046E11704EB5171C1F3C70807F8018BA7
:100C30002888401C288022464946384600F0D0FBD0
:100C40008246BAF1000F04D0504600F055FD8346AD
:100C500008E028884044288004E04FF0030B01E0BE
:100C60004FF0030B5846BDE8F09F2DE9F0470546CD
:100C70000C464FF0000A2088052837D168784FEAE3
:100C80000028A87840EA080808F101001FFA80F857
:100C9000E87806022E79012E25DB7D2E23DC2F46F7
:100CA00000202080032007F8010B2088401C2080B2
:100CB0007006000E07F8010B2088401C20800023DE
:100CC00032464146384600F08FFB8146B9F1000FAD
:100CD00004D0484600F010FD824609E0208800EB71
:100CE0004600208004E04FF0030A01E04FF0030AC1
:100CF0005046BDE8F0872DE9F04705460C464FF019
:100D0000000A2088052837D168784FEA0028A8789B
:100D100040EA080808F101001FFA80F8E8780602A6
:100D200028790643012E24DB7D2E22DA2F4600206F
:100D30002080042007F8010B2088401C20807006CA
:100D4000000E07F8010B2088401C208032464146E7
:100D5000384600F08BFB8146B9F1000F04D04846BD
:100D600000F0CAFC824609E0208800EB46002080A3
:100D700004E04FF0030A01E04FF0030A5046BDE8DB
:100D8000F0872DE9FC5F04460D460020009028887E
:100D90000A285DDB60784FEA002AA07840EA0A0A58
:100DA0000AF101001FFA80FAE07806022079064372
:100DB00060794FEA002BA07940EA0B0B0BF10100A0
:100DC0001FFA80FBE0790702207A0743607A0190DE
:100DD000012E3BDB7D2E39DC012F37DB792F35DC13
:100DE00079000198814231D101233A46594604F1F4
:100DF0000A0000F0F9FA8146B9F1000F1ED1A046B1
:100E000000202880172008F8010B2888401C288023
:100E10007006000E08F8010B2888401C288000236B
:100E200032465146404600F0DFFA8146B9F1000FE4
:100E300004D12888022101FB06002880B9F1000FA7
:100E400006D0484600F058FC009001E003200090D6
:100E50000098BDE8FC9F000070B505460C460648AA
:100E600002880649681CFFF7D1F903480088401C36
:100E70002080002070BD00007C000020084600207B
:100E80002DE9F84304460F464FF00008388805283E
:100E900029D160780502A0780543681C85B22079C5
:100EA000F0B9E078FF2801D0E078C8B900208DF8CB
:100EB0000100E078FF2803D101208DF8000002E056
:100EC00000208DF8000001231A462946684600F0EC
:100ED00083FA06464EB1304600F00EFC804604E030
:100EE0004FF0030801E04FF003084046BDE8F883E7
:100EF0002DE9F04104460F464FF0000838880528D8
:100F000012D160780502A0780543681C85B20123E0
:100F10001A462946E01C00F067FA064636B130460C
:100F200000F0EAFB804601E04FF003084046BDE8D0
:100F3000F0812DE9F05F05460E464FF0000B30883A
:100F4000052839DD68780702A8780743781C87B23E
:100F5000E87804022879044395F805A004F0070016
:100F600040B12046E11704EB5171C910491C01F052
:100F7000FF0805E02046E11704EB5171C1F3C708F3
:100F8000012C16DBB4F5F66F13DCD04511D101232B
:100F900022463946A81D00F01FFA8146B9F1000F1C
:100FA00004D0484600F0A8FB834607E005203080C7
:100FB00004E04FF0030B01E04FF0030B5846BDE88F
:100FC000F09F2DE9F04704460E464FF0000A3088A6
:100FD000062828DB60780702A0780743781C87B2D0
:100FE000E07805022079054394F80590012D17DB80
:100FF000782D15DC6806000E484511D101232A46DC
:101000003946A01D00F0F0F98046B8F1000F04D079
:10101000404600F071FB824607E00520308004E086
:101020004FF0030A01E04FF0030A5046BDE8F08795
:101030002DE9F04705460C4616461F46DDF8209080
:101040004FF000081CB1012C01DBF72C02DD4FF042
:10105000020835E01C48047005BB1C481C490860A8
:101060001C481D4908601D481D4908601D481E494F
:10107000086000201D4908601D481E4908601E4880
:101080001E4908601E481F4908604B463A463146D3
:101090000D48007800F0D8F8804602E04FF00208D2
:1010A00000BF00BFB8F1000F0AD100F04DFD10B92C
:1010B0004FF0030804E0144805700120134908703C
:1010C0004046BDE8F08700008C0000209513000822
:1010D00094000020BD1300089800002001130008B0
:1010E00090000020A51200089C000020A000002015
:1010F000011D0008A4000020C91D0008A800002050
:10110000891D0008AC0000208D0000208E0000200A
:1011100038B500254148007808B1062038BD68463A
:1011200000F000FD012877D19DF8000030B10128C2
:1011300005D0022818D003286DD16BE06BE0384A47
:1011400038493948394B1B68984705465DB93648D8
:10115000007837490978884202D03348007810B9BE
:10116000022000F0F9FC56E02E4800680078314972
:101170000870012030490870002417E02F4810F84B
:10118000340000B914E02D4810F8340029490978DA
:1011900088420AD1294800EBC4002149426821480D
:1011A000006890472449087002E0641C102CE5DBBD
:1011B00000BF1D48007858B31F480078C8B1002010
:1011C000174908801B48007840F0800114480288C5
:1011D0000088401C124B1880124800688154164841
:1011E0000278184601880088401C18800D48006865
:1011F000425413480078012800D100BF08480288F3
:10120000084801680A4800780E4B1B689847054655
:1012100001E001E000BF00BF00207FE78E0000205A
:101220003E010020380100203C0100209C000020ED
:101230008C0000203D01002040010020B80000206B
:101240008D000020900000202DE9F04781460E46D9
:1012500014461F464FF000080120FFF7F0FB3B4605
:1012600008222146304600F08DFC012802D04FF0C4
:1012700003080FE0B4F5964F01D9232503E0600081
:101280000749B1FBF0F5A8B200F0F6FC012801D047
:101290004FF003080020FFF7D2FB4046BDE8F0877F
:1012A000A07F17002DE9F04104460D4616464FF089
:1012B000000800270120FFF7C2FB0F480088042820
:1012C00012DB0D4801880D4800F0ACFA60B90B48FC
:1012D0000078207008480088C01E30800748401CF5
:1012E00028604FF0010800E005270020FFF7A7FB6A
:1012F0003846BDE8F08100008A0000202846002022
:101300002DE9F04105460E4617464FF00008012032
:10131000FFF795FB1A480078012829D1701E19495A
:1013200008600120184908801648006805700846C2
:10133000008838440880084601881248006800F098
:1013400071FA044610490888411C0F4B19800F4957
:101350000C54221219460888411C19800B490A5462
:1013600001200B4908700121002000F0A7FA01E0DC
:101370004FF005080020FFF762FB4046BDE8F08112
:1013800081000020840000208800002028460020E2
:101390008000002010B50120FFF751FB0020064916
:1013A00008700021012000F089FA00F0C9FA00203D
:1013B000FFF745FB10BD00008100002010B50120A3
:1013C000FFF73DFB0021084600F078FA00F0A2FA92
:1013D0000020FFF734FB10BD10B50446012010BDFE
:1013E0000346012070470000F0B504460D4600207A
:1013F000B5F5805F33DBAE1841F28207BE422EDCCA
:10140000184E3688A91B13B1012B27D111E00DE02E
:10141000154E36F81160361204F8016B124E16F8AC
:10142000116004F8016B491C561EB2B2002AEFDCB1
:1014300014E010E014F8017B3E020B4F27F8116016
:1014400014F8016B37F811703E43074F27F811600D
:10145000491C561EB2B2002AECDC00BF00E001209D
:10146000F0BD00004E0100202847002030B50346A3
:101470000020B1F57A7F18DB8D18B5F57B7F14DC81
:101480000B4D2D884C1B0DE00A4D35F814502D12D4
:1014900003F8015B074D15F8145003F8015B641C59
:1014A000551EAAB2002AEFDC00E0012030BD00008A
:1014B000440100204601002038B504468DF80000A4
:1014C00069460320ABBE204638BD00001FB5FFF7BC
:1014D000CAFA00200123CDE90030029003464FF400
:1014E000807204A10390064800F0CEFC00F0B8FA28
:1014F00000BFFEE74D6F646275735461736B00004B
:101500006D1900082DE9F04106460F461FB9B000DD
:1015100000F01CF900E03846054655B14C2000F0BB
:1015200015F904460CB1256304E0284600F062FA80
:1015300000E000242046BDE8F081000070B523E003
:1015400000F0B8FA1348006808B9012000E0002054
:10155000054600F0A7FDBDB900F02CFA0D48C068A3
:10156000C468201D00F07AF90B480068401E0A4943
:1015700008600A480068401E0849086000F02AFA1E
:10158000204600F00DF800BF044800680028D7D1BD
:1015900070BD0000F401002038000020340000205D
:1015A00010B50446206B00F025FA204600F022FA20
:1015B00010BD00000A4A22F007000A4A106000220B
:1015C000084B5A6044F2F832074B5A6000221A6006
:1015D000014644F2F8324A601A460A607047000039
:1015E00010020020640000206C00002000BFFFF704
:1015F000A5FF034800680128F9D900F025FAF6E7AD
:10160000540100202DE9F04704460F46164699463E
:10161000DDF82080002507E0795D04F134004155B4
:10162000785D00B902E06D1C102DF5D300BF0021DC
:1016300043200155052E00D30426E662201D00F04C
:101640002EF904F1180000F02AF92461C6F1050012
:10165000A06164620020606484F84800BDE8F087FF
:1016600010B5002407E004EB84010D4A02EB810071
:1016700000F008F9641C052CF5D30A4800F002F9C3
:10168000094800F0FFF8094800F0FCF8084800F0AD
:10169000F9F804480749086003480749086010BD85
:1016A00054010020B8010020CC010020E0010020FE
:1016B000F40100202C000020300000200A490968B5
:1016C000096809B9012100E0002121B14FF0FF3183
:1016D000064A116006E004490968C968C868034AF7
:1016E00041681160704700002C0000205800002065
:1016F000FEF76CFD00BFFEE7014621B1012904D0D1
:10170000072906D103E0002005E0022003E00620BF
:1017100001E0042000BF00BF7047000010B5024880
:101720000068804710BD0000AC00002010B50248E2
:101730000068804710BD0000A400002010B50248DA
:101740000068804710BD0000A80000202DE9F0418E
:1017500004464FF0000800F0ADF92648006820B9B3
:10176000FFF728FF01202349086044B1083404F042
:10177000070020B104F00700C0F108000444002C69
:1017800032D044F2F83084422ED21B4F38460568DE
:1017900001E02F462D686868A04202D22868002820
:1017A000F7D1164885421FD0386800F1080828682C
:1017B00038606868001B102810D92E196868001B53
:1017C00070606C6071680C4800E0006802685268E4
:1017D0008A42FAD302683260066000BF084968682E
:1017E0000968081A0649086000F05CFC4046BDE83C
:1017F000F081000078000020640000206C000020D0
:1018000074000020001F4FF080730360001F016010
:10181000001F034B0360143802602038704700003B
:10182000F116000870B502460C46FF25FF2309E0BB
:1018300012F8010B80EA03010648405C80EA0503C8
:101840000548455C2000A4F10106B4B2F0D143EA9A
:10185000052070BD802100088022000801460A6929
:10186000D1E901309860D1E901035860506888429D
:1018700001D188685060002008611068401E106027
:101880001068704700F1080141604FF0FF3181603E
:1018900000F10801C1600161002101607047002171
:1018A0000161704742684A6093688B609368596031
:1018B0009160086103685B1C0360704770B5054662
:1018C0000C4655B1012240F225511048FEF7FCFFAD
:1018D00008210F48FEF777FD09E0002240F225516C
:1018E0000A48FEF7F1FF08210948FEF76EFD34B102
:1018F000012240F227710548FEF7E6FF05E00022CD
:1019000040F227710148FEF7DFFF70BD004800403C
:101910000018014010B501210848FEF7E9FE002239
:1019200001210648FEF704FF00210448FEF709FFE5
:1019300000210248FEF7DFFE10BD00000008004055
:1019400010B501210848FEF7D3FE012211460648D2
:10195000FEF7EEFE00210448FEF7F3FE01210248E7
:10196000FEF7C9FE10BD00000008004008B50220C7
:101970004FF4165300220A2100901046FFF758FB3F
:10198000FFF7B2F803A0FFF743F800BFFFF7C0FB73
:10199000FCE70000764D6F646275735461736BE60B
:1019A000ADA3E59CA8E8BF90E8A18CE4B8ADEFBC7E
:1019B000810D0A0010B5FEF709FC05480068401CBF
:1019C00003490860BFF34F8FBFF36F8F10BD000056
:1019D0006000002010B506480068401E04490860F9
:1019E0000846006810B90020FEF7F7FB10BD0000A4
:1019F0006000002070B506463546B6B1083D2C465D
:101A000000F058F86168094800E000680268526810
:101A10008A42FAD302682260046005496068096856
:101A200008440349086000F03DFB70BD64000020DD
:101A30007400002003484FF0E0214861072008614E
:101A4000704700003F1901004FF0805003490860C3
:101A5000BFF34F8FBFF36F8F7047000004ED00E0BE
:101A60001FB50020009001900290034680220BA138
:101A700003900C4800F008FA0446012C0CD1FEF744
:101A8000A5FBA01E08490860012008490860002045
:101A90000749086000F0CEF91FBD000049444C45DD
:101AA00000000000ED150008580000204400002050
:101AB0003C00002002480068401C01490860704753
:101AC0005C0000201248006818B10120114908602C
:101AD0001DE000200F4908600F480068B0FA80F050
:101AE000C0F11F0101EB81020C4B03EB8200426845
:101AF0005268426000F108024368934202D1426892
:101B0000526842604268D268054B1A6000BF704755
:101B10005C0000204C000020400000205401002008
:101B20002800002001460020054A127832B1054AFB
:101B300012780A700022024B1A70012070470000D0
:101B400042010020410100200020024908700120CC
:101B5000704700004201002001460120024A107037
:101B6000024801700120704742010020410100201D
:101B700010B504460248FEF739FF2070012010BD61
:101B800000480040F0B587B004460D4616461F4693
:101B900001210920FEF772FC01218804FEF75EFC9A
:101BA0004FF48060ADF8180018208DF81B0003205A
:101BB0008DF81A0006A92848FEF77AFB4FF400605A
:101BC000ADF8180004208DF81B0006A92248FEF786
:101BD0006FFB06A92048FEF76BFB4FF416500290EE
:101BE0000020ADF80C00ADF80E00ADF81000ADF817
:101BF00014000C20ADF8120002A91848FEF78AFE66
:101C000027208DF8040003208DF8050000208DF8B2
:101C1000060001208DF8070001A8FEF7DDFB012179
:101C20004020FEF72BFC10208DF81B0003208DF8C0
:101C30001A000820ADF8180006A90948FEF738FB7D
:101C400001210648FEF70AFE40210448FEF7EEFD9A
:101C5000012007B0F0BD0000000C0140004800402A
:101C60000018014010B5044621460248FEF7C3FEA5
:101C7000012010BD004800407FB504460025012129
:101C80000420FEF7EBFB1C48006844F62061B0FB23
:101C9000F1F0401E85B2ADF80840ADF804500020C8
:101CA000ADF80A00ADF8060001A91448FEF74CFD96
:101CB00001211248FEF710FD1E208DF800000420BF
:101CC0008DF8010000208DF8020001208DF803003E
:101CD0006846FEF781FB01210848FEF709FD002256
:101CE00001210648FEF724FD00210448FEF703FD0C
:101CF000012004B070BD0000140000200008004066
:101D000038B500246846FFF733FF1C48007830B12F
:101D100001280AD0022819D003282BD102E0FFF7AE
:101D20000FFE27E0FFF70CFE24E000201449088096
:101D30009DF800200888411C114B198011490A5454
:101D400002200E490870FFF7FBFD13E00C480088E5
:101D5000FF2809DC9DF8002009490888411C084B30
:101D6000198008490A5402E0032004490870FFF76B
:101D7000E7FD00BF00BF204638BD00008100002005
:101D80008A0000202846002010B500240D48007865
:101D900020B1022807D003280BD109E00020FFF76B
:101DA000DBFE044606E00120FFF7D6FE044601E014
:101DB00000E000BF00BFFFF7ADFD01200149087042
:101DC000204610BD8100002010B500241648007880
:101DD00010B1012824D104E000210120FFF76EFD9D
:101DE0001EE01248008878B1114909680878FFF7A9
:101DF00039FF0F480068401C0D4908600B480088F7
:101E0000401E0A4908800AE00320FFF7A5FE0446A9
:101E100000210120FFF752FD00200349087000BF98
:101E200000BF204610BD0000800000208800002078
:101E30008400002010B50A48006840F47F0008497B
:101E400008600846006840F07F400860FFF7F2FD38
:101E5000002004490860FEF787F9002010BD00004B
:101E600020ED00E06000002010B5FEF7AFF900F0B3
:101E700089F818B14FF08050024908600020FEF741
:101E8000ACF910BD04ED00E02DE9FF4F81B08046B4
:101E900015469946DDE90E7A28461099FFF732FB80
:101EA0000446002C4FD0681E216B01EB800B2BF0F9
:101EB000070B00953A462046119B0299FFF7A2FBBB
:101EC0004A4641465846FFF79DFC2060BAF1000F94
:101ED00001D0CAF80040FFF76DFD24480068401C9F
:101EE000224908602248006840B921480460084639
:101EF000006801280CD1FFF7B3FB09E01D4800681A
:101F000030B91B480068C06AB84201D8184804605C
:101F100019480068401C1849086094F82C100120EA
:101F2000884016490968084314490860E16A01EBD2
:101F30008101134A02EB8100211DFFF7B3FC01264A
:101F4000FFF748FD01E04FF0FF36012E09D10948A7
:101F5000006830B106480068C06AB84201D2FFF795
:101F600073FD304605B0BDE8F08F0000380000205A
:101F700028000020440000205400002040000020E1
:101F8000540100202DE9F04100273B48006800285B
:101F900065D13A480068401C384908600846066820
:101FA0008EB93748D0F80080364800683449086058
:101FB0003448C0F8008034480068401C324908604A
:101FC000FFF77CFB00BF3148006886423BD300BF6F
:101FD0002B480068006808B9012000E0002020B10B
:101FE0004FF0FF30294908602CE025480068C068A0
:101FF000C4686568AE4202D22448056022E0201D14
:10200000FFF72CFCA06A18B104F11800FFF726FCBA
:1020100094F82C10012088401D49096808431C4988
:102020000860E16A01EB81011A4A02EB8100211D7F
:10203000FFF738FC1849E06A0968C96A8842C7D3C3
:102040000127C5E700BF14480068C06A00EB8000A4
:10205000104951F82000012806D9012704E00F4853
:102060000068401C0D4908600D48006800B1012758
:102070003846BDE8F08100005C0000203C000020F4
:102080002C000020300000205000002058000020CC
:1020900040000020540100202800002048000020BB
:1020A0004C00002070B50025FFF784FC2C48006828
:1020B000401E2B4908600846006800284BD129487B
:1020C0000068002847D024E02748C068C46804F1AD
:1020D0001800FFF7C3FB201DFFF7C0FB94F82C107E
:1020E0000120884021490968084320490860E16AC5
:1020F00001EB81011E4A02EB8100211DFFF7D2FB9B
:102100001C49E06A0968C96A884202D301201A4959
:1021100008601548006808B9012000E00020002888
:10212000D2D01648006878B10AE0FFF72BFF10B153
:1021300001201149086011480068401E0F490860DD
:102140000E4800680028F0D10B480068012802D131
:102150000125FFF779FCFFF73DFC284670BD000024
:102160005C00002038000020E0010020400000203A
:1021700054010020280000204C00002048000020CE
:1021800000C1814001C0804101C0804100C1814047
:1021900001C0804100C1814000C1814001C0804137
:1021A00001C0804100C1814000C1814001C0804127
:1021B00000C1814001C0804101C0804100C1814017
:1021C00001C0804100C1814000C1814001C0804107
:1021D00000C1814001C0804101C0804100C18140F7
:1021E00000C1814001C0804101C0804100C18140E7
:1021F00001C0804100C1814000C1814001C08041D7
:1022000001C0804100C1814000C1814001C08041C6
:1022100000C1814001C0804101C0804100C18140B6
:1022200000C1814001C0804101C0804100C18140A6
:1022300001C0804100C1814000C1814001C0804196
:1022400000C1814001C0804101C0804100C1814086
:1022500001C0804100C1814000C1814001C0804176
:1022600001C0804100C1814000C1814001C0804166
:1022700000C1814001C0804101C0804100C1814056
:1022800000C0C101C30302C2C60607C705C5C40416
:10229000CC0C0DCD0FCFCE0E0ACACB0BC90908C886
:1022A000D81819D91BDBDA1A1EDEDF1FDD1D1CDC76
:1022B00014D4D515D71716D6D21213D311D1D010E6
:1022C000F03031F133F3F23236F6F737F53534F4D6
:1022D0003CFCFD3DFF3F3EFEFA3A3BFB39F9F83846
:1022E00028E8E929EB2B2AEAEE2E2FEF2DEDEC2C36
:1022F000E42425E527E7E62622E2E323E12120E0A6
:10230000A06061A163A3A26266A6A767A56564A495
:102310006CACAD6DAF6F6EAEAA6A6BAB69A9A86805
:1023200078B8B979BB7B7ABABE7E7FBF7DBDBC7CF5
:10233000B47475B577B7B67672B2B373B17170B065
:102340005090915193535292965657975595945455
:102350009C5C5D9D5F9F9E5E5A9A9B5B99595898C5
:10236000884849894B8B8A4A4E8E8F4F8D4D4C8CB5
:102370004484854587474686824243834181804025
:10238000A0230008000000205401000054020008AF
:102390000C24000854010020DC4E0000300A000824
:1023A000412D01020304041009060708090204066E
:1023B0000884A24A04691801381AAA0101100318F6
:1023C000F843022902321113590E2A08A913F70CF7
:1023D0003308031A6B08321013C30F3308061AF1BF
:1023E00020321713830D2B080134120B3308051A02
:1023F0008118320F1A332829721ABF18013C14E8C9
:0C240000030212031204195C297F110072
:0400000508000131BD
:00000001FF
