:020000040800F2
:1000000028550020E9010008090500086D040008D2
:1000100005050008CF020008C90D00080000000017
:100020000000000000000000000000004501000882
:100030004D03000800000000890100083925000870
:10004000030200080302000803020008030200087C
:10005000030200080302000803020008030200086C
:10006000030200080302000803020008030200085C
:10007000030200080302000803020008030200084C
:10008000030200080302000803020008030200083C
:10009000250C000803020008030200080302000800
:1000A000030200080302000803020008030200081C
:1000B0001908000803020008B50800080302000838
:1000C00003020008030200080302000803020008FC
:1000D000030200080302000803020008110A0008D6
:1000E00003020008030200080302000803020008DC
:1000F00003020008030200080302000803020008CC
:1001000003020008030200080302000803020008BB
:1001100003020008010A00080302000803020008A5
:10012000030200080302000803020008030200089B
:10013000DFF80CD000F08EF800480047291B0008BB
:1001400028550020204B19680868B0E8F00F80F3AC
:100150000988BFF36F8F4FF0000080F311884EF0D5
:100160000D0E70470000000006480068006880F32C
:10017000088862B661B6BFF34F8FBFF36F8F00DFA1
:1001800000BF00BF08ED00E0EFF30980BFF36F8F01
:100190000D4B1A6820E9F00F106008B54FF0BF0052
:1001A00080F3118801F0D6FF4FF0000080F3118832
:1001B000BDE8084019680868B0E8F00F80F30988C6
:1001C000BFF36F8F704700BF4C000020EFF311802A
:1001D0004FF0BF0181F31188704780F31188704799
:1001E000EFF3058070470000064880470648004747
:1001F000FEE7FEE7FEE7FEE7FEE7FEE7FEE7FEE7D7
:10020000FEE7FEE7B90700083101000840EA0103F4
:100210009B0703D009E008C9121F08C0042AFAD2BC
:1002200003E011F8013B00F8013B521EF9D2704780
:10023000D2B201E000F8012B491EFBD27047002228
:10024000F6E710B513460A4604461946FFF7F0FFD5
:10025000204610BD064C074D06E0E06840F0010363
:1002600094E8070098471034AC42F6D3FFF764FFD8
:10027000542A0008742A000870B58C1810F8015B25
:1002800015F0070301D110F8013B2A1106D110F82F
:10029000012B03E010F8016B01F8016B5B1EF9D133
:1002A0002B0705D40023521E0DD401F8013BFAE7B9
:1002B00010F8013BCB1A921C03E013F8015B01F824
:1002C000015B521EF9D5A142D8D3002070BD00BFFA
:1002D000FEE70000014609B900207047012901D15D
:1002E0000020FAE7022901D10020F6E7032901D115
:1002F0000020F2E7042901D10148EEE70020ECE7F5
:10030000B001002008B535208DF8000004208DF8DC
:10031000020001208DF80300684600F0F7F808BDE0
:1003200010B5012000F071FD07480068401C064927
:100330000860002000F069FDAFF21B024FF4FA7173
:10034000012000F07BFE10BD0800002070472DE961
:10035000F04102460025002600200023002400274B
:1003600091F803C00CF00F0591F803C00CF0100CCD
:10037000BCF1000F03D091F802C04CEA050591F8DA
:1003800000C0BCF1000F31D0146800202BE04FF00A
:10039000010C0CFA00F3B1F800C00CEA03069E420F
:1003A00020D183004FF00F0C0CFA03F7BC4305FA81
:1003B00003FC4CEA040491F803C0BCF1280F06D1F9
:1003C0004FF0010C0CFA00FCC2F814C00AE091F8DE
:1003D00003C0BCF1480F05D14FF0010C0CFA00FC32
:1003E000C2F810C0401C0828D1D31460B1F800C076
:1003F000BCF1FF0F34DD546800202EE000F1080C42
:100400004FF0010808FA0CF3B1F800C00CEA03063B
:100410009E4221D183004FF00F0C0CFA03F7BC432E
:1004200005FA03FC4CEA040491F803C0BCF1280F60
:1004300005D100F1080C08FA0CF8C2F8148091F804
:1004400003C0BCF1480F07D100F1080C4FF00108C0
:1004500008FA0CF8C2F81080401C0828CED354606B
:10046000BDE8F081416170470161704700BFFEE760
:1004700000B585B00121312000F09AF8012108056E
:1004800000F086F84FF48050ADF8100018208DF879
:10049000130003208DF8120004A91748FFF757FF37
:1004A0000420ADF810008DF8130004A91348FFF7DD
:1004B0004EFF4FF4E13000900020ADF80400ADF89D
:1004C0000600ADF80800ADF80C000C20ADF80A00ED
:1004D00069460B4800F030FB012240F225510848E4
:1004E00000F004FB0121064800F0CAFA402104484C
:1004F00000F0AEFA05B000BD00100140001401404C
:100500000050004000BFFEE77047000070B50021BA
:1005100000230F22C47804B3154C246804F4E0646B
:10052000C4F5E064210AC1F10403CA40447804FA26
:1005300003F184781440214309010E4C0678A1553B
:10054000047804F01F050124AC4005786D11AD005E
:1005500005F1E025C5F8004109E0047804F01F0525
:100560000124AC40044D0678761145F8264070BD54
:100570000CED00E000E400E080E100E0024901430E
:10058000024A1160704700000000FA050CED00E01F
:1005900029B1064AD2690243044BDA6104E0034AF6
:1005A000D2698243014BDA617047000000100240BB
:1005B00029B1064A92690243044B9A6104E0034A56
:1005C00092698243014B9A6170470000001002401B
:1005D00030B500210022002400232D4D6D6805F068
:1005E0000C0121B1042905D0082923D105E0294DAA
:1005F000056022E0274D05601FE0254D6D6805F47C
:100600007012234D6D6805F48034022505EB92428B
:100610001CB9214D554305600BE01D4D6D6805F477
:1006200000351DB11C4D5543056002E0194D554381
:10063000056002E0174D056000BF00BF144D6D68F6
:1006400005F0F0010909154D6B5C0568DD4045605A
:100650000F4D6D6805F4E061090A104D6B5C45684B
:10066000DD4085600A4D6D6805F46051C90A0B4D87
:100670006B5C4568DD40C560054D6D6805F4404123
:10068000890B074D6B5CC568B5FBF3F5056130BDA3
:100690000010024000127A0000093D0021000020F5
:1006A0003100002008B501210820FFF781FF032059
:1006B0008DF8020010208DF803000420ADF8000032
:1006C00069460248FFF743FE08BD0000000C0140E8
:1006D00010B500F001F810BD0CB50020019000909D
:1006E0003348006840F480303149086000BF30482A
:1006F000006800F4003000900198401C01900098C0
:1007000018B90198B0F5A06FF1D12948006800F43C
:10071000003010B10120009001E00020009000980E
:10072000012843D12348006840F0100021490860A7
:100730000846006820F0030008600846006840F0A2
:10074000020008601A484068194948600846406835
:1007500048600846406840F4806048600846406849
:1007600020F47C1048600846406840F4E810486077
:100770000846006840F08070086000BF0C480068C0
:1007800000F000700028F9D00948406820F003000C
:10079000074948600846406840F00200486000BFD2
:1007A0000348406800F00C000828F9D10CBD000097
:1007B000001002400020024010B51348006840F0CD
:1007C00001001149086008464068104908400E4978
:1007D0004860084600680E4908400B490860084612
:1007E000006820F4802008600846406820F4FE007D
:1007F00048604FF41F008860FFF76AFF4FF0006009
:100800000449086010BD0000001002400000FFF81D
:10081000FFFFF6FE08ED00E010B50221480700F0EA
:1008200077F858B10221480700F060F80022022151
:10083000480700F07EF81B4800688047042108073D
:1008400000F066F858B10421080700F04FF80022C4
:100850000421080700F06DF813480068804708215C
:10086000C80600F055F858B10821C80600F03EF857
:1008700000220821C80600F05CF80C480068804798
:100880001021880600F044F858B11021880600F0C5
:100890002DF800221021880600F04BF8044800686B
:1008A000804710BD10000020140000201800002018
:1008B0001C00002010B50121054800F029F828B1DE
:1008C0000121034800F012F801F066FA10BD0000A3
:1008D0000008004021B1028842F08002028004E05A
:1008E00002884FF67F731A4002807047CA43028223
:1008F000704721B1028842F00102028004E00288C0
:100900004FF6FE731A40028070470146888C70478C
:1009100030B50246002000230024158A05EA0103B1
:10092000958905EA010413B10CB1012000E0002013
:1009300030BD1AB183890B43838102E083898B43E5
:100940008381704781867047018770478187704730
:10095000A0F8401070478184704700000022028890
:100960001D4B98420ED01D4B98420BD0B0F1804FDA
:1009700008D01B4B984205D01A4B984202D01A4B14
:10098000984204D14FF68F731A404B881A43174B85
:10099000984207D0164B984204D04FF6FF431A40B6
:1009A000CB881A4302808B8883850B8803850A4B8A
:1009B00098420BD0094B984208D00E4B984205D074
:1009C0000D4B984202D00D4B984201D10B7A038611
:1009D0000123838270470000002C01400034014055
:1009E0000004004000080040000C004000100040DF
:1009F0000014004000400140004401400048014014
:100A000010B5024800F014F910BD0000B00100203C
:100A100010B540F225510D4800F03EF8012806D1EE
:100A200001F0C2F940F22551084800F01AF840F2EE
:100A30002771064800F030F8012806D101F0BCF912
:100A400040F22771014800F00CF810BD004800404A
:100A500001F40072B2F5007F00D100BFCA430280EA
:100A6000704710B50022002340F66A14A14200D15D
:100A700000BF0A1201249440A3B2DC43048010BDDD
:100A800021B1828942F40052828104E082894DF6CC
:100A9000FF731A408281704770B50246002400231C
:100AA0000025002040F66A16B14200D100BFC1F314
:100AB000421501F01F03012606FA03F3012D02D1AE
:100AC0009689334006E0022D02D1168A334001E0B8
:100AD000968A33400C12012606FA04F41688344034
:100AE00013B10CB1012000E0002070BDF0B5034649
:100AF000002400260025002040F66A17B94200D1E4
:100B000000BF1846C1F3421401F01F06012707FA7F
:100B100006F5012C01D10C3004E0022C01D110307B
:100B200000E014301AB107682F43076002E007683D
:100B3000AF430760F0BD00002DE9F04786B00546E1
:100B40000E460024A24600BFA1460027B08900B18E
:100B500000BF2F462C8A4CF6FF700440F0880443F7
:100B60002C82AC894EF6F3100440B08831890843DA
:100B7000718908430443AC81AC8A4FF6FF400440BE
:100B8000B0890443AC8201A8FFF722FD1F488742C9
:100B900002D1DDF810A001E0DDF80CA0A88900F476
:100BA000004040B10AEBCA0000EB0A10316849006E
:100BB000B0FBF1F807E00AEBCA0000EB0A1031685D
:100BC0008900B0FBF1F86420B8FBF0F004012009C3
:100BD000642101FB1089A88900F4004040B1322053
:100BE00000EBC900B0FBF1F000F00700044308E09F
:100BF000322000EB09106421B0FBF1F000F00F008F
:100C000004432C8106B0BDE8F087000000380140A5
:100C100001468888C0F308007047C1F3080282804B
:100C2000704700000148C069704700000010024092
:100C300070B5044640F225512068FFF72DFFE0B162
:100C40002068FFF7E5FFC5B2E18AA0684554E08A55
:100C5000401C80B2E082E189884201DB0020E08212
:100C6000608BE189884202DA608B401C6083606A95
:100C700010B12846616A884700BF40F2277120689A
:100C8000FFF70AFF08B3A08A60B9002240F227717B
:100C90002068FFF72BFF012240F226612068FFF752
:100CA00025FF37E0638A6268D15C2068FFF7B5FFF3
:100CB000608A401C80B26082A189884201DB0020EA
:100CC0006082A08A401EA08224E040F22661206853
:100CD000FFF7E2FEF0B1A08A50B9002240F226618F
:100CE0002068FFF703FF206AA0B1206A804711E067
:100CF000638A6268D15C2068FFF78FFF608A401CBE
:100D000080B26082A189884201DB00206082A08AD3
:100D1000401EA08270BDF8B504460E461746002559
:100D200029E00EE0012000F073F8A08A0090002076
:100D300000F06EF8A089BDF80010884200DD01E0E7
:100D400000BFEFE700BF705D228A61688854012010
:100D500000F05EF8208A401C80B22082A18988427F
:100D600001DB00202082A08A401CA082002000F02D
:100D70004FF8681C85B2BD42D3DB012240F22771D7
:100D80002068FFF7B3FEF8BD0B480C4908600C481B
:100D900048600C4888604FF4806088816420C88176
:100DA000002008824882C882088348838882C861FC
:100DB000086248627047000000500040B001002007
:100DC000D8010020D805002000BFFEE70FB4054B76
:100DD00010B503A9044A029800F020F810BC5DF891
:100DE00014FB0000151B00087C01002002E008C86D
:100DF000121F08C1002AFAD170477047002001E095
:100E000001C1121F002AFBD1704780F31088704780
:100E100080F31088704780F3108870472DE9F84FF1
:100E20009946924688460546002706E025280AD0BE
:100E300051464A4690476D1C7F1C28780028F5D102
:100E40003846BDE8F88F002315F8011F18462E29F3
:100E500015D115F8011F04232A290DD06FF02F0298
:100E60002978A1F13004092C09D800EB800002EBAD
:100E7000400008446D1CF3E758F8040B6D1C2A78F9
:100E8000002ADDD0632A07D0732A0FD010465146BE
:100E90004A4690477F1C2AE018F8042B8DF8002062
:100EA00000218DF801106E46012103E058F8046B13
:100EB0004FF0FF315A074FF0000401D409E0641CE1
:100EC00084420BDA8C42FADB325D002AF7D105E06E
:100ED000641C8C42FCDB305D0028F9D1274404E01F
:100EE00016F8010B51464A469047641EF8D26D1C15
:100EF000A3E710B54FF44070FFF740FB00F052F845
:100F000000F072F800F036F810BD00007FB5012146
:100F10000846FFF73DFB1548006846081448B6FB35
:100F2000F0F085B24FF6FF74ADF80840ADF804500C
:100F30000020ADF80A00ADF8060001A94FF080408E
:100F4000FFF70CFD01218807FFF7D3FC1C208DF86B
:100F5000000003208DF8010000208DF80200012020
:100F60008DF803006846FFF7D1FA7FBD38000020F6
:100F700040420F0008B501210802FFF719FB0120CC
:100F800000F03CF803208DF8020010208DF80300DB
:100F90004002ADF8000069460148FFF7D8F908BDE6
:100FA0000020014010B5002416E0002004EB4401AD
:100FB0000C4A02EB8101486004EB440102EB810121
:100FC000886004EB440102EB8101487004EB4401AA
:100FD00002F82100601CC4B2042CE6DBFFF796FF88
:100FE00010BD00008001002010B5FFF7CDFEFFF717
:100FF0003FFAFFF757FBFFF785F910BD411EC8B256
:1010000020B94FF400510B4A116111E0012803D1BE
:101010008021094A11600BE0022803D1C101064A70
:10102000116005E0032803D14FF40071024A1160FA
:101030007047000000200140101C01402DE9F041E4
:1010400004460F461546052F00D37F1F4FF0804002
:10105000FFF75BFC804608EB0706012C0FD1254803
:101060000560B1B2A007FFF76DFC02214807FFF74A
:101070003DFC012202214807FFF75BFC38E0022C0F
:101080000FD11D480560B1B26007FFF75DFC042178
:101090000807FFF72BFC012204210807FFF749FC92
:1010A00026E0032C10D115480560B1B24FF0804006
:1010B000FFF74CFC0821C806FFF718FC01220821A5
:1010C000C806FFF736FC13E0042C0FD10C4805606E
:1010D000B1B22007FFF73CFC10218806FFF706FCA1
:1010E000012210218806FFF724FC01E0BDE8F08111
:1010F00000BFFBE7100000201400002018000020B3
:101100001C0000202DE9F04105460E4617462846F2
:10111000FFF7E0F804460CB9BDE8F081E06908B1DA
:10112000E06980473A4631462046FFF7F4FD00BFAC
:10113000F2E713B50446012201A92046FFF7E2FFBA
:101140001CBD000010B5002406480078012806D117
:1011500005480068804700200249087000E0062426
:10116000204610BDBA000020C00000202DE9F05F2D
:1011700006460D464FF0000B2888052848D17078A8
:101180004FEA0029B07840EA090909F101001FFA85
:1011900080F9F078040230790443012C35DBB4F592
:1011A000FA6F32DA374600202880012007F8010B59
:1011B0002888401C288004F0070040B12046E11731
:1011C00004EB5171C910491C01F0FF0805E02046ED
:1011D000E11704EB5171C1F3C70807F8018B2888A8
:1011E000401C2880002322464946384600F022FC55
:1011F0008246BAF1000F04D0504600F0BBFD834692
:1012000008E028884044288004E04FF0030B01E008
:101210004FF0030B5846BDE8F09F2DE9F05F0646FE
:101220000D464FF0000B2888052847D170784FEA0B
:101230000029B07840EA090909F101001FFA80F994
:10124000F078040230790443012C34DBB4F5FA6FF2
:1012500031DA374600202880022007F8010B288861
:10126000401C288004F0070040B12046E11704EB41
:101270005171C910491C01F0FF0805E02046E11733
:1012800004EB5171C1F3C70807F8018B2888401C93
:10129000288022464946384600F0D0FB8246BAF103
:1012A000000F04D0504600F065FD834608E0288812
:1012B0004044288004E04FF0030B01E04FF0030BA3
:1012C0005846BDE8F09F2DE9F04705460C464FF023
:1012D000000A2088052837D168784FEA0028A878C6
:1012E00040EA080808F101001FFA80F8E8780602D1
:1012F0002E79012E25DB7D2E23DC2F460020208039
:10130000032007F8010B2088401C20807006000E87
:1013100007F8010B2088401C2080002332464146FC
:10132000384600F08FFB8146B9F1000F04D04846E3
:1013300000F020FD824609E0208800EB4600208076
:1013400004E04FF0030A01E04FF0030A5046BDE805
:10135000F0872DE9F04705460C464FF0000A20883B
:10136000052837D168784FEA0028A87840EA0808AD
:1013700008F101001FFA80F8E87806022879064390
:10138000012E24DB7D2E22DA2F460020208004202F
:1013900007F8010B2088401C20807006000E07F81B
:1013A000010B2088401C208032464146384600F020
:1013B0008BFB8146B9F1000F04D0484600F0DAFCFF
:1013C000824609E0208800EB4600208004E04FF0D0
:1013D000030A01E04FF0030A5046BDE8F0872DE90B
:1013E000FC5F04460D460020009028880A285DDB3B
:1013F00060784FEA002AA07840EA0A0A0AF1010060
:101400001FFA80FAE07806022079064360794FEAF5
:10141000002BA07940EA0B0B0BF101001FFA80FBB7
:10142000E0790702207A0743607A0190012E3BDBC6
:101430007D2E39DC012F37DB792F35DC79000198DF
:10144000814231D101233A46594604F10A0000F0A5
:10145000F9FA8146B9F1000F1ED1A046002028807C
:10146000172008F8010B2888401C28807006000E01
:1014700008F8010B2888401C28800023324651467A
:10148000404600F0DFFA8146B9F1000F04D1288808
:10149000022101FB06002880B9F1000F06D0484662
:1014A00000F068FC009001E0032000900098BDE887
:1014B000FC9F000070B505460C46064802880649A8
:1014C000681CFEF7A3FE03480088401C2080002013
:1014D00070BD0000A8000020044B00202DE9F84357
:1014E00004460F464FF000083888052829D1607857
:1014F0000502A0780543681C85B22079F0B9E07830
:10150000FF2801D0E078C8B900208DF80100E0780C
:10151000FF2803D101208DF8000002E000208DF8A3
:10152000000001231A462946684600F083FA064661
:101530004EB1304600F01EFC804604E04FF0030838
:1015400001E04FF003084046BDE8F8832DE9F04183
:1015500004460F464FF000083888052812D16078FD
:101560000502A0780543681C85B201231A46294666
:10157000E01C00F067FA064636B1304600F0FAFB90
:10158000804601E04FF003084046BDE8F0812DE9B8
:10159000F05F05460E464FF0000B3088052839DD18
:1015A00068780702A8780743781C87B2E8780402B5
:1015B0002879044395F805A004F0070040B12046BF
:1015C000E11704EB5171C910491C01F0FF0805E057
:1015D0002046E11704EB5171C1F3C708012C16DB5B
:1015E000B4F5F66F13DCD04511D1012322463946FC
:1015F000A81D00F01FFA8146B9F1000F04D048463B
:1016000000F0B8FB834607E00520308004E04FF08F
:10161000030B01E04FF0030B5846BDE8F09F2DE9A6
:10162000F04704460E464FF0000A3088062828DBB3
:1016300060780702A0780743781C87B2E07805023B
:101640002079054394F80590012D17DB782D15DCE2
:101650006806000E484511D101232A463946A01DCF
:1016600000F0F0F98046B8F1000F04D0404600F0D9
:1016700081FB824607E00520308004E04FF0030A3A
:1016800001E04FF0030A5046BDE8F0872DE9F0472E
:1016900005460C4616461F46DDF820904FF0000820
:1016A0001CB1012C01DBF72C02DD4FF0020835E004
:1016B0001C48047005BB1C481C4908601C481D4997
:1016C00008601D481D4908601D481E49086000202B
:1016D0001D4908601D481E4908601E481E490860D3
:1016E0001E481F4908604B463A4631460D4800786F
:1016F00000F0D8F8804602E04FF0020800BF00BFBB
:10170000B8F1000F0AD100F087FD10B94FF00308BF
:1017100004E0144805700120134908704046BDE8F4
:10172000F0870000B8000020F1190008C000002078
:10173000191A0008C40000205D190008BC00002030
:1017400001190008C8000020CC000020D1230008A7
:10175000D000002099240008D4000020592400085B
:10176000D8000020B9000020BA00002038B50025BC
:101770004148007808B1062038BD684600F03AFDBF
:10178000012877D19DF8000030B1012805D002284A
:1017900018D003286DD16BE06BE0384A38493948DE
:1017A000394B1B68984705465DB93648007837497C
:1017B0000978884202D03348007810B9022000F03E
:1017C00033FD56E02E48006800783149087001204A
:1017D00030490870002417E02F4810F8340000B991
:1017E00014E02D4810F834002949097888420AD1BC
:1017F000294800EBC400214942682148006890470D
:101800002449087002E0641C102CE5DB00BF1D4871
:10181000007858B31F480078C8B1002017490880E5
:101820001B48007840F08001144802880088401C62
:10183000124B1880124800688154164802781846E6
:1018400001880088401C18800D48006842541348E5
:101850000078012800D100BF0848028808480168C4
:101860000A4800780E4B1B689847054601E001E0E6
:1018700000BF00BF00207FE7BA0000206A010020FF
:101880006401002068010020C8000020B80000208A
:10189000690100206C010020E4000020B900002054
:1018A000BC0000202DE9F04781460E4614461F4635
:1018B0004FF000080120FFF7AEFA3B460822214610
:1018C000304600F0C7FC012802D04FF003080FE0BB
:1018D000B4F5964F01D9232503E060000749B1FB19
:1018E000F0F5A8B200F030FD012801D04FF0030858
:1018F0000020FFF790FA4046BDE8F087A07F170070
:101900002DE9F04104460D4616464FF00008002729
:101910000120FFF780FA0F480088042812DB0D48E9
:1019200001880D4800F0BCFA60B90B4800782070BF
:1019300008480088C01E30800748401C28604FF0CF
:10194000010800E005270020FFF765FA3846BDE8EA
:10195000F0810000B6000020244B00202DE9F0416A
:1019600005460E4617464FF000080120FFF753FAD0
:101970001A480078012829D1701E194908600120F1
:1019800018490880164800680570084600883844E1
:101990000880084601881248006800F081FA044671
:1019A00010490888411C0F4B19800F490C54221212
:1019B00019460888411C19800B490A5401200B491B
:1019C00008700121002000F0B9FA01E04FF005088D
:1019D0000020FFF720FA4046BDE8F081AD0000206E
:1019E000B0000020B4000020244B0020AC000020F8
:1019F00010B50120FFF70FFA0020064908700021FA
:101A0000012000F09BFA00F0DBFA0020FFF703FA58
:101A100010BD0000AD00002010B50120FFF7FBF95C
:101A20000021084600F08AFA00F0B4FA0020FFF71F
:101A3000F2F910BD10B50446012010BD0346012087
:101A400070470000F0B504460D460020B5F5805FF4
:101A500033DBAE1841F28207BE422EDC184E3688C8
:101A6000A91B13B1012B27D111E00DE0154E36F85B
:101A70001160361204F8016B124E16F8116004F86A
:101A8000016B491C561EB2B2002AEFDC14E010E0D4
:101A900014F8017B3E020B4F27F8116014F8016B1C
:101AA00037F811703E43074F27F81160491C561E46
:101AB000B2B2002AECDC00BF00E00120F0BD000063
:101AC0007A010020244C002030B503460020B1F5F7
:101AD0007A7F18DB8D18B5F57B7F14DC0B4D2D88D4
:101AE0004C1B0DE00A4D35F814502D1203F8015B24
:101AF000074D15F8145003F8015B641C551EAAB27B
:101B0000002AEFDC00E0012030BD00007001002061
:101B10007201002070B504460D46E1B20420FFF7C3
:101B200008FB204670BD00001FB5FFF7E2F900205A
:101B30000123CDE90030029003464FF4807204A1E6
:101B40000390064800F008FD00F0CAFA00BFFEE767
:101B50004D6F646275735461736B0000ED1F000874
:101B60002DE9F04105460F461FB9A80000F02CF9F9
:101B700000E03846064656B1582000F025F90446E4
:101B80000CB1266304E0304600F074FA00E0002453
:101B900024B1A900A522206BFEF74AFB2046BDE830
:101BA000F081000070B523E000F0CCFA1348006823
:101BB00008B9012000E00020054600F0DDFDBDB9B8
:101BC00000F038FA0D48C068C468201D00F084F9A0
:101BD0000B480068401E0A4908600A480068401E19
:101BE0000849086000F036FA204600F00DF800BF02
:101BF000044800680028D7D170BD0000DC06002032
:101C00005C0000205800002010B50446206B00F056
:101C100031FA204600F02EFA10BD00000A4A22F0E8
:101C200007000A4A10600022084B5A6044F2F8325A
:101C3000074B5A6000221A60014644F2F8324A60AB
:101C40001A460A60704700000C0700209000002030
:101C50009800002000BFFFF7A5FF04480068012896
:101C600001D900F031FA00F04BF9F4E73C0600200E
:101C70002DE9F04704460F4616469946DDF82080C8
:101C8000002507E0795D04F134004155785D00B925
:101C900002E06D1C102DF5D300BF0021432001553B
:101CA000052E00D30426E662201D00F038F904F169
:101CB000180000F034F92461C6F10500A0616462E7
:101CC0000020E064206584F85400BDE8F08700003F
:101CD00010B5002407E004EB84010F4A02EB8100F9
:101CE00000F010F9641C052CF5D30C4800F00AF93B
:101CF0000B4800F007F90B4800F004F90A4800F01F
:101D000001F90A4800F0FEF804480949086004484F
:101D10000849086010BD00003C060020A006002015
:101D2000B4060020C8060020DC060020F0060020D3
:101D300050000020540000200A490968096809B9C8
:101D4000012100E0002121B14FF0FF31064A11606E
:101D500006E004490968C968C868034A4168116017
:101D600070470000500000207C000020FEF72EFA93
:101D700000BFFEE7014621B1012904D0072906D1A1
:101D800003E0002005E0022003E0062001E004203B
:101D900000BF00BF7047000010B5024800688047D0
:101DA00010BD0000D800002010B502480068804730
:101DB00010BD0000D000002010B502480068804728
:101DC00010BD0000D40000202DE9F04104464FF082
:101DD000000800F0B7F92648006820B9FFF71EFF99
:101DE00001202349086044B1083404F0070020B101
:101DF00004F00700C0F108000444002C32D044F283
:101E0000F83084422ED21B4F3846056801E02F4639
:101E10002D686868A04202D228680028F7D11648C9
:101E200085421FD0386800F1080828683860686863
:101E3000001B102810D92E196868001B70606C6098
:101E400071680C4800E00068026852688A42FAD360
:101E500002683260066000BF084968680968081AAD
:101E60000649086000F088FC4046BDE8F0810000AB
:101E7000A40000209000002098000020A000002076
:101E8000001F4FF080730360001F0160001F034BB1
:101E90000360143802602038704700006D1D000890
:101EA00070B502460C46FF25FF2309E012F8010B2E
:101EB00080EA03010648405C80EA05030548455C6A
:101EC0002000A4F10106B4B2F0D143EA052070BDB0
:101ED000542800085429000801460A69D1E9013054
:101EE0009860D1E9010358605068884201D1886840
:101EF0005060002008611068401E10601068704734
:101F000000BFFEE700F1080141604FF0FF31816042
:101F100000F10801C16001610021016070470021EA
:101F20000161704742684A6093688B6093685960AA
:101F30009160086103685B1C0360704770B50546DB
:101F40000C4655B1012240F225511048FEF7CEFD56
:101F500008210F48FEF786FA09E0002240F22551D9
:101F60000A48FEF7C3FD08210948FEF77DFA34B19F
:101F7000012240F227710548FEF7B8FD05E0002276
:101F800040F227710148FEF7B1FD70BD00480040E6
:101F90000018014010B501210848FEF7A7FC0022F7
:101FA00001210648FEF7C5FC00210448FEF7D3FCDA
:101FB00000210248FEF79DFC10BD00000008004013
:101FC00010B501210848FEF791FC01221146064890
:101FD000FEF7AFFC00210448FEF7BDFC01210248DA
:101FE000FEF787FC10BD00000008004008B5022085
:101FF0004FF4165300220A2100901046FFF746FBCB
:10200000FFF7A0F803A0FEF7E1FE00BFFFF7AEFB6D
:10201000FCE70000764D6F646275735461736BE684
:10202000ADA3E59CA8E8BF90E8A18CE4B8ADEFBCF7
:10203000810D0A0010B5FEF7C9F805480068401C7C
:1020400003490860BFF34F8FBFF36F8F10BD0000CF
:102050008C00002010B506480068401E0449086046
:102060000846006810B90020FEF7B7F810BD000060
:102070008C00002070B506463546B6B1083D2C46AA
:1020800000F060F86168094800E000680268526882
:102090008A42FAD3026822600460054960680968D0
:1020A00008440349086000F067FB70BD9000002001
:1020B000A000002003484FF0E0214861072008619C
:1020C000704700003F1901004FF08050034908603D
:1020D000BFF34F8FBFF36F8F7047000004ED00E038
:1020E0001FB50020009001900290034680220EA1AF
:1020F00003900F4800F030FA0446012C12D1FEF78D
:1021000065F8A01E0B49086001200B4908600020FB
:102110000A4908600A4A4FF4FA710120FEF78EFF5F
:1021200000F0F0F91FBD000049444C4500000000DC
:10213000551C00087C000020680000206000002082
:102140002103000802480068401C014908607047EC
:10215000800000201F48006818B101201E49086057
:1021600037E000201C4908601C4800681C490860D2
:10217000084600681B49096888420BD91A49096852
:1021800001F14C00C96C164A1268164B1B68D21A32
:102190001144016012480068124908601348006841
:1021A000B0FA80F0C0F11F0101EB8102104B03EB8C
:1021B000820042685268426000F10802436893421C
:1021C00002D14268526842604268D268064B1A6087
:1021D00000BF704780000020700000200800002031
:1021E00088000020840000204C00002064000020B3
:1021F0003C06002001460020054A127832B1054A0B
:1022000012780A700022024B1A70012070470000F9
:102210006E0100206D01002000200249087001209D
:10222000704700006E01002001460120024A107034
:1022300002480170012070476E0100206D010020EE
:1022400010B504460248FEF7E3FC2070012010BDE3
:1022500000480040F0B587B004460D4616461F46BC
:1022600001210920FEF7A4F901218804FEF790F965
:102270004FF48060ADF8180018208DF81B00032083
:102280008DF81A0006A92848FEF761F84FF400609F
:10229000ADF8180004208DF81B0006A92248FEF7AF
:1022A00056F806A92048FEF752F84FF4165002904F
:1022B0000020ADF80C00ADF80E00ADF81000ADF840
:1022C00014000C20ADF8120002A91848FEF734FCE7
:1022D00027208DF8040003208DF8050000208DF8DC
:1022E000060001208DF8070001A8FEF70FF9012173
:1022F0004020FEF75DF910208DF81B0003208DF8BB
:102300001A000820ADF8180006A90948FEF71FF8C2
:1023100001210648FEF7B4FB40210448FEF798FB74
:10232000012007B0F0BD0000000C01400048004053
:102330000018014010B5044621460248FEF76DFC26
:10234000012010BD004800407FB504460025012152
:102350000420FEF71DF91C48006844F62061B0FB1C
:10236000F1F0401E85B2ADF80840ADF804500020F1
:10237000ADF80A00ADF8060001A91448FEF7EEFA20
:1023800001211248FEF7A6FA1E208DF80000042055
:102390008DF8010000208DF8020001208DF8030067
:1023A0006846FEF7B3F801210848FEF79FFA0022BD
:1023B00001210648FEF7BDFA00210448FEF799FA0C
:1023C000012004B070BD000038000020000800406B
:1023D00038B500246846FFF733FF1C48007830B159
:1023E00001280AD0022819D003282BD102E0FFF7D8
:1023F000E7FD27E0FFF7E4FD24E000201449088012
:102400009DF800200888411C114B198011490A547D
:1024100002200E490870FFF7D3FD13E00C48008836
:10242000FF2809DC9DF8002009490888411C084B59
:10243000198008490A5402E0032004490870FFF794
:10244000BFFD00BF00BF204638BD0000AD0000202A
:10245000B6000020244B002010B500240D48007861
:1024600020B1022807D003280BD109E00020FFF794
:10247000DBFE044606E00120FFF7D6FE044601E03D
:1024800000E000BF00BFFFF785FD01200149087093
:10249000204610BDAD00002010B50024164800787D
:1024A00010B1012824D104E000210120FFF746FDEE
:1024B0001EE01248008878B1114909680878FFF7D2
:1024C00039FF0F480068401C0D4908600B48008820
:1024D000401E0A4908800AE00320FFF7A5FE0446D3
:1024E00000210120FFF72AFD00200349087000BFEA
:1024F00000BF204610BD0000AC000020B40000204A
:10250000B000002010B50A48006840F47F00084978
:1025100008600846006840F07F400860FFF7CAFD89
:10252000002004490860FDF71FFE002010BD0000D8
:1025300020ED00E08C00002010B5FDF747FE00F014
:102540008BF818B14FF08050024908600020FDF769
:1025500044FE10BD04ED00E02DE9FF4F81B0804640
:1025600015469946DDE90E7A28461099FFF7F8FAE4
:102570000446002C52D0681E216B01EB800B2BF01F
:10258000070B00953A462046119B0299FFF770FB16
:102590004A4641465846FFF773FC2060BAF1000FE7
:1025A00001D0CAF80040FFF745FD25480068401CEF
:1025B000234908602348006840B92248046008465F
:1025C000006801280CD1FFF783FB09E01E48006872
:1025D00030B91C480068C06AB84201D81948046084
:1025E0001A480068401C1949086008460068606481
:1025F00094F82C10012088401549096808431449B3
:102600000860E16A01EB8101124A02EB8100211DA1
:10261000FFF788FC0126FFF71DFD01E04FF0FF36B4
:10262000012E09D10848006830B106480068C06A28
:10263000B84201D2FFF748FD304605B0BDE8F08F43
:102640005C0000204C000020680000207800002082
:10265000640000203C0600202DE9F04100273B48A3
:102660000068002865D13A480068401C3849086075
:10267000084606688EB93748D0F8008036480068AA
:10268000344908603448C0F8008034480068401C71
:1026900032490860FFF750FB00BF314800688642AE
:1026A0003BD300BF2B480068006808B9012000E058
:1026B000002020B14FF0FF30294908602CE0254868
:1026C0000068C068C4686568AE4202D224480560EC
:1026D00022E0201DFFF700FCA06A18B104F11800E9
:1026E000FFF7FAFB94F82C10012088401D49096877
:1026F00008431C490860E16A01EB81011A4A02EBB8
:102700008100211DFFF70EFC1849E06A0968C96ABB
:102710008842C7D30127C5E700BF14480068C06AD4
:1027200000EB8000104951F82000012806D901274C
:1027300004E00F480068401C0D4908600D4800681F
:1027400000B101273846BDE8F0810000800000207C
:102750006000002050000020540000207400002081
:102760007C000020640000203C0600204C0000207B
:102770006C0000207000002070B50025FFF75AFCA7
:102780002C480068401E2B49086008460068002855
:102790004BD129480068002847D024E02748C0686A
:1027A000C46804F11800FFF797FB201DFFF794FBA6
:1027B00094F82C10012088402149096808432049D9
:1027C0000860E16A01EB81011E4A02EB8100211DD4
:1027D000FFF7A8FB1C49E06A0968C96A884202D36E
:1027E00001201A4908601548006808B9012000E076
:1027F00000200028D2D01648006878B10AE0FFF720
:102800002BFF10B101201149086011480068401EDB
:102810000F4908600E4800680028F0D10B48006896
:10282000012802D10125FFF74FFCFFF713FC2846D2
:1028300070BD0000800000205C000020C806002061
:10284000640000203C0600204C00002070000020A6
:102850006C00002000C1814001C0804101C0804166
:1028600000C1814001C0804100C1814000C1814060
:1028700001C0804101C0804100C1814000C1814050
:1028800001C0804100C1814001C0804101C0804140
:1028900000C1814001C0804100C1814000C1814030
:1028A00001C0804100C1814001C0804101C0804120
:1028B00000C1814000C1814001C0804101C0804110
:1028C00000C1814001C0804100C1814000C1814000
:1028D00001C0804101C0804100C1814000C18140F0
:1028E00001C0804100C1814001C0804101C08041E0
:1028F00000C1814000C1814001C0804101C08041D0
:1029000000C1814001C0804100C1814000C18140BF
:1029100001C0804100C1814001C0804101C08041AF
:1029200000C1814001C0804100C1814000C181409F
:1029300001C0804101C0804100C1814000C181408F
:1029400001C0804100C1814001C0804101C080417F
:1029500000C1814000C0C101C30302C2C60607C74F
:1029600005C5C404CC0C0DCD0FCFCE0E0ACACB0BBF
:10297000C90908C8D81819D91BDBDA1A1EDEDF1FEF
:10298000DD1D1CDC14D4D515D71716D6D21213D3DF
:1029900011D1D010F03031F133F3F23236F6F7378F
:1029A000F53534F43CFCFD3DFF3F3EFEFA3A3BFB7F
:1029B00039F9F83828E8E929EB2B2AEAEE2E2FEF2F
:1029C0002DEDEC2CE42425E527E7E62622E2E3239F
:1029D000E12120E0A06061A163A3A26266A6A767CF
:1029E000A56564A46CACAD6DAF6F6EAEAA6A6BAB3F
:1029F00069A9A86878B8B979BB7B7ABABE7E7FBF6F
:102A00007DBDBC7CB47475B577B7B67672B2B3735E
:102A1000B17170B05090915193535292965657970E
:102A2000559594549C5C5D9D5F9F9E5E5A9A9B5BFE
:102A300099595898884849894B8B8A4A4E8E8F4FAE
:102A40008D4D4C8C4484854587474686824243831E
:102A500041818040742A00080000002080010000AD
:102A600078020008E42A000880010020A853000032
:102A7000FC0D000801252D0102030404400906078E
:102A8000080902040608ACA24A041F291B01401AC7
:102A9000AA0101100318F843022902321113B514D8
:102AA0002A08B113531333080313C7123308101342
:102AB0001F16330806134D153308171ADF2032018D
:102AC000136D113308051ADD38320F1A8F20297261
:102AD0001A1B38013C14E8030212031204195C2982
:042AE0007F11000062
:0400000508000131BD
:00000001FF
